:100000000C94EA020C94440D0C9431030C943103CB
:100010000C9431030C9431030C9431030C94310390
:100020000C9431030C9431030C9474240C944625E5
:100030000C94F11A0C9431030C9431030C94310399
:100040000C9431030C9431030C9431030C94310360
:100050000C9431030C94591B0C9431030C94310310
:100060000C9431030C9431030C9431030C94310340
:100070000C9431030C9431030C9431030C94310330
:100080000C9431030C9431030C9431030C94310320
:100090000C9431030C9431030C9431030C94310310
:1000A0000C9431030C9431030C943103AA04AC0476
:1000B000B704AE04B004B204B404B604B904BB047B
:1000C000BD04C804BF04C104C304C504C704CA04F2
:1000D0000C110C113E113E117C119C110C130C13D0
:1000E000DE110C138B128B12FC120C130C13051364
:1000F00098129812981298129812981298129812B0
:10010000981298129812981298129812981298129F
:10011000A912B712BE12C512CF129B139B13AD13B7
:10012000AD13A413AD13AD13AD139B139B13A91300
:10013000AD13AD13A913B325DA25CC26DA25CC26C9
:1001400026264926CC269F26AE2635001E001F00F7
:100150002000210022007C002B0014001A00070060
:1001600009000E002F0039000400160008001700D7
:100170000A000058D65C1D001B000600190005008F
:100180000158165CE000E200E300000F2C0028009C
:100190002E00270026002500240023007D002D00CE
:1001A00033000F00150018000D00300034000B0064
:1001B00012000C0011001C000358D75C38003700F7
:1001C00036001000130002583100E400E6002A0057
:1001D00062072C00280001003A003B003C003D0073
:1001E0003E004E0001001E021F022F0230023102AB
:1001F0004A000100200221022F00300035000100DA
:1002000001002202230226022702350201007A00A1
:100210007B007C007D000100010001000100430023
:100220004200410040003F004B00010055006100CA
:1002300060005F0053004D00850054005E005D00CB
:100240005C0001000100010057005B005A005900EA
:1002500046000100010056006300620059070100DA
:100260000100010001000100010001000100BB5C70
:1002700001000100F0000100F9000100BF5C010075
:10028000F200F100F300FA0001000100010001009A
:100290000100010001000100010001000100010056
:1002A0000100F400F500F600C25C0100010001004D
:1002B00001000100BC5CC35CC55CC75CC95CCB5C75
:1002C000BE5CC05CC45CC65CC85CCA5CCC5CBD5C2B
:1002D0000100CD5CCE5CCF5CD05C0100C15C010054
:1002E000D15CD25CD35CD45C5A07010001000100F0
:1002F0003A003B003C003D003E00010001000100CF
:1003000052000100010001000100010050005100F5
:100310004F00010001000100010001000100010087
:1003200001000100010001000100010001000100C5
:1003300001000100B00043004200410040003F00C6
:100340000100A800A900AA00AB00AE00AC000100AB
:100350000100010001000100010001000100010095
:100360000100010001000100010001000100010085
:10037000010001005B070100010000000000000116
:100380000101010101010101020202020202020255
:100390000203030303030303030404040404040526
:1003A00005050505060606060607070707080808E7
:1003B000080909090A0A0A0A0B0B0B0C0C0C0D0D93
:1003C0000D0E0E0F0F0F1010111111121213131426
:1003D00014151516161717181819191A1A1B1C1C9C
:1003E0001D1D1E1F1F2020212222232425252627F4
:1003F0002728292A2B2B2C2D2E2F2F303132333426
:100400003536363738393A3B3C3D3E3F4041424332
:1004100044464748494A4B4C4D4F5051525355560C
:1004200057585A5B5C5E5F606263646667696A6CBA
:100430006D6E707173747678797B7C7E8081838435
:1004400086888A8B8D8F91929496989A9B9D9FA176
:10045000A3A5A7A9ABADAFB1B3B5B7B9BBBDBFC17C
:10046000C4C6C8CACCCFD1D3D6D8DADCDFE1E4E643
:10047000E8EBEDF0F2F5F7FAFCFF040330000000C2
:1004800026035400680065002000520065006400E7
:100490006F00780020004B006500790062006F005B
:1004A00061007200640000001403460061006C00EB
:1004B00062006100740065006300680000000403CE
:1004C000090409023B00020100A0FA09040000012E
:1004D00003010100092111010001224000070581EB
:1004E0000308000A090401000103000000092111AA
:1004F0000100012285000705820320000A12011075
:100500000100000008EDFE000000010102030105EA
:10051000010902A10185020901A1000509190129AA
:100520000515002501950575018102950175038169
:10053000010501093009311581257F950275088172
:100540000609381581257F950175088106050C0A75
:1005500038021581257F950175088106C0C0050107
:100560000980A10185031601002603001A81002AD3
:100570008300751095018100C0050C0901A101855A
:1005800004160100269C021A01002A9C027510958F
:10059000018100C005010906A101050719E029E74D
:1005A00015002501950875018102950175088101E5
:1005B0000508190129059505750191029501750335
:1005C00091010507190029FF150026FF0095067502
:1005D000088100C011241FBECFEFDAE0DEBFCDBF1F
:1005E00004B603FE27C08091490290914A02A0916F
:1005F0004B02B0914C028730904BA740B04BD1F4E6
:100600001092490210924A0210924B0210924C0230
:1006100014BE84B7877F84BF0FB6F894A8958091E5
:100620006000886180936000109260000FBEE0E07F
:10063000F8E3099511E0A0E0B1E0E0EFFEE402C0CC
:1006400005900D92A833B107D9F722E0A8E3B1E0F5
:1006500001C01D92A934B207E1F70E9498210C94C1
:1006600076270C9400000C94EF0781E0089581E058
:1006700008950C9437030E94F019811102C00E9462
:100680005E1A0C9433030C94F10708950C944503FF
:100690000C94460308950E948B130E944A032FEF87
:1006A00084E39CE0215080409040E1F700C00000CE
:1006B0000C947F1BFF920F931F93CF93DF938C01BA
:1006C000FC01C081D18180916F01811113C08281B1
:1006D000882349F0CE010E94C018F82E682FCE0161
:1006E0000E94651804C0CE010E949418F82EBE0125
:1006F0008F2D04C0CE010E94C018BE010E947E054D
:10070000EC01B8010E943903882309F4ECC1C93C0B
:10071000FCE5DF0709F4C5C0C0F5C23C9CE5D9077C
:1007200009F486C0C0F4C531FCE5DF0778F4C230B7
:100730008CE5D80708F0ECC0C1159CE5D90709F491
:100740005CC0C130DC4509F460C0C0C1C631DC45C5
:1007500009F495C1BBC1C53C8CE5D80709F488C034
:1007600050F4C33CECE5DE0709F469C0C43CDC4549
:1007700009F46FC0ABC1F8018281C73CFCE5DF071B
:1007800009F485C008F47EC087C0C63DECE5DE07ED
:10079000B0F4CE3CFCE5DF0708F0A5C1CB3C8CE50E
:1007A000D80709F48CC008F483C0CC3CECE5DE0724
:1007B00009F48DC0CD3CDC4509F491C087C1C83D2A
:1007C0008CE5D80709F440C150F4C63DECE5DE07DE
:1007D00009F4F0C0C73DDC4509F40FC177C1CC3D39
:1007E0008CE5D80709F48BC0CD3D9CE5D907C1F055
:1007F000CB3DDC4509F06AC17BC0F80182818823CA
:1008000009F471C10E944B036EC1F80182818823F3
:1008100009F469C18091EA0181608093EA0163C1B2
:10082000F8018281882309F45EC10E945E1A5BC1CF
:10083000F8018281811157C10E94210C1FC0F8016B
:100840008281882309F44FC10E944019827251F0BD
:100850000CC0F8018281882309F445C10E94401927
:10086000827219F00E94040C09C00E94120C06C08A
:10087000F8018281811137C10E942E0B81E08093A3
:10088000530131C181112FC10E94520BF7CF811149
:100890002AC10E94720BF2CF811125C10E94920BD6
:1008A000EDCFF801828181111EC10E94B20BE6CF0B
:1008B000F8018281811117C10E94D20BDFCFF801AC
:1008C0008281882309F40FC10E945A0A0CC1F801E1
:1008D0008281882309F407C10E946F0A04C1F801CC
:1008E0008281882309F4FFC081E00E94150CC6CFE5
:1008F000F8018281882309F4F6C080E006C0F8017F
:100900008281882309F4EFC082E00E943722EBC085
:10091000F8018281882309F4DEC00E94F019811158
:1009200002C00E945E1A0E94031A90E090933B025C
:1009300080933A02FE01E350FC45E231F10530F4C8
:10094000EA5AFF4F80913A020C94282780913A028C
:10095000816027C0826025C0846023C0806121C07F
:1009600080621FC080641DC080681BC08460886076
:1009700018C08E7F16C08D7F14C08B7F12C08F7EF3
:1009800010C08F7D0EC08F7B0CC08F770AC08B7F0D
:10099000877F07C087FB222720F991E0922790FBF1
:1009A00087F980933A0280913A020E94071A0E94C6
:1009B0008B1399C0F8018281882351F010923D0178
:1009C0000E94231B90933A018093390182E022C058
:1009D00080913D0181110FC08091390190913A01C0
:1009E0000E942F1B883C910530F486E20E94270F5D
:1009F00086E20E94601082E024C0F8018281882390
:100A000061F010923E010E94231B90933C01809361
:100A10003B0180E20E94C81066C080913E018111B6
:100A20000FC080913B0190913C010E942F1B883C9C
:100A3000910530F487E20E94270F87E20E94601040
:100A400080E20E94CF104FC0F80182818111D9CF7E
:100A500080913E018111F4CF80913B0190913C0146
:100A60000E942F1B883C910558F780E20E94CF100E
:100A700088E20E94270F88E20E94601034C00E9422
:100A80004019282FF80182814091090150910A01F3
:100A9000882379F02A7A91E009F490E09093380164
:100AA000911102C069E201C065E3CA010E94921A75
:100AB0000AC080913801811102C069E201C065E37A
:100AC000CA010E94941A0E948C190DC081E0809383
:100AD0003D0180933E01C801DF91CF911F910F919D
:100AE000FF900C94350380E0DF91CF911F910F911F
:100AF000FF90089580E090E00895089597E0799F31
:100B0000F001112496E4899FE00DF11D1124E60FF8
:100B1000F11DEE0FFF1FE65BFE4F85919491089546
:100B2000880F991FFC01E658FC4F85919491089518
:100B3000CF93DF930E947E050E944F07EC01811541
:100B400020E59207F0F5811530E4930708F024C101
:100B5000883E910500F5803E910508F09CC1883AD9
:100B6000910570F4853A910508F09FC08130910598
:100B700009F491C108F442C1049708F08CC13EC148
:100B80008F3B910508F49CC0803C910508F436C168
:100B9000805C9109F4C0811540E2940758F4C115B6
:100BA00081E0D80708F077C1C03FD10508F426C11D
:100BB000D06571C1811520E3920708F0E4C09F70F1
:100BC000DEC0811535E5930708F044C0811544E582
:100BD000940708F0F8C0C11582E5D80708F5C115DB
:100BE00021E5D20708F0DBC08C2F837021E030E0D4
:100BF00002C0220F331F8A95E2F73C68CE0174E0F1
:100C0000969587957A95E1F78370382BCF70C695C6
:100C1000C69580E2C89FE0011124C22BD32B3BC1B3
:100C20002C2F26952695CE0183709927C115D34583
:100C300008F0BAC040E2249F90011124C1E0D0E046
:100C400002C0CC0FDD1F8A95E2F72C2B3D2BE9016A
:100C5000DC6821C1811549E59407A0F4C11588E538
:100C6000D80708F0B5C0C11526E5D20708F0C6C000
:100C70008C2F0E94CC078F71C82FD0E0DC2FCC279F
:100C8000D06209C181153AE5930708F4A6C09056D1
:100C90008115904208F0B2C08D2F8F710E94CC0751
:100CA000DD27D0628F71D82BF6C0853A910509F403
:100CB000A8C0863A910509F0A7C0C2E8D0E4EBC00D
:100CC000883A910509F4A3C0893A910509F4A2C0B4
:100CD0008A3A910509F4A1C08B3A910509F4A0C0A4
:100CE0008C3A910509F49FC08B3B910509F49EC095
:100CF0008C3B910509F49DC08D3A910509F49CC087
:100D0000803B910509F49BC08E3A910509F49AC085
:100D10008F3A910509F499C0813B910509F498C077
:100D2000823B910509F497C0833B910509F496C075
:100D3000843B910509F495C0853B910509F494C065
:100D4000863B910509F493C0873B910509F492C055
:100D5000883B910509F491C0893B910509F490C045
:100D60008D3B910509F48FC08E3B910509F48EC02F
:100D70008A3B910509F48DC0C0E0D4E48CC00E9488
:100D80009005EC0188C09927D3FF03C0EC01D86C13
:100D900082C0EC01D06C7FC0DF70D06A7CC0DC2FD9
:100DA000CC27C16FD06A77C040E2249F9001112404
:100DB000C1E0D0E002C0CC0FDD1F8A95E2F7C22B64
:100DC000D32BDA6868C0D82FCC27C46FD06A63C031
:100DD000DC2FCC27C06FD06A5EC08F700E94CC071A
:100DE00094E0D695C7959A95E1F7CF70D0E0DC2FC7
:100DF000CC27D06A8F70806EC82B4DC0C0E0D0E089
:100E00004AC0C1E8D0E447C0C3E8D0E444C0C2EE61
:100E1000D4E441C0C9EED4E43EC0CAEED4E43BC041
:100E2000C5EBD4E438C0C6EBD4E435C0C3EBD4E49E
:100E300032C0C4EBD4E42FC0C7EBD4E42CC0CCEC5C
:100E4000D4E429C0CDECD4E426C0C3E8D5E423C063
:100E5000CAE8D5E420C0C2E9D5E41DC0C4E9D5E4A0
:100E60001AC0C1E2D6E417C0C3E2D6E414C0C4E29B
:100E7000D6E411C0C5E2D6E40EC0C6E2D6E40BC08B
:100E8000C7E2D6E408C0CFE6D4E405C0C0E7D4E4A6
:100E900002C0CAE2D6E4CE01DF91CF910895823834
:100EA000910549F1B0F48133910509F458C048F433
:100EB0008932910509F44EC08A32910509F454C073
:100EC00008958533910509F440C08933910599F05F
:100ED0000895833E910529F138F4803E910591F003
:100EE000823E9105A1F00895863E9105F9F0873E76
:100EF000910531F1089520913A0220FD3AC021FD7B
:100F000038C0089580913A0280FD35C032C080918A
:100F10003A0282FF32C080913A0284FD30C083EEF3
:100F200039C080913A0282FD28C0F5CF80913A0203
:100F300083FF27C080913A0284FD21C087EE2AC03A
:100F400080913A0283FD1DC0F5CF80913A0285FD64
:100F50001AC01BC080913A0285FD17C014C0809151
:100F60003A0286FD14C015C080913A0286FD11C078
:100F70000EC080EE0FC089E30DC082EE0BC080E092
:100F800009C086EE07C089E205C085E303C08AE296
:100F900001C081E390E0089590913A0292FF0DC064
:100FA000282F2871283019F4877F846006C0282FE5
:100FB0002471243011F48B7F886093FF0DC0282F9B
:100FC0002871283119F4877E846106C0282F247186
:100FD000243111F48B7E886194FD877E08950895F5
:100FE00008950C94F0070895E82FF0E0EB5BFE4FB6
:100FF0008081089508958091EA01836088608093DC
:10100000EA018091000180910001811102C095E008
:1010100001C090E09093040285E0891B8093030255
:10102000A3E2B1E041E050E025E02A0F8D91E82FE6
:10103000E295EF70F0E031A18F70BA0102C0660F47
:10104000771F8A95E2F7CB01962F9095932391A372
:1010500092A1892B82A32A13E9CFACE1B1E041E050
:1010600050E027E02A0F8D91E82FE295EF70F0E035
:1010700031A18F70BA0102C0660F771F8A95E2F71F
:10108000CB01962F9095932391A392A1892B82A3B4
:101090002A13E9CFE5E4F1E08AE08E0F11928E1376
:1010A000FDCF85E00E941B090C943B036F927F9259
:1010B0009F92AF92BF92CF92DF92EF92FF920F93E7
:1010C0001F93CF93DF9323E2622E21E0722EA0E4E0
:1010D000B1E020E001E010E035E0B32EBA0E7D0172
:1010E000AC901C92E30189913E01E82FE295EF70EC
:1010F000F0E042A18F70B80102C0660F771F8A9599
:10110000E2F7CB01362F3095432342A341A1462B72
:1011100041A370EA7A95F1F79CE1C92E91E0D92EAE
:1011200040E050E0E60199906E01692D62956F7084
:1011300070E0EB0168A170E0D92DDF7002C07595F9
:101140006795DA95E2F760FD07C0B801042E01C08B
:10115000660F0A94EAF702C060E070E07C91672BAA
:101160006C934F5F5F4F47305105E1F691A13923F2
:1011700031A392A1892B82A3119681E0F70190817E
:10118000A91201C080E0282BBA12A9CF60910402F5
:1011900070E06B5B7E4F45E080E491E00E941C09AB
:1011A00081E0DF91CF911F910F91FF90EF90DF9041
:1011B000CF90BF90AF909F907F906F900895CF9306
:1011C0000E945608C82F0E945109882339F12091A6
:1011D0000302822F90E08B5B9E4F0E948C0981114D
:1011E00018C090913F019F5F90933F01963098F017
:1011F0004091030220E030E050E0F901E40FF51FD8
:10120000EB5BFE4F10822F5F3F4F25303105A9F772
:1012100002C010923F010E9443030AC020910402C1
:10122000822F90E08B5B9E4F0E94A7090E94F307DC
:101230008C2FCF9108950895FF920F931F93CF9312
:10124000DF93C82F192FF62E072FD42F222349F012
:1012500081E0809351010E94231B90935001809361
:101260004F01809151018823B1F080914F019091FD
:1012700050010E942F1B069770F02C2FAF2DB02F1E
:10128000EC2FF12F8E2F821B8D1718F481918D93E7
:10129000F9CF10925101DF91CF911F910F91FF90E3
:1012A000089580915401811112C08091D80080610D
:1012B0008093D8008AE18A95F1F700C08091D90027
:1012C00080FD02C082E001C081E08093540181E092
:1012D00090915401913009F080E008950C945109E7
:1012E0000E946E09809300010E945109882331F009
:1012F0000E94800981E08093520108950C94860930
:1013000061E070E081E091E00C94E90C61E070E054
:1013100081E091E00C94F20CCF93DF93D82FC92F8A
:101320000E94950D892B79F4ED2FFC2F80E090E041
:10133000DC01AA5ABE4F2C9121930196853091056C
:10134000B9F781E001C080E0DF91CF91089520E0FE
:1013500030E0FC014191CF01F901EA5AFE4F408390
:101360002F5F3F4F25303105A1F70895EF92FF928F
:101370000F931F93CF93DF93E901662309F44BC0CA
:10138000242F30E0EFEFF0E0E61BF109B901E69F12
:101390009001E79F300DF69F300D1124232F8B0114
:1013A000031B11095CE3E52EF12CB7010E94002715
:1013B000FB01BC01069FC001079F900D169F900D79
:1013C0001124B7010E940027E230F105B1F040F48A
:1013D000309779F0319711F5832F242F461B21C0C8
:1013E000E430F105A1F068F03597C1F4842F861B35
:1013F00018C0832F262F230F14C0862F830FE42FAE
:1014000003C0E42FE61B842F432F2E2F0AC0842F06
:10141000462F430F06C0842F242F03C080E020E016
:1014200040E0E42FF0E0E658FC4F4491E22FF0E07A
:10143000E658FC4F9491E82FF0E0E658FC4FE49119
:1014400049839883EA83DF91CF911F910F91FF9099
:10145000EF90089588E090E00C943627CF92DF92C9
:10146000EF92FF926B017C010E942A0A6C157D05A8
:101470008E059F0551F0B701A60188E090E0FF902E
:10148000EF90DF90CF900C945427FF90EF90DF9077
:10149000CF900895E5E0F2E083E0808310920602A9
:1014A0008FEF828383831482608171818281938133
:1014B0000C942E0A8091090290E0019684309105E7
:1014C00014F083E090E0809309026091050270912E
:1014D000060280910702909108020C942E0A8091D6
:1014E000090290E0019797FF02C080E090E084300D
:1014F000910514F083E090E0809309026091050269
:101500007091060280910702909108020C942E0AB5
:101510008091050280FF06C06EE070E08AE092E0F4
:101520000C948B0C80E090E0FC01E65FFD4F118293
:101530001082128203968A329105B1F7EDCFE5E071
:10154000F2E080818E7F80836081718182819381CE
:101550000E942E0A2FEF80E792E0215080409040B9
:10156000E1F700C000000C94880A9091050290FFFA
:101570000FC020E030E0F901E65FFD4F818360831A
:1015800042832D5F3F4F2A323105A9F70C94880A18
:101590000895DF92EF92FF920F931F93CF93DF9303
:1015A00000D01F92CDB7DEB73091050230FF31C0B9
:1015B000D22E042FF62EE92E182F3E77323051F41A
:1015C0009E012F5F3F4F0E94B6094B8169818A813E
:1015D0000E94B50A8091050210FB87F980930502ED
:1015E0001695809106028078182BE0FA17F910936F
:1015F0000602F092070200930802DD2051F060918C
:1016000005027091060280910702909108020E94E3
:101610002E0A0F900F900F90DF91CF911F910F9195
:10162000FF90EF90DF900895282FE5E0F2E09081A1
:10163000991F9927991F30910602832F880F482FF1
:10164000492B37FB552750F9CA010A9668E671E025
:101650000E941427438162810C94C90A81E00C9492
:10166000140B282F90910502991F9927991F3091EB
:101670000602832F880F482F492B37FB552750F937
:10168000CA014A3051051CF4825A9E4F01C00A9784
:1016900068E671E00E9414274091080260910702F9
:1016A0000C94C90A81E00C94310B60910702262F3B
:1016B00030E02F3E310514F46F5E01C06FEF3091C2
:1016C0000502331F3327331F90910602592F550F00
:1016D00097FB992790F9282F40910802852F832B9B
:1016E0000C94C90A81E00C94550B60910702262FD7
:1016F00030E02131310514F0615101C060E03091DA
:101700000502331F3327331F90910602592F550FBF
:1017100097FB992790F9282F40910802852F832B5A
:101720000C94C90A81E00C94750B40910802242F97
:1017300030E02F3E310514F44F5E01C04FEF309181
:101740000502331F3327331F90910602592F550F7F
:1017500097FB992790F9282F60910702852F832BFB
:101760000C94C90A81E00C94950B40910802242F37
:1017700030E02131310514F0415101C040E0309199
:101780000502331F3327331F90910602592F550F3F
:1017900097FB992790F9282F60910702852F832BBB
:1017A0000C94C90A81E00C94B50B20E00C94C90A92
:1017B0008091050280FF23C08178826080930502BA
:1017C000662351F060910502709106028091070234
:1017D000909108020E942E0A80910502881F882796
:1017E000881F90910602292F220F97FB992790F9C5
:1017F0004091080260910702822B0C94D50B08954A
:10180000682F81E00C94D80B81E00C94000C682FB9
:101810009091050296959F738FEF890F09F481E0EF
:101820000C94D80B81E00C94070C61E00C94D80B5D
:10183000E5E0F2E080818160808386958F730C946F
:10184000150C8091050280FD0C949F0A0C94180CD5
:1018500060E00C94D80B8091EA0181608093EA01EA
:101860000E94F019811104C00E945E1A0E944A0A67
:101870000E942A0A60930502709306028093070271
:10188000909308026E7761F40E944A0A0E942A0A25
:1018900060930502709306028093070290930802FA
:1018A0008091050280FF04C086958F730C94280CEC
:1018B00008952BB1342F309523233BB1432B3FB7F1
:1018C000F894FC01680F791FE617F70789F08191FA
:1018D00098E04BB9000000C087FF2BB9880F0000CB
:1018E00000C000C000C02BB900C09A9591F7ECCFA2
:1018F0003FBF08952AB1242B2AB99B01220F331F21
:10190000620F731F0E94590C87EC90E00197F1F76A
:1019100000C00000089548E00C947A0C8EE1489BCA
:1019200002C08150E1F7489BFECF0895589880E2AD
:101930008A95F1F7589A0895FC013AE03A95F1F743
:1019400098E020E080E031E040E14A95F1F7880F2F
:10195000489B02C08160232700C0000040E14A95F7
:10196000F1F7915089F790E19A95F1F799B100C09C
:10197000000030E13A95F1F7917092272081920FA3
:1019800090830895FF920F931F93CF93DF9300D01E
:10199000CDB7DEB71982F82E8C01802F8F198617EC
:1019A00060F46A830E948E0CCE0101960E949C0C0A
:1019B000F80181938F016A81F0CF81E099819111C3
:1019C00080E00F900F90DF91CF911F910F91FF90CA
:1019D000089590935D0180935C0160935B01509A40
:1019E000589A089590935D0180935C0160935B0128
:1019F0005098589AE89AE9E6F0E080818C7F8083DD
:101A00000895615091E001C0990F6A95EAF720E0CE
:101A100031E0992361F0492F482319F0589A232780
:101A200001C0589840E24A95F1F79695F2CF2223EB
:101A300011F0589A01C0589880E28A95F1F75898A9
:101A40000895EF92FF920F931F93CF93DF931F920E
:101A5000CDB7DEB7162F082F7C018E2D801B811786
:101A600058F4F70181917F0189830E94960C68E008
:101A700089810E94010DF1CF0F90DF91CF911F91CD
:101A80000F91FF90EF9008951F920F920FB60F9253
:101A900011242F933F934F935F936F937F938F9373
:101AA0009F93AF93BF93CF93DF93EF93FF93589898
:101AB000509AC0915C01D0915D016D81662321F047
:101AC0008E819F810E94210D0E94960C80E18A9553
:101AD000F1F758985098589A80E18A95F1F76A8101
:101AE000662351F08B819C810E94C20CE881F981B0
:101AF000811104C082E003C0E881F98188E080831D
:101B00000E948E0CFF91EF91DF91CF91BF91AF9129
:101B10009F918F917F916F915F914F913F912F9105
:101B20000F900FBE0F901F901895CF93DF93C09129
:101B30005C01D0915D01F894509A589885E08A959F
:101B4000F1F700005098589A80E28A95F1F7489B87
:101B50000AC0509A589AE881F98181E0808378948C
:101B600081E090E02CC06D81662381F08E819F81A1
:101B70000E94C20C81110AC0509A589AE881F981DA
:101B800082E08083789482E090E019C00E948E0CFD
:101B900080E28A95F1F75898509A80E18A95F1F79A
:101BA0006A81662321F08B819C810E94210D0E9415
:101BB000960CE881F9811082789480E090E0DF91C2
:101BC000CF91089590936301809362010895E0910D
:101BD0006201F0916301309721F00190F081E02DD6
:101BE000099480E00895E0916201F09163013097DB
:101BF00021F00280F381E02D09940895E0916201C3
:101C0000F0916301309739F022E0DC012C930480DD
:101C1000F581E02D099408952091600130916101D2
:101C20008217930771F09093610180936001E091B6
:101C30006201F0916301309721F00680F781E02D79
:101C40000994089520915E0130915F0182179307F6
:101C500071F090935F0180935E01E0916201F091D9
:101C60006301309721F00084F185E02D09940895F7
:101C700085B7806885BF85B7806885BF08950E9455
:101C8000380E0C9470090E941A1B0E94FB070E94D8
:101C9000A31B0C942B0CCF92DF92EF92FF920F9329
:101CA0001F93CF93DF93CDB7DEB72B970FB6F89482
:101CB000DEBF0FBECDBF0E94DF080E945109811117
:101CC00011C08FEF89838A831B820E94231B81604E
:101CD000782F9D838C8349815A816B818D810E94ED
:101CE000F30E56C085E6C82E81E0D82E00E010E045
:101CF000E02E802F0E94F407F60141916F01F42E2F
:101D0000F82631F40F5F1F4F0A30110589F7D9CF3C
:101D10009091EA0191FF04C08B870E94FA078B859E
:101D200020E030E04F2D50E0922FBA01022E02C089
:101D3000759567950A94E2F760FF24C02E83EF82C1
:101D400021E030E0690102C0CC0CDD1C9A95E2F77D
:101D500090E08C219D21892B09F420E028870E94A6
:101D6000231B8160782F9A8789874E815F816885E0
:101D70008A850E94F30EF801EB59FE4F8081C82638
:101D8000C08206C02F5F3F4F2730310569F6BACFBA
:101D90000E94361D109164010E94E70D1817A1F0F2
:101DA0000E94E70D809364012B960FB6F894DEBF76
:101DB0000FBECDBFDF91CF911F910F91FF90EF909C
:101DC000DF90CF900C9448032B960FB6F894DEBFAB
:101DD0000FBECDBFDF91CF911F910F91FF90EF907C
:101DE000DF90CF900895CF93DF93CDB7DEB72B97D9
:101DF0000FB6F894DEBF0FBECDBF4F8358876987FB
:101E00007A878B87DE01119686E0FD0111928A9513
:101E1000E9F785E0FE01379601900D928A95E1F78A
:101E200049815A816B817C818D819E810E9435160A
:101E30002B960FB6F894DEBF0FBECDBFDF91CF91CA
:101E40000895FC01808191810E9401190895CF932A
:101E5000DF931F92CDB7DEB7882309F42DC1682F19
:101E60008238C1F40E94E70D81FD26C169E38091AB
:101E7000090190910A010E94921A0E948C192FEF79
:101E800081EE94E0215080409040E1F700C00000D6
:101E900069E319C0833811F50E94E70D80FD0CC17C
:101EA00063E58091090190910A010E94921A0E94B3
:101EB0008C192FEF81EE94E0215080409040E1F7A3
:101EC00000C0000063E58091090190910A010E9421
:101ED000941A0F90DF91CF910C948C198438C1F42F
:101EE0000E94E70D82FDE8C067E4809109019091AE
:101EF0000A010E94921A0E948C192FEF81EE94E041
:101F0000215080409040E1F700C0000067E4DBCF43
:101F10008CEF860F813A70F4862F69830E94591FD7
:101F200069818111C9C08091090190910A010E94C3
:101F3000921ACFCF80E2860F883048F4677081E034
:101F400001C0880F6A95EAF70E944319C2CF8BE55A
:101F5000860F833088F4653A29F0663A31F083E8D9
:101F600090E005C081E890E002C082E890E00F9028
:101F7000DF91CF910C940C0E88E5860F873108F025
:101F800091C0683A09F445C0693A09F445C06A3A13
:101F900009F445C06B3A09F445C06C3A09F445C0F0
:101FA0006B3B09F445C06C3B09F445C06D3A09F43C
:101FB00045C0603B09F445C06E3A09F445C06F3A2C
:101FC00009F445C0613B09F445C0623B09F445C0D2
:101FD000633B09F445C0643B09F445C0653B09F423
:101FE00045C0663B09F445C0673B09F445C0683B02
:101FF00009F445C0693B09F445C06D3B09F445C08F
:102000006E3B09F445C06A3B09F445C080E090E0AE
:1020100044C082EE90E041C089EE90E03EC08AEE7E
:1020200090E03BC085EB90E038C086EB90E035C097
:1020300083EB90E032C084EB90E02FC087EB90E020
:102040002CC08CEC90E029C08DEC90E026C083E899
:1020500091E023C08AE891E020C082E991E01DC0B0
:1020600084E991E01AC081E292E017C083E292E035
:1020700014C084E292E011C085E292E00EC086E2D4
:1020800092E00BC087E292E008C08FE690E005C0C6
:1020900080E790E002C08AE292E00F90DF91CF915A
:1020A0000C94220E603F40F0862F0E943E1C0F9041
:1020B000DF91CF910C942B1D0F90DF91CF9108955C
:1020C000882309F464C0823879F40E94E70D81FF07
:1020D0005EC069E38091090190910A010E94921A01
:1020E0000E948C1969E310C08338B1F40E94E70D97
:1020F00080FF4DC063E58091090190910A010E9423
:10210000921A0E948C1963E58091090190910A014D
:102110000E94941A0C948C19843879F40E94E70D6B
:1021200082FF35C067E48091090190910A010E9405
:10213000921A0E948C1967E4E7CF9CEF980F913AAE
:1021400010F4682FE1CF90E2980F983050F4877028
:1021500091E001C0990F8A95EAF7892F0E944919E9
:10216000D9CF9BE5980F933020F480E090E00C9459
:102170000C0E98E5980F973120F480E090E00C94D5
:10218000220E803F20F00E94A61C0C942B1D089567
:10219000882321F00E9443190C948C1908958823F8
:1021A00021F00E9449190C948C1908954F925F9266
:1021B0006F927F92BF92CF92DF92EF92FF920F9336
:1021C0001F93CF93DF937C01D62FC72FFC0105818E
:1021D00002950F70128111110E9460190E94391925
:1021E000882379F0112369F080E28D0F883048F060
:1021F00082E00E94D7190E94391991E0B82EB926C1
:1022000001C0B12CCC2EC2948FE0C822D12CF60193
:10221000E859FF4F0C9428278C2F807FCF7088239C
:1022200011F0C295C07F112399F0CC2309F4CFC1DE
:1022300080E28D0F883010F0D11104C08C2F0E94E5
:10224000431903C08C2F0E9453190E948C19BFC1DF
:102250008D2F0E946010CC2309F4DEC180E28D0F27
:10226000883010F0D11104C08C2F0E94491903C08E
:102270008C2F0E9459190E948C19CEC18C2F807FFF
:10228000CF70803211F0C295C07FDD2319F0D130BC
:10229000C9F022C0112371F0002341F0013031F464
:1022A0000E9473198C2B0E947919B6C10E94731970
:1022B0008C2B46C1002319F0013009F4ADC10E94F6
:1022C000821918C0112321F0063008F0A5C10EC0F4
:1022D000053008F0A1C10EC0112351F0002331F0E8
:1022E000F701858180FF73C18F7085838C2F28C192
:1022F00001117EC18C2F2AC18C2F86958695837003
:1023000090E0009719F0019761F086C1112321F048
:102310008D2F9C2F937002C080E090E00E940C0EE5
:102320008BC1112321F08D2F9C2F937002C080E070
:1023300090E00E94220E80C11123F9F0D53F51F0A8
:10234000D63F71F0D43FA9F48091340290913502C8
:1023500081600BC08091340290913502826005C08B
:10236000809134029091350284609093350280937D
:1023700034028D2F0E943E1C1EC0D53F51F0D63F27
:1023800071F0D43FA9F480913402909135028E7F90
:102390000BC080913402909135028D7F05C08091F1
:1023A0003402909135028B7F9093350280933402F2
:1023B0008D2F0E94A61C0E942B1D3EC18C2F837066
:1023C00009F050C0111134C18D2F82958695877008
:1023D000880F880F9D2F9F70492E512C612C712CD6
:1023E000082E04C0440C551C661C771C0A94D2F7B6
:1023F000D4FF14C00FE010E020E030E0B901A801E4
:1024000004C0440F551F661F771F8A95D2F7CB0172
:10241000BA01609570958095909503C060E070E07A
:10242000CB01C695C695C370D0E0C230D10561F02E
:10243000C330D10581F06429752986299729219710
:1024400071F00E947A17F4C06429752986299729AA
:102450000E948C17EDC00E947A17C301B2010E943E
:102460006817E6C0112319F08C2F817001C0869582
:10247000882309F4DDC08D2F829586958770880F9B
:10248000880F9D2F9F70492E512C612C712C082E86
:1024900004C0440C551C661C771C0A94D2F7D4FF68
:1024A00014C00FE010E020E030E0B901A80104C042
:1024B000440F551F661F771F8A95D2F7CB01BA01CB
:1024C000609570958095909503C060E070E0CB01B9
:1024D000C695C695C3704C2F50E04230510569F047
:1024E0004330510589F0642975298629972941309F
:1024F000510571F00E9440189BC0642975298629F6
:1025000097290E94521894C00E944018C301B2013A
:102510000E942E188DC08D2F90E0FC01E05EF10925
:10252000E531F10508F04FC0E858FF4F0C9428271B
:10253000DF708C2F8F71112331F00E94C7178D2F00
:102540000E94C81069C00E94E8178D2F0E94CF100A
:1025500063C0112341F0053008F05EC08C2F8F71ED
:102560000E940D1859C0063008F056C0F7CF11234D
:1025700039F08C2F8F710E94C7174EC01123C9F3F9
:102580008C2F8F710E94E81747C0112329F08C2FE0
:102590008F710E94B21740C00E94AD173DC0112339
:1025A00049F0CF718C2F0E94C71763E08C2F0E94D7
:1025B000C21932C081E00E94D719023068F182E06E
:1025C0000E94D71929C0112331F0002391F28D2FD9
:1025D0000E94270F21C0002399F2D93349F45FEFFD
:1025E00067EE73E0515060407040E1F700C00000BA
:1025F0008D2F0E94601010C04C2F4F706D2FC7019F
:102600000E947A050E94D91617C04C2F4F706D2F6B
:10261000C7010E947D0510C088E0C816D10441F0B2
:102620005CF0EAE0CE1AD108F2E0CF16D10420F433
:102630000E94E70D0E944803BB20F1F00E9435196B
:1026400080FD1AC0F70112820E942F190E94C7173D
:10265000C7010E944A130E942F19DF91CF911F9149
:102660000F91FF90EF90DF90CF90BF907F906F9091
:102670005F904F900C94E817DF91CF911F910F91CD
:10268000FF90EF90DF90CF90BF907F906F905F9022
:102690004F9008950F931F93CF93DF93EC018881A0
:1026A00099812B813C81232BB9F09F3F11F48F3FFF
:1026B00099F0CE010E945A03882371F068817981D4
:1026C0008A810E940C198C010E9464180E9465176F
:1026D000B801CE010E94D610DF91CF911F910F91CA
:1026E00008950E9460190E9470190E948C190E941E
:1026F000D11D0E942B1D80E090E00E940C0E80E016
:1027000090E00C94220E8091090190910A010E94A0
:10271000961A0C9471130E9450190C948313E92F8C
:10272000E295EF70F0E03297EE30F105B0F4E35748
:10273000FF4F0C942827803F91F018F4803E68F4F6
:102740000EC0843F51F40BC0803E48F0813F29F415
:1027500006C093FB882780F9089580E0089581E002
:1027600008950E9401190E948F130895CF93DF935B
:1027700000D000D01F92CDB7DEB70F900F900F9012
:102780000F900F90DF91CF910895CF93DF9300D0FA
:1027900000D000D0CDB7DEB726960FB6F894DEBFD6
:1027A0000FBECDBFDF91CF9108951F93CF93DF93DD
:1027B000C091700116E080917101C81799F0D0E0C6
:1027C0001C9FF0011D9FF00D1124EE58FE4F40811B
:1027D000518162817381848195810E94C513219604
:1027E000C770E9CFDF91CF911F9108954091A20169
:1027F0005091A3016091A4017091A5018091A6015F
:102800009091A7010C94C5138091A70182958F70B8
:1028100009F054C08091A401882309F44FC080912D
:102820007001A09171016091A2017091A30140918A
:10283000A5015091A601B6E08A1709F43FC090E0C7
:1028400041155105C1F17F3F11F46F3FA1F1B89FD0
:10285000F001B99FF00D1124EE58FE4F2181721343
:102860002AC02081621327C02281211124C0238124
:1028700034812417350710F421503109241B350BFE
:10288000283C3105C0F42091A7012F7020612093CE
:10289000A70126E0289FF001299FF00D1124E95897
:1028A000FE4F80818F708061808382EA91E00E9478
:1028B0004A130C94D51301968770BECF0895CF921A
:1028C000DF92EF92FF920F931F93CF93DF93CDB7D9
:1028D000DEB762970FB6F894DEBF0FBECDBF8C0196
:1028E00085E0F801DE011D9601900D928A95E1F7D1
:1028F000D8014C9111965C91119712966C91129798
:102900001396CD90DC9014973091A2017091A301A1
:102910008091A5019091A601009709F46BC17F3FBA
:1029200019F43F3F09F466C1E090A401EE2009F4D8
:10293000C0C02091A701C816D90628F0F601E81BEF
:10294000F90BCF0104C0809590958C0D9D1DFF243F
:10295000F394883C910578F0F12C207F09F0C6C0F3
:102960007C2DD98AC88A89890E94B61382EA91E0AF
:102970000E944A13B1C0822F807F09F046C07513B0
:1029800014C0341312C0611110C02F702061209345
:10299000A7010E94F61382EA91E00E944A138091F7
:1029A000A701D80115968C932EC0CD2819F15F3F51
:1029B00011F44F3FF9F0F62E61111CC080917001A7
:1029C0002091710136E0821709F45AC090E0389FD7
:1029D000F001399FF00D1124EE58FE4F718157130D
:1029E00006C07081471303C07281711103C0019644
:1029F0008770E9CFF62E662309F427C18091A701DD
:102A000081608093A701F12C20C1751308C0341395
:102A100006C0611104C08091A701D801C3C04D87D1
:102A20005E878D859E856A8B0E94B1136A89882393
:102A3000E1F16623D1F12091A701822F82958F7059
:102A400090E0029774F08091A2019091A301988781
:102A50008F831986DB86CA862C87CE0107960E9453
:102A60004A1386E0F801A2EAB1E001900D928A953E
:102A7000E1F70E9404140E94F613FF24F394E5C0CA
:102A80004D875E878D859E850E940119292F22958D
:102A90002F7030E0223031050CF0CBC09F7009F070
:102AA000C5C0805E883008F4D0C0C8010E944A13B7
:102AB000E4CFC816D90608F453C0F601E81BF90B99
:102AC000CF01883C910508F450C0F12C7C2DD98AA7
:102AD000C88A89890E94B613E2EAF1E086E0DF0144
:102AE0001D928A95E9F70E94F613AFC0751314C0C2
:102AF000341312C0611110C08091A701F8018583C1
:102B0000C8010E944A1386E0E2EAF1E0DF011D926B
:102B10008A95E9F7FE2C99C04D875E878D859E8545
:102B20006A8B0E94B1136A89882309F4BECF662399
:102B300009F4BBCF2091A701822F82958F7090E07E
:102B400002970CF48ECF8091A2019091A3019A83F9
:102B500089831B82DD82CC822E83CE0101967FCFBA
:102B6000809590958C0D9D1DACCFF62E662309F4B3
:102B70009CCF75132EC034132CC02091A70120FDCB
:102B80001FC0822F82958F70D9F0D80115962C9393
:102B900015978F3049F08F5F982F9295907F822FF5
:102BA0008F70892B15968C93C8010E944A1386E07A
:102BB000F801A2EAB1E001900D928A95E1F793CF76
:102BC00086E0F801A2EAB1E001900D928A95E1F762
:102BD0003CC04D875E878D859E850E94B113811113
:102BE00040CF8091A70181608093A701C8010E9416
:102BF0004A132BC0662309F458CF4D875E878D8515
:102C00009E850E94B113F82E882309F44ECF86E0EA
:102C1000F801A2EAB1E001900D928A95E1F782EA0B
:102C200091E00E94210F0E9404145DCF811139CFE1
:102C30000CC0243031050CF038CF9F7009F431CF2F
:102C4000F8019581907F09F02CCF8F2D62960FB6F9
:102C5000F894DEBF0FBECDBFDF91CF911F910F91D2
:102C6000FF90EF90DF90CF9008951F93CF93DF9365
:102C7000CDB7DEB72C970FB6F894DEBF0FBECDBF31
:102C80004F83588769877A878B879C87CE01079601
:102C90000E945F14882369F08F8198852A853B857F
:102CA000232BF1F19F3F09F063C08F3F09F060C013
:102CB00037C086E0FE013796DE01119601900D9235
:102CC0008A95E1F76F817885EA85FB85309741F138
:102CD0007F3F11F46F3F21F12091710130E0C90174
:102CE0000196877099274091700150E084179507ED
:102CF00009F447C069837A83FD83EC8396E0929F51
:102D0000D001939FB00D1124AE58BE4FFE013196F5
:102D100001900D929A95E1F7809371010E94D5136D
:102D200016E080917001909171018917C1F1189F8F
:102D3000C00111248E589E4F0E945F14882379F1A0
:102D4000E09170011E9FF0011124EE58FE4F40816A
:102D5000518162817381848195810E94C513809124
:102D6000700190E001968770992780937001D9CF08
:102D70004F81588569857A858B859C850E94C5130E
:102D8000CFCF0E948B131092710110927001E2EA72
:102D9000F1E086E0DF011D928A95E9F7C1CF2C961C
:102DA0000FB6F894DEBF0FBECDBFDF91CF911F915C
:102DB0000895EF92FF920F931F93CF93DF938C01AF
:102DC000892B09F46CC0F12CEE24E394E8012196E0
:102DD000F8018491843740F4843008F051C0813088
:102DE00081F0823019F15BC0853709F444C0A8F145
:102DF0009CE7980F903708F052C08F770E946010C0
:102E000041C00E5F1F4FFE01C49180E28C0F8830DD
:102E100048F4C7708E2D01C0880FCA95EAF70E944A
:102E2000631914C08C2F0E94270F2DC00E5F1F4FF7
:102E3000FE01C49180E28C0F883058F4C7708E2D4B
:102E400001C0880FCA95EAF70E9469190E948C197F
:102E50001AC08C2F0E94601016C00E5F1F4FFE011B
:102E6000C491CC2381F08FE99FE00197F1F700C076
:102E70000000C150F6CF0E5F1F4FFE01F49003C05B
:102E80000E94270F8E018F2D882309F49FCFEFE931
:102E9000FFE03197F1F700C000008150F5CFDF91DE
:102EA000CF911F910F91FF90EF90089508950C948A
:102EB00056170E9457176093D9017093DA018093D7
:102EC000DB019093DC010C94711308950C94591755
:102ED0000F931F930091D9011091DA012091DB012A
:102EE0003091DC01602B712B822B932B1F910F9162
:102EF0000C9459170F931F930091D9011091DA0187
:102F00002091DB013091DC01602371238223932324
:102F10001F910F910C9459170F931F930091D90192
:102F20001091DA012091DB013091DC0160277127DB
:102F3000822793271F910F910C94591708950C9491
:102F40009E170E949F176093D5017093D6018093BE
:102F5000D7019093D8010C94711360E070E0CB011D
:102F60000C94A1170F931F9341E050E060E070E0D4
:102F70008A019B0104C0000F111F221F331F8A9575
:102F8000D2F7C901B8011F910F910C94A1170F93AB
:102F90001F9341E050E060E070E004C0440F551F13
:102FA000661F771F8A95D2F78091D5019091D6013F
:102FB000A091D701B091D8018A019B01082B192B50
:102FC0002A2B3B2BC901B8011F910F910C94A1171B
:102FD0000F931F9341E050E060E070E004C0440FA5
:102FE000551F661F771F8A95D2F7409550956095BB
:102FF00070958091D5019091D601A091D701B091A3
:10300000D8018A019B01082319232A233B23C901E4
:10301000B8011F910F910C94A1170F931F9341E0DA
:1030200050E060E070E004C0440F551F661F771F3A
:103030008A95D2F78091D5019091D601A091D701C0
:10304000B091D8018A019B01082719272A273B271D
:10305000C901B8011F910F910C94A1170F931F93F1
:103060000091D5011091D6012091D7013091D8015E
:10307000602B712B822B932B1F910F910C94A11716
:103080000F931F930091D5011091D6012091D70184
:103090003091D80160237123822393231F910F91D4
:1030A0000C94A1170F931F930091D5011091D60195
:1030B0002091D7013091D80160277127822793276B
:1030C0001F910F910C94A117089527E0929F800DF6
:1030D0001124A82FA695A695A695877051E001C04A
:1030E000550F8A95EAF785E0A89FD001112420E0CA
:1030F00030E070E0F901EA0FFB1FE855FE4F408118
:10310000CB01022E02C0969587950A94E2F7817052
:103110009927819584278523842780832F5F3F4FBC
:103120002530310539F7089527E0929F800D11244D
:10313000682F669566956695982F977085E0689FCD
:10314000B001112440E050E080E0FA01E60FF71FE3
:10315000E855FE4F208130E0092E02C036952795B4
:103160000A94E2F721703327042E01C0220F0A943B
:10317000EAF7822B4F5F5F4F4530510531F70895D5
:10318000BF92CF92DF92EF92FF920F931F93CF9354
:10319000DF938C01C090D901D090DA01E090DB017F
:1031A000F090DC018091D5019091D601A091D701DA
:1031B000B091D801C82AD92AEA2AFB2ACFE1D0E067
:1031C000D701C6010C2E04C0B695A7959795879593
:1031D0000A94D2F780FF07C0BC2EB8018C2F0E9442
:1031E0009805019719F4219758F7B12C8B2DDF9191
:1031F000CF911F910F91FF90EF90DF90CF90BF90F4
:103200000895CF93DF93EC010E94C018BE010E9485
:103210009805DF91CF9108951F93CF93DF93EB0132
:1032200090916F01992321F0CB010E94011913C0E5
:10323000882349F0CB010E94C018182F682FCE01B7
:103240000E94651804C0CB010E949418182FBE017B
:10325000812F0E949805DF91CF911F910895809151
:10326000DD0185958595859508958091DD018770AF
:1032700008959091DD01977081E009F480E0089550
:103280008091E90108959091E901892B8093E901EA
:10329000089580959091E90189238093E90108952B
:1032A0001092E90108959091E801892B8093E8013B
:1032B000089580959091E80189238093E80108950D
:1032C0001092E80108959091E701892B8093E7011E
:1032D000089580959091E70189238093E7010895EF
:1032E0001092E70108958091DE01089508950C94ED
:1032F00076199091DE01981721F08093DE010C94ED
:10330000771908958091DE01882329F01092DE015B
:1033100080E00C9477190895E0910901F0910A0179
:103320008091E9018083E0910901F0910A01908187
:103330008091E801892B8083E0910901F0910A01D5
:1033400090818091E701892B80838091DE01882321
:1033500081F0E0910901F0910A019081892B80832D
:103360008091090190910A010E94601A81110E94C6
:1033700082198091090190910A010C94F30D08952E
:103380000C94BF1998E0899F90011124262B20935B
:10339000DD010E94C7178091DD0185958595859592
:1033A0000C94C0191092DD0180E00C94C01920919A
:1033B000DD01809582238093DD01982F977079F449
:1033C00030E0482F082E000C550B2417350739F034
:1033D0008595859585950E94E8170C94D2190895D6
:1033E00080E090E00E943C2721E08D3E9E4F09F056
:1033F00020E0822F089582E090E00C942E2783E055
:1034000090E00C942E2784E090E00C942E27682FF7
:1034100084E090E00C944227AB01BC018FE090E087
:103420000C945427AB01BC0183E190E00C94542729
:1034300060E070E0CB010C94121A60E070E0CB0108
:103440000E940C1A0C94181A6DEE7EEF80E090E04A
:103450000E94602760E082E090E00E94422760E0E6
:1034600083E090E00E9442271092D9011092DA0185
:103470001092DB011092DC0160E084E090E00E9499
:10348000422760E085E090E00E94422760E086E00D
:1034900090E00E9442276FEF87E090E00E94422771
:1034A00040E050E0BA0188E090E00E94542760E0DC
:1034B0008DE090E00E9442270C941D1A0C94241A6F
:1034C000FC01329697E080E0915029F0219122236F
:1034D000D9F38F5FF9CF08959C01FC0132969FEFDD
:1034E00080E04191461789F09F3F19F4411101C0D6
:1034F000982F8F5F8630A9F79F3F39F0F901E90FC8
:10350000F11D97FDFA95628308950895FC013296A6
:1035100008962081261301C010823196E817F9071A
:10352000C1F708950C946C1A0C94861A029626E042
:10353000FC0111922A95E9F7089508950C949D1ABB
:103540000E949E1A80914002843049F11092EB0152
:1035500020E488E190E00FB6F894A895809360008D
:103560000FBE2093600080E00E9448030E949E1AD4
:1035700083B7817F846083BF83B7816083BF789482
:10358000889583B78E7F83BF0FB6F894A8958091F6
:103590006000886180936000109260000FBE089503
:1035A00008950895CF930E94D01A0E94DF080E94C8
:1035B000D11AC0E08C2F0E94F407811104C0CF5FA4
:1035C000CA30C1F701C081E0CF91089508950C94ED
:1035D000E61A0E948B130E94E70D0E9448030C9488
:1035E000E71A1F920F920FB60F9211248F939F9399
:1035F000AF93BF938091EB01811113C0809136028C
:1036000090913702A0913802B09139024196A11DE4
:10361000B11D8093360290933702A0933802B09385
:103620003902BF91AF919F918F910F900FBE0F9074
:103630001F90189582E084BD93E095BD9AEF97BDE9
:1036400080936E0008952FB7F89480913602909180
:103650003702A0913802B09139022FBF0895CF925E
:10366000DF92EF92FF920F931F932FB7F894409140
:1036700036025091370260913802709139022FBFA3
:103680006A017B01EE24FF248C0120E030E0C016AB
:10369000D106E206F30610F4415051099A01281BA5
:1036A000390BC9011F910F91FF90EF90DF90CF90E0
:1036B000089578941F920F920FB60F9211248F9352
:1036C0009F93AF93BF938091360290913702A09160
:1036D0003802B09139020196A11DB11D80933602C6
:1036E00090933702A0933802B0933902BF91AF9103
:1036F0009F918F910F900FBE0F901F90189581E0B2
:103700008093E00080E28093D8001092C9008FE19E
:103710009EE40197F1F700C0000087E090EBDC0128
:103720008093490290934A02A0934B02B0934C02BB
:103730009CE088E10FB6F894A895809360000FBED6
:1037400090936000FFCF0E94F019811102C00E9487
:103750005E1A0E94FB198093EA010E94031A90E00E
:1037600090933B0280933A020E94FF19682F70E009
:1037700080E090E00C9466178091EE0180FF0BC012
:1037800060910E0185E0689FB001112475956795E1
:10379000759567952BC081FF09C060910E0185E08A
:1037A000689FB00111247595679520C082FF07C0FE
:1037B00060910E0185E0689FB001112417C09091BF
:1037C000EF019923D1F060910D01961788F72091B0
:1037D0000E0185E0289F90011124929FA001939FE4
:1037E000500D112470E0CA010E9414276038710541
:1037F00040F46115710539F002C065E070E0862F74
:1038000008958FE7089581E008958091EE0180FF8B
:1038100008C060910C0170E0759567957595679586
:1038200021C081FF06C060910C0170E0759567951D
:1038300019C082FF04C060910C0170E010C090912B
:10384000EF019923C1F060910B019617A0F78091C9
:103850000C01899FC001112470E00E941427603878
:10386000710528F46115710521F0862F08958FE701
:10387000089581E0089561E070E0F4CF803F21F485
:103880000E94BC1B819504C0813F29F40E94BC1B8F
:103890008093F3010895823F21F40E94BC1B81951F
:1038A00004C0833F29F40E94BC1B8093F201089559
:1038B000893F19F40E94051C05C08A3F31F40E941B
:1038C000051C81958093F40108958B3F21F40E949B
:1038D000051C819504C08C3F29F40E94051C80932F
:1038E000F5010895843F21F48091F101816017C0B2
:1038F000853F21F48091F101826011C0863F21F45F
:103900008091F10184600BC0873F21F48091F10127
:10391000886005C0883F31F48091F1018061809317
:10392000F10108958D3F21F48091EE0181600BC07B
:103930008E3F21F48091EE01826005C08F3F29F413
:103940008091EE0184608093EE010895803F39F408
:103950008091F30187FF6CC01092F30169C0813F31
:1039600029F48091F3011816BCF362C09091F20122
:10397000823F29F497FF5CC01092F20159C0833F47
:1039800019F41916CCF354C0893F41F48091F40125
:1039900018160CF04DC01092F4014AC08A3F29F469
:1039A0008091F40187FF44C0F6CF8B3F39F48091BA
:1039B000F50187FF3DC01092F5013AC08C3F29F414
:1039C0008091F5011816BCF333C0843F21F4809137
:1039D000F1018E7F17C0853F21F48091F1018D7F29
:1039E00011C0863F21F48091F1018B7F0BC0873F8E
:1039F00021F48091F101877F05C0883F31F48091E7
:103A0000F1018F7E8093F10113C08D3F21F48091ED
:103A1000EE018E7F0BC08E3F21F48091EE018D7FF1
:103A200005C08F3F29F48091EE018B7F8093EE01DA
:103A30008091F20181110EC08091F30181110AC0C1
:103A40008091F401811106C08091F501811102C0BD
:103A50001092EF01089580EF91E00E94FE0D0E9408
:103A6000231B9093ED018093EC0108951F93CF9356
:103A7000DF938091EC019091ED010E942F1BAC012E
:103A80009091EF01992321F020910F0130E006C0C1
:103A9000209110018AE0289F9001112442175307BA
:103AA00008F47BC08091F201C091F301D091F40140
:103AB0001091F501811107C0C1116BC0D11169C00E
:103AC000111167C06AC09F3F19F09F5F9093EF018B
:103AD000181624F40E94BC1B8093F2018091F2011D
:103AE00087FF05C00E94BC1B81958093F2011C16C4
:103AF00024F40E94BC1B8093F3018091F30187FFA3
:103B000005C00E94BC1B81958093F3013091F201A6
:103B10003323E1F02091F3012223C1F045EB34037C
:103B2000C0011124892F990F990B009709F481E0A6
:103B30008093F20135EB2303C0011124892F990FE3
:103B4000990B009709F481E08093F3011D1624F48A
:103B50000E94051C8093F4018091F40187FF05C049
:103B60000E94051C81958093F401111624F40E9493
:103B7000051C8093F5018091F50187FF05C00E9427
:103B8000051C81958093F501DF91CF911F910C94D5
:103B90002B1D9F3F09F099CFA1CFDF91CF911F91AE
:103BA0000895E0EFF1E086E0DF011D928A95E9F7E4
:103BB0001092EF011092EE010895833081F128F404
:103BC000813059F08230D1F00895853009F449C030
:103BD000B8F1863009F456C0089580911001262F5F
:103BE00030E0280F311D2F3F310524F4680F60931A
:103BF000100108958FEF80931001089580910F01B7
:103C0000262F30E0280F311D2F3F310524F4680F97
:103C100060930F0108958FEF80930F0108958091B5
:103C20000E01262F30E0280F311D2F3F310524F4DF
:103C3000680F60930E0108958FEF80930E01089531
:103C400080910D01262F30E0280F311D2F3F3105C7
:103C500024F4680F60930D0108958FEF80930D0198
:103C6000089580910C01262F30E0280F311D2F3F41
:103C7000310524F4680F60930C0108958FEF809351
:103C80000C01089580910B01262F30E0280F311D83
:103C90002F3F310524F4680F60930B0108958FEFD7
:103CA00080930B010895833011F128F4813049F09D
:103CB000823091F00895853081F120F18630C1F194
:103CC000089580911001681720F4861B80931001DD
:103CD000089510921001089580910F01681720F443
:103CE000861B80930F01089510920F010895809113
:103CF0000E01681720F4861B80930E010895109220
:103D00000E01089580910D01681720F4861B8093A1
:103D10000D01089510920D01089580910C0168170E
:103D200020F4861B80930C01089510920C010895D5
:103D300080910B01681720F4861B80930B01089576
:103D400010920B0108950F931F938732D8F58E318F
:103D500008F081C08E3009F46BC098F4873009F404
:103D600059C08B3009F48BC0863009F08FC0809128
:103D7000EA01817F8E7F8093EA0181E08093F701E1
:103D800086C0863109F47BC068F4803109F07EC0BA
:103D90008091EA0183FB222720F991E0922790FB92
:103DA00083F94FC0893109F46AC08B3109F06EC0C4
:103DB0008091EA0181FB222720F991E0922790FB74
:103DC00081F93FC0883309F45AC050F4893209F4AC
:103DD00058C0853309F455C0873209F452C056C023
:103DE000833409F44EC028F48A3308F44FC0895351
:103DF00033C0883409F04AC00E948B130FEF13EDD3
:103E000020E3015010402040E1F700C000000E9474
:103E10007F1B35C08091EA01982F9095917090FB9F
:103E200080F98093EA0191112AC0897F877F10C0B1
:103E30008091EA0182FB222720F991E0922790FBF2
:103E400082F98093EA019923D1F08091EA0181609F
:103E50008093EA0114C08D5141E050E060E070E0D1
:103E60008A019B0104C0000F111F221F331F8A9576
:103E7000D2F7C901B8010E9466170E948B1381E036
:103E800006C061E070E080E090E0F5CF80E01F9137
:103E90000F91089580E0089580E008958E518A3052
:103EA00030F4E82FF0E0E35DFE4F8081089580E07C
:103EB0000895CF93C82F8091F701813051F018F009
:103EC000823099F17DC00E944019823209F07AC097
:103ED00004C00E944019823261F48C2F0E944A1F54
:103EE000811104C08C2F0E94A31E1DC081E090E0B0
:103EF0001AC08C2F0E944C1F811114C0C43179F05C
:103F000048F4CB3079F0C03109F060C082E0809392
:103F1000F70108C0C93219F0C83321F057C0109218
:103F2000F70154C081E0817053C0C93289F118F59E
:103F3000C43171F1B0F4C73009F046C08EE180930E
:103F4000100182E380930F018AE080930E0184E1E7
:103F500080930D0188E080930C0188E280930B012F
:103F600033C082EE8C0F863078F58C2F0E944E1F66
:103F70008093F60129C0CE34E9F020F4CB3421F54A
:103F80006AE013C0C13579F0C235F1F461E00DC0CB
:103F90008091F601882319F01092F60115C081E096
:103FA0008093F70115C061E006C08091F6010E9480
:103FB000DD1D0AC06AE08091F6010E94531E04C014
:103FC0001092F70180E004C081E002C080E0ABCF36
:103FD000CF9108958091000208950F931F93CF937E
:103FE000DF9300D01F92CDB7DEB78C010E9447222D
:103FF000823011F0843021F584E089831B830A83A9
:1040000082E08093E9008FEF9091E800815095FD68
:1040100006C095ED9A95F1F700008111F5CF8091DA
:10402000E80085FF0DC040E050E063E070E0CE01A5
:1040300001960E9464228091E8008E778093E800C8
:104040000F900F900F90DF91CF911F910F910895D6
:10405000CF93DF9300D01F92CDB7DEB720914002FF
:10406000243031F523E02983805891099B838A838A
:1040700082E08093E9008FEF9091E800815095FDF8
:1040800006C095ED9A95F1F700008111F5CF80916A
:10409000E80085FF0DC040E050E063E070E0CE0135
:1040A00001960E9464228091E8008E778093E80058
:1040B0000F900F900F90DF91CF910895CF93DF93E2
:1040C000EC010E944722823011F08430F9F482E042
:1040D0008093E9009FEF8091E800915085FD06C034
:1040E00085ED8A95F1F700009111F5CF8091E800F8
:1040F00085FF0CC040E050E066E070E0CE010E9419
:1041000064228091E8008E778093E800DF91CF9160
:104110000895CF93DF93EC010E944722823011F083
:10412000843039F581E08093E9008FEF9091E800C9
:10413000815095FD06C095ED9A95F1F7000081112B
:10414000F5CF8091E80085FF14C040E050E068E0C2
:1041500070E0CE010E9464228091E8008E77809307
:10416000E80088E0FE01A8EFB1E001900D928A9589
:10417000E1F7DF91CF91089580913F02811109C04D
:104180000E94F9230E9456248091E200846080936B
:10419000E200089510923F020895089508950C9446
:1041A000E91A42E061EC81E00E94732342E261EC93
:1041B00082E00C94732380914202833009F460C042
:1041C00030F4813071F0823009F499C008958A305A
:1041D00009F485C08B3009F46BC0893009F0A7C0A1
:1041E00020C080914102813A09F0A1C08091E8008D
:1041F000877F8093E8008091450290914602892B49
:1042000021F468E088EF91E003C060E080E090E096
:1042100070E00E94AF228091E8008B778093E800E5
:10422000089580914102813209F081C08091450258
:1042300090914602029708F07AC08091E800877F4B
:104240008093E8008091E80082FD05C080914002E3
:104250008111F8CF6CC02091F3008091F20090E0C2
:10426000922B029729F48091F1008B7F813021F409
:104270008091F100809300028091E8008B7753C019
:1042800080914102813A09F052C08091450290919B
:104290004602892B09F04BC08091E800877F80930C
:1042A000E8008091E80080FFFCCF80911B0136C0C0
:1042B000809141028132D9F5809145029091460268
:1042C000892BA9F58091E800877F8093E8000E9400
:1042D000A8238091430280931B010C948B1380913F
:1042E0004102813221F58091E800877F8093E800C8
:1042F0000E94A82380914402809301020895809136
:104300004102813AA1F48091E800877F8093E80020
:104310008091E80080FFFCCF809101028093F10042
:104320008091E8008E778093E8000C94A82308958C
:1043300084B7877F84BF0FB6F894A89580916000FA
:10434000886180936000109260000FBE80E88093C7
:104350006100109261000E943F0E0E94F9230E94AA
:1043600056248091E20084608093E20078940E9459
:10437000E5260E94430E81E191E00E94E20D8091CA
:104380004002853069F40E94A01A80913E02882381
:10439000B1F30E94D21A882391F30E944E22EFCFEC
:1043A0000E944B0EECCF0C94D521292F33272330BC
:1043B0003105C9F064F42130310581F02230310536
:1043C00009F04CC08BE390E022EC34E04BC021328A
:1043D000310521F12232310589F140C082E190E0BE
:1043E0002DEF34E03FC099278130910571F02CF416
:1043F000892BA1F5EEEBF4E00DC08230910541F080
:10440000039761F5EAE7F4E005C0E8EAF4E002C0EA
:10441000E0E8F4E0849190E09F0124C0611571050B
:1044200041F061307105D1F489E090E02DEE34E087
:1044300019C089E090E024ED34E014C061157105E5
:1044400041F06130710551F485E890E02FE035E0EE
:1044500009C080E490E024E935E004C080E090E009
:1044600020E030E0FA013183208308950895CF934E
:10447000C82F0E943622C0930202CF9108958091E6
:104480004002843011F081E0089582E00895809127
:104490000202811102C00C943F22089580E189BD7F
:1044A00082E189BD09B400FEFDCF8091D8008F7DE7
:1044B0008093D8008091E00082608093E00080913A
:1044C000E00081FDFCCF0895CF92DF92EF92FF9242
:1044D0000F931F93CF93DF93EC018B016A010E942E
:1044E000C723811133C0C114D10439F0F601808192
:1044F0009181081B190BC80FD91FE12CF12C011554
:10450000110519F18091E80085FD16C08091E80041
:104510008E778093E800C114D10449F0F6018081C0
:104520009181E80EF91EF182E08285E00FC00E94C1
:10453000C723882321F30AC089918093F100015099
:104540001109FFEFEF1AFF0ADACF80E0DF91CF9178
:104550001F910F91FF90EF90DF90CF9008952091E1
:104560004702309148022617370748F06115710558
:1045700039F42091E8002E772093E80001C0B901BA
:1045800040E061157105A9F120914002222309F450
:1045900043C0253009F442C02091E80023FD40C00B
:1045A0002091E80022FD32C02091E80020FFE9CFF1
:1045B0004091F3002091F20030E0342BFC01CF0158
:1045C0006115710559F02830310540F481918093CF
:1045D000F100615071092F5F3F4FF1CF41E028306A
:1045E000310509F040E02091E8002E772093E800A3
:1045F000C8CF4111C9CF0AC080914002882361F021
:10460000853061F08091E80083FD0AC08091E80068
:1046100082FFF2CF80E0089582E0089583E008955C
:1046200081E008952091470230914802261737070C
:1046300048F06115710539F42091E8002E77209338
:10464000E80001C0B901FC0120E06115710591F19C
:1046500080914002882309F440C0853009F43FC0AE
:104660008091E80083FD3DC08091E80082FD2FC06D
:104670008091E80080FFE9CF2091F3008091F20063
:1046800090E0922B6115710559F08830910540F446
:1046900024912093F1003196615071090196F2CF77
:1046A00021E0089709F020E08091E8008E77809360
:1046B000E800CBCF2111CCCF0AC0809140028823E3
:1046C00061F0853061F08091E80083FD0AC080913F
:1046D000E80082FFF2CF80E0089582E0089583E051
:1046E000089581E00895982F973058F59093E90048
:1046F000981739F07091EC002091ED005091F00086
:1047000003C0242F762F50E021FF19C03091EB0019
:104710003E7F3093EB003091ED003D7F3093ED0014
:104720003091EB0031603093EB007093EC002093FC
:10473000ED005093F0002091EE0027FF07C09F5F2F
:10474000D3CF8F708093E90081E0089580E00895D1
:104750008091410287FF11C08091E80082FD05C071
:10476000809140028111F8CF11C08091E8008B77D1
:104770000BC080914002882349F08091E80080FFBF
:10478000F8CF8091E8008E778093E800089520911B
:10479000E4003091E50095E64091EC00842F8170B3
:1047A00040FF22C08091E80080FD1CC08091400243
:1047B000882391F0853091F08091EB0085FD10C049
:1047C0004091E4005091E5004217530729F39A0104
:1047D000915011F784E0089582E0089583E00895F0
:1047E00081E0089580E008954091E80042FFDECF27
:1047F00008950E9467240E946F24E0EEF0E080811B
:1048000081608083E8EDF0E080818F77808319BC40
:10481000A7EDB0E08C918E7F8C9380818F7E80831A
:1048200010923F0208950F931F93CF93DF930E943E
:1048300067240E946F24C8EDD0E088818F77888339
:1048400088818068888388818F7D888319BC1092D5
:10485000400210923C0210923E0210923D0200EE85
:1048600010E0F80180818B7F80838881816088835C
:1048700042E060E080E00E947323E1EEF0E080819E
:104880008E7F8083E2EEF0E0808181608083808192
:1048900088608083F80180818E7F80838881806139
:1048A0008883DF91CF911F910F910895E8EDF0E09B
:1048B00080818F7E8083E7EDF0E08081816080835E
:1048C00084E082BF81E080933F020C941324E8EDE2
:1048D000F0E080818E7F80831092E2000895109234
:1048E000DA001092E10008951F920F920FB60F9216
:1048F00011242F933F934F935F936F937F938F93E5
:104900009F93AF93BF93EF93FF938091E10082FF5A
:104910000BC08091E20082FF07C08091E1008B7F95
:104920008093E1000E94E4268091DA0080FF1FC09E
:104930008091D80080FF1BC08091DA008E7F809329
:10494000DA008091D90080FF0DC080E189BD82E14D
:1049500089BD09B400FEFDCF81E0809340020E9432
:10496000BC2005C019BC109240020E94CA20809150
:10497000E10080FF19C08091E20080FF15C08091A6
:10498000E2008E7F8093E2008091E200806180935C
:10499000E2008091D80080628093D80019BC85E045
:1049A000809340020E94CE208091E10084FF30C0BD
:1049B0008091E20084FF2CC080E189BD82E189BD45
:1049C00009B400FEFDCF8091D8008F7D8093D80080
:1049D0008091E1008F7E8093E1008091E2008F7EE4
:1049E0008093E2008091E20081608093E2008091F8
:1049F0003C02882311F084E007C08091E30087FD2A
:104A000002C081E001C083E0809340020E94CF2079
:104A10008091E10083FF29C08091E20083FF25C0DF
:104A20008091E100877F8093E10082E080934002E3
:104A300010923C028091E1008E7F8093E100809192
:104A4000E2008E7F8093E2008091E200806180939B
:104A5000E20042E060E080E00E9473238091F00079
:104A600088608093F0000E94CD20FF91EF91BF916C
:104A7000AF919F918F917F916F915F914F913F91F6
:104A80002F910F900FBE0F901F9018951F920F92AD
:104A90000FB60F9211242F933F934F935F936F9311
:104AA0007F938F939F93AF93BF93CF93DF93EF93B6
:104AB000FF93C091E900CF708091EC00D82FD170A6
:104AC00080FDD0E81092E9008091F000877F80930C
:104AD000F00078940E948A251092E9008091F000FD
:104AE00088608093F000CD2BCF70C093E900FF91D8
:104AF000EF91DF91CF91BF91AF919F918F917F9176
:104B00006F915F914F913F912F910F900FBE0F903A
:104B10001F9018951F93CF93DF93CDB7DEB7AA9759
:104B20000FB6F894DEBF0FBECDBFE1E4F2E088E03F
:104B30008E0F9091F10091938E13FBCF0E94DB209A
:104B40008091E80083FF28C1809141029091420248
:104B5000492F50E04A30510508F01EC1FA01E556D0
:104B6000FF4F0C942827803821F0823809F014C1B7
:104B700008C080913D0290913E02992389F08260A5
:104B80000FC0809145028F70873008F005C1809377
:104B9000E9008091EB0085FB882780F91092E900FD
:104BA0009091E800977F9093E8008093F100109235
:104BB000F100D0C0282F2D7F09F0EEC0882319F016
:104BC000823061F0E9C080914302813009F0E4C095
:104BD000933009F080E080933E022EC08091430222
:104BE00081112AC0809145028F702FEF280F263047
:104BF00008F0D2C08093E9002091EB0020FF1CC098
:104C0000933021F48091EB00806214C09091EB000E
:104C100090619093EB0021E030E0A90102C0440FC5
:104C2000551F8A95E2F74093EA001092EA008091BE
:104C3000EB0088608093EB001092E9008091E8001F
:104C4000877F8093E8000E94A823A6C08111A4C09A
:104C5000109143021F778091E3008078812B80932D
:104C6000E3008091E800877F8093E8000E94A823FA
:104C70008091E80080FFFCCF8091E3008068809302
:104C8000E300111102C082E001C083E08093400282
:104C900083C08058823008F07FC080914302909199
:104CA00044028C3D53E0950779F583E08A838AE2DC
:104CB00089834FB7F894DE01139620E03EE051E27D
:104CC000E32FF0E050935700E49120FF03C0E295FA
:104CD000EF703F5FEF708E2F90E0EA3010F0C796D4
:104CE00001C0C0968D939D932F5F243149F74FBF2C
:104CF0008091E800877F8093E8006AE270E0CE014F
:104D000001960E94AF2215C0609145027091460243
:104D1000AE014F5F5F4F0E94D321BC01892BE1F1AF
:104D20009091E800977F9093E80089819A810E9492
:104D300012238091E8008B778093E8002DC08038A3
:104D400059F58091E800877F8093E80080913C02CC
:104D50008093F1008091E8008E7773CF81111CC0A1
:104D6000909143029230C0F48091E800877F809355
:104D7000E80090933C020E94A82380913C0281119C
:104D800006C08091E30087FD02C081E001C084E09D
:104D9000809340020E94D1208091E80083FF0AC0E6
:104DA0008091E800877F8093E8008091EB0080622B
:104DB0008093EB00AA960FB6F894DEBF0FBECDBF6E
:104DC000DF91CF911F9108950895CF938091400274
:104DD0008823A1F0C091E900CF709091EC00892F59
:104DE000817090FD80E8C82B1092E9008091E80066
:104DF00083FD0E948A25CF70C093E900CF9108956A
:104E0000AA1BBB1B51E107C0AA1FBB1FA617B707F0
:104E100010F0A61BB70B881F991F5A95A9F780950C
:104E20009095BC01CD01089597FB072E16F40094D0
:104E300007D077FD09D00E94002707FC05D03EF47B
:104E4000909581959F4F0895709561957F4F089536
:104E5000EE0FFF1F0590F491E02D0994F999FECF14
:104E600092BD81BDF89A992780B50895A6E1B0E07A
:104E700044E050E00C946827A8E1B0E042E050E044
:104E80000C946827262FF999FECF92BD81BDF89A20
:104E9000019700B4021639F01FBA20BD0FB6F8947E
:104EA000FA9AF99A0FBE08950396272F0E94432776
:104EB0000E944227252F0E944327242F0C9443272A
:104EC0000196272F0E9443270C944227DC01CB0137
:104ED000FC01F999FECF06C0F2BDE1BDF89A31960A
:104EE00000B40D9241505040B8F70895F894FFCFA8
:104EF000015501005601055601DF012808140A3248
:104F00001EEA1F89205E202820ED1F01F5F6F731EB
:104F10003332369497C63435000000000001020396
:084F2000040506070809000062
:00000001FF
