:100000000C9461030C94B90A0C94A8030C94A803F3
:100010000C94A8030C94A8030C94A8030C94A803B4
:100020000C94A8030C94A8030C9416220C94E822B8
:100030000C9498180C94A8030C94A8030C94A8038F
:100040000C94A8030C94A8030C94A8030C94A80384
:100050000C94A8030C9400190C94A8030C94A80306
:100060000C94A8030C94A8030C94A8030C94A80364
:100070000C94A8030C94A8030C94A8030C94A80354
:100080000C94A8030C94A8030C94A8030C94A80344
:100090000C94A8030C94A8030C94A8030C94A80334
:1000A0000C94A8030C94A8030C94A8034E045004C9
:1000B0005B0452045404560458045A045D045F045B
:1000C00061046C0463046504670469046B046E04D2
:1000D000B20EB20EE40EE40E220F420FA610A610CE
:1000E000840FA610251025109610A610A6109F109C
:1000F00032103210321032103210321032103210F0
:1001000032103210321032103210321032103210DF
:100110004310511058105F106910351135114711F7
:1001200047113E1147114711471135113511431140
:1001300047114711431155237C236E247C236E24E1
:10014000C823EB236E24412450242900B200B100BF
:100150003A003B003C003D003E003F000051015191
:1001600035001E001F002000210022002300025144
:1001700003512B0014001A00080015001700260276
:10018000AC00AB00390004001600070009000A00AB
:100190002F007E007C00E1001C001B0006001900FF
:1001A00005004A007B007D00000F0007E000E20030
:1001B000E30028002C003E003F00400041004200C8
:1001C0004300440045007A0022002300240025005B
:1001D000260027002D002E002A0027021D001800EF
:1001E0000C00120013002F003000045130000B00EF
:1001F0000D000E000F0033003400310028004D00C8
:1002000011001000360037002D00E5005200000FED
:100210002C002800E700E600E40000075000510031
:100220004F00010001000100010001000100010078
:1002300001000100010001000100010001000100B6
:100240000100010001000100010001000100520055
:100250000100010001000100010001000100500047
:1002600051004F00010001000100010001000100E8
:100270000100010001000100010001000100010076
:100280000100010001000100010001000100010066
:100290000100460047004800010001000100010084
:1002A0000100010049004A004B0053005400550072
:1002B0005600010001004C004D004E005F00600040
:1002C00061005700010001000100010001005C0015
:1002D0005D005E0085000100010001005200010088
:1002E00059005A005B0067000100010050005100F6
:1002F0004F0062000100630058000100010001008E
:1003000001000100010001000100010001000100E5
:1003100001000100010001000100010001000100D5
:1003200001000100010001000100010001000100C5
:1003300001000100010001000100010001000100B5
:1003400001000100010001000100010001000100A5
:100350000100010001000100010001000100010095
:100360000100010001000100010001000100010085
:100370000100010001000100010001000100010075
:100380000100010001000100010001000100010065
:100390000100010001000100010001000100010055
:1003A0000100010001000100010001000100010045
:1003B0000100010001000100010001000100010035
:1003C0000100010001000100010001000100010025
:1003D0000100010001000100010001000100010015
:1003E0000100010001000100010001000100010005
:1003F00001000100010001000100010001000100F5
:1004000001000100010001000100010001000100E4
:1004100001000100010001000100010001000100D4
:1004200001000100010001000100010001000100C4
:1004300001000100010001000100010001000100B4
:1004400001000100010001000100010001000100A4
:100450000100010001000100010001000100010094
:100460000100010001000100010001000100010084
:100470000100010001000100010001000100010074
:100480000100010001000100010001000100010064
:100490000100010001000100010001000100010054
:1004A0000100010001000100010001000100010044
:1004B0000100010001000100010001000100010034
:1004C0000100010001000100010001000100010024
:1004D00001000100010052000100010001000100C3
:1004E000010001000100500051004F000100010017
:1004F00001000100010001000100010001000100F4
:1005000001000100010001000100010001000100E3
:1005100001000100010001000100010001000100D3
:1005200001000100010001000100010001000100C3
:1005300001000100010001000100010001000100B3
:1005400001000100010001000100010001000100A3
:100550000100010001000100010001000100010093
:100560000100010001000100010001000100010083
:100570000100010001000100010001000100010073
:1005800001000403300000001203420046004F0047
:100590002D00390030003000300000000E034B0009
:1005A00065006500620069006F0000000403090433
:1005B00009023B00020100A0FA0904000001030146
:1005C00001000921110100012240000705810308F3
:1005D000000A0904010001030000000921110100C3
:1005E000012285000705820320000A120110010084
:1005F00000000810CB691100010102030105010987
:1006000002A10185020901A10005091901290515A9
:10061000002501950575018102950175038101058C
:1006200001093009311581257F9502750881060978
:10063000381581257F950175088106050C0A380259
:100640001581257F950175088106C0C005010980C7
:10065000A10185031601002603001A81002A8300E8
:10066000751095018100C0050C0901A101850416D2
:100670000100269C021A01002A9C02751095018136
:1006800000C005010906A101050719E029E71500C9
:1006900025019508750181029501750881010508FC
:1006A00019012905950575019102950175039101BF
:1006B0000507190029FF150026FF0095067508811A
:1006C00000C011241FBECFEFDAE0DEBFCDBF04B6FD
:1006D00003FE27C080915C0290915D02A0915E02B2
:1006E000B0915F028730904BA740B04BD1F410928D
:1006F0005C0210925D0210925E0210925F0214BEC4
:1007000084B7877F84BF0FB6F894A8958091600066
:10071000886180936000109260000FBEE0E0F8E313
:10072000099511E0A0E0B1E0E8E2FAE402C005902A
:100730000D92AC33B107D9F722E0ACE3B1E001C0D0
:100740001D92AC35B207E1F70E943A1F0C941225B6
:100750000C94000081E0089581E008950C94AC03AE
:100760001F93CF93DF9300D000D01F92CDB7DEB799
:1007700049835A832091980189819A81211112C05D
:10078000662349F00E945A16182F682F89819A8192
:100790000E94FF1503C00E942E16182F69817A81CE
:1007A000812F04C00E945A1669817A810F900F90A0
:1007B0000F900F900F90DF91CF911F910C94FA043E
:1007C000FC01408151816281738184810C94B0036A
:1007D0000E948A17811102C00E9404180C946C07B1
:1007E0000C946F0708950C94F2030C94F30308958E
:1007F0000E9425110E94F7032FEF84E39CE0215013
:1008000080409040E1F700C0000087E797E79093B1
:100810000108809300080C9426190F931F93CF931F
:10082000DF938C010E94E003EC01B8010E94AE034B
:10083000882309F4D5C0B801CE010E94C2098823DB
:1008400009F4CEC0C531FCE5DF0708F07BC0C2303B
:100850008CE5D80708F452C0F8018281882309F496
:1008600054C00E948A17811102C00E9404180E947D
:100870009D1790E090934E0280934D02FE01E3504D
:10088000FC45E231F10530F4EA5AFF4F80914D0208
:100890000C94B62480914D02816027C0826025C0EF
:1008A000846023C0806121C080621FC080641DC03D
:1008B00080681BC08460886018C08E7F16C08D7FE2
:1008C00014C08B7F12C08F7E10C08F7D0EC08F7BB7
:1008D0000CC08F770AC08B7F877F07C087FB2227DA
:1008E00020F991E0922790FB87F980934D02809147
:1008F0004D020E94A1170E94251172C0C115ECE59E
:10090000DE0751F0C130DC4579F0C801DF91CF91AD
:100910001F910F910C94AA03F8018281882309F496
:100920005FC00E94F8035CC0F8018281882309F44B
:1009300057C080912C02982F909590FB80F980935E
:100940002C024EC0CC3D8CE5D80739F4F8018281E9
:10095000882309F445C080E00DC0CD3DECE5DE07FD
:1009600060F0CD3D8CE5D80791F5F80182818823B0
:10097000B9F182E00E94D91F33C0C631DC4529F6A7
:100980000E94DA16282FF8018281409109015091C6
:100990000A01882379F02A7A91E009F490E0909393
:1009A0003C01911102C069E201C065E3CA010E94E5
:1009B00038180AC080913C01811102C069E201C06F
:1009C00065E3CA010E943A180E94261709C0CE3D6D
:1009D000DC4509F09ACFF801828181110E94041848
:1009E00080E0DF91CF911F910F91089580E090E01A
:1009F0000895089599E0799FF00111249CE6899F5C
:100A0000E00DF11D1124E60FF11DEE0FFF1FE65B57
:100A1000FE4F859194910895880F991FFC01EE5720
:100A2000FA4F859194910895CF93DF930E94FA0431
:100A30000E94CB06EC01811520E59207F0F58115A7
:100A400030E4930708F024C1883E910500F5803E0C
:100A5000910508F09CC1883A910570F4853A91059A
:100A600008F09FC08130910509F491C108F442C19A
:100A7000049708F08CC13EC18F3B910508F49CC0DF
:100A8000803C910508F436C1805C9109F4C0811561
:100A900040E2940758F4C11581E0D80708F077C107
:100AA000C03FD10508F426C1D06571C1811520E38E
:100AB000920708F0E4C09F70DEC0811535E593070A
:100AC00008F044C0811544E5940708F0F8C0C1154A
:100AD00082E5D80708F5C11521E5D20708F0DBC08B
:100AE0008C2F837021E030E002C0220F331F8A95E3
:100AF000E2F73C68CE0174E0969587957A95E1F728
:100B00008370382BCF70C695C69580E2C89FE001F0
:100B10001124C22BD32B3BC12C2F26952695CE0119
:100B200083709927C115D34508F0BAC040E2249FCD
:100B300090011124C1E0D0E002C0CC0FDD1F8A95E6
:100B4000E2F72C2B3D2BE901DC6821C1811549E539
:100B50009407A0F4C11588E5D80708F0B5C0C11501
:100B600026E5D20708F0C6C08C2F0E9448078F7177
:100B7000C82FD0E0DC2FCC27D06209C181153AE51F
:100B8000930708F4A6C090568115904208F0B2C0B1
:100B90008D2F8F710E944807DD27D0628F71D82B6F
:100BA000F6C0853A910509F4A8C0863A910509F086
:100BB000A7C0C2E8D0E4EBC0883A910509F4A3C00D
:100BC000893A910509F4A2C08A3A910509F4A1C0B5
:100BD0008B3A910509F4A0C08C3A910509F49FC0A5
:100BE0008B3B910509F49EC08C3B910509F49DC097
:100BF0008D3A910509F49CC0803B910509F49BC096
:100C00008E3A910509F49AC08F3A910509F499C07A
:100C1000813B910509F498C0823B910509F497C086
:100C2000833B910509F496C0843B910509F495C076
:100C3000853B910509F494C0863B910509F493C066
:100C4000873B910509F492C0883B910509F491C056
:100C5000893B910509F490C08D3B910509F48FC043
:100C60008E3B910509F48EC08A3B910509F48DC035
:100C7000C0E0D4E48CC00E940C05EC0188C0992728
:100C8000D3FF03C0EC01D86C82C0EC01D06C7FC0F4
:100C9000DF70D06A7CC0DC2FCC27C16FD06A77C0F0
:100CA00040E2249F90011124C1E0D0E002C0CC0FAB
:100CB000DD1F8A95E2F7C22BD32BDA6868C0D82FE4
:100CC000CC27C46FD06A63C0DC2FCC27C06FD06A3A
:100CD0005EC08F700E94480794E0D695C7959A959C
:100CE000E1F7CF70D0E0DC2FCC27D06A8F70806E18
:100CF000C82B4DC0C0E0D0E04AC0C1E8D0E447C036
:100D0000C3E8D0E444C0C2EED4E441C0C9EED4E4A8
:100D10003EC0CAEED4E43BC0C5EBD4E438C0C6EB59
:100D2000D4E435C0C3EBD4E432C0C4EBD4E42FC068
:100D3000C7EBD4E42CC0CCECD4E429C0CDECD4E493
:100D400026C0C3E8D5E423C0CAE8D5E420C0C2E980
:100D5000D5E41DC0C4E9D5E41AC0C1E2D6E417C089
:100D6000C3E2D6E414C0C4E2D6E411C0C5E2D6E4BE
:100D70000EC0C6E2D6E40BC0C7E2D6E408C0CFE698
:100D8000D4E405C0C0E7D4E402C0CAE2D6E4CE0190
:100D9000DF91CF9108958238910549F1B0F4813304
:100DA000910509F458C048F48932910509F44EC000
:100DB0008A32910509F454C008958533910509F4E8
:100DC00040C08933910599F00895833E910529F13A
:100DD00038F4803E910591F0823E9105A1F008958E
:100DE000863E9105F9F0873E910531F108952091F5
:100DF0004D0220FD3AC021FD38C0089580914D027A
:100E000080FD35C032C080914D0282FF32C080919A
:100E10004D0284FD30C083EE39C080914D0282FDC9
:100E200028C0F5CF80914D0283FF27C080914D02ED
:100E300084FD21C087EE2AC080914D0283FD1DC034
:100E4000F5CF80914D0285FD1AC01BC080914D02E7
:100E500085FD17C014C080914D0286FD14C015C0D9
:100E600080914D0286FD11C00EC080EE0FC089E357
:100E70000DC082EE0BC080E009C086EE07C089E29B
:100E800005C085E303C08AE201C081E390E00895D4
:100E900090914D0292FF0DC0282F2871283019F42F
:100EA000877F846006C0282F2471243011F48B7F43
:100EB000886093FF0DC0282F2871283119F4877E90
:100EC000846106C0282F2471243111F48B7E88613F
:100ED00094FD877E089508950C946B0708950C94F3
:100EE0006E070895E82FF0E0EE0FFF1FE65BFE4F60
:100EF000808191810895089580912C02836088609B
:100F000080932C028091000180910001811102C028
:100F100096E001C090E09093460286E0891B8093A2
:100F20004502A5E2B1E041E050E026E02A0F8D91B4
:100F3000E82FE295EF70F0E031A18F70BA0102C0A6
:100F4000660F771F8A95E2F7CB01962F9095932332
:100F500091A392A1892B82A32A13E9CFACE1B1E03E
:100F600041E050E029E02A0F8D91E82FE295EF70E3
:100F7000F0E031A18F70BA0102C0660F771F8A9529
:100F8000E2F7CB01962F9095932391A392A1892B01
:100F900082A32A13E9CFEAE4F1E01192119271E001
:100FA000E236F707D1F786E00E94B2080C94E80316
:100FB0006F927F928F929F92AF92BF92CF92DF9269
:100FC000EF92FF920F931F93CF93DF9365E271E04F
:100FD000AEE3B1E0712C01E010E05D018D909C90DA
:100FE000119711961C921E92EB018991BE01E82F78
:100FF000E295EF70F0E091A18F70A80101C0440F5D
:101000008A95EAF7892F842B81A382A1642E6094AC
:10101000862182A3D0EADA95F1F79CE1E92E91E0EE
:10102000F92E80E090E0E701D9907E012D2D2295E8
:101030002F7030E0E90128A130E0DD2DDF7002C023
:1010400035952795DA95E2F720FD08C09801082E1E
:1010500002C0220F331F0A94E2F702C020E030E002
:10106000CD90DC9011972C293D2911963C932E931D
:10107000019689309105B9F681A1D62DD823D1A347
:1010800082A1482B42A3129681E0F5012081318193
:101090008216930609F480E0782AF1E0AA34BF07AB
:1010A00009F09BCF6091460270E0660F771F665B88
:1010B0007E4F272D46E08EE391E00E94B308872DF6
:1010C000DF91CF911F910F91FF90EF90DF90CF9024
:1010D000BF90AF909F908F907F906F900895CF9327
:1010E0000E94D807C82F0E94ED08882361F1209143
:1010F000450230E0C901880F991F865B9E4F0E9410
:10110000230981111BC080913D018F5F80933D01B8
:101110008630B0F02091450230E0220F331F40E0CE
:1011200050E0FA01E20FF31FE65BFE4F11821082DE
:101130004E5F5F4F4C305105A1F702C010923D0148
:101140000E94F0030CC02091460230E0C901880FD4
:10115000991F865B9E4F0E9442090E9471078C2F47
:10116000CF9108950895FF920F931F93CF93DF932C
:10117000F82E092F162FD72FC42F222349F081E0F4
:10118000809364010E94CA18909363018093620166
:10119000809164018823D9F080916201909163016C
:1011A0000E94D618069798F0EF2DF02FA12FBD2F93
:1011B00080E090E04C2F50E08417950734F42191A3
:1011C00031912D933D930196F7CF10926401DF91F9
:1011D000CF911F910F91FF9008958091650181112A
:1011E00012C08091D80080618093D8008AE18A95EE
:1011F000F1F700C08091D90080FD02C082E001C0FB
:1012000081E08093650181E090916501913009F062
:1012100080E008950C94ED080E940A098093000173
:101220000E94ED0881110C9417090C941D0961E0CE
:1012300070E081E091E00C945E0A61E070E081E092
:1012400091E00C94670ACF93DF93D82FC92F0E94A7
:101250000A0B892B99F4ED2FFC2F80E090E0DC0144
:10126000AA0FBB1FA959BE4F2D913C9121933193D9
:1012700001968630910599F781E001C080E0DF9109
:10128000CF91089520E030E0FC0141915191CF01D0
:10129000F901EE0FFF1FE959FE4F518340832F5F85
:1012A0003F4F2630310581F708950F931F93CF9359
:1012B000DF93C62FD42F022FFC0182818823C9F02F
:1012C000609375010E94CA18909374018093730112
:1012D00080E28C0F883008F050C0C77081E001C0F8
:1012E000880FCA95EAF7DF91CF911F910F910C9467
:1012F0006E0E10917501161330C08091730190919C
:1013000074010E94D618883C910538F5C0E2CD0FD3
:101310001D17B9F080E2810F883040F4177081E02A
:1013200001C0880F1A95EAF70E94750EC83048F47C
:1013300081E09D2F977001C0880F9A95EAF70E946F
:101340006E0E802F0E945B0EC830B8F4D77081E01B
:1013500001C0880FDA95EAF70AC080E28C0F883066
:1013600060F4C77081E001C0880FCA95EAF7DF9189
:10137000CF911F910F910C94750EDF91CF911F911A
:101380000F9108959C01CB01203F4CE53407F9F003
:1013900078F4283DFCE53F07B9F0293D4CE53407DA
:1013A00011F1273D3C4531F526E241EE61EE1EC0CC
:1013B000223FFCE53F0799F070F0233F3C45D1F414
:1013C00027E245EE66EE12C027E245EE0EC026E2A9
:1013D00041EE60EE0BC027E245EE64EE07C026E268
:1013E00041EE62EE03C028E241E065EE0E9455093D
:1013F00080E00895FC018281882319F01092750124
:10140000089581E008958EE1489B02C08150E1F784
:10141000489BFECF0895589880E28A95F1F7589A34
:101420000895FC013AE03A95F1F798E020E080E079
:1014300031E040E14A95F1F7880F489B02C0816096
:10144000232700C0000040E14A95F1F7915089F749
:1014500090E19A95F1F799B100C0000030E13A951A
:10146000F1F7917092272081920F90830895FF9257
:101470000F931F93CF93DF9300D0CDB7DEB71982C0
:10148000F82E8C01802F8F19861760F46A830E94D2
:10149000030ACE0101960E94110AF80181938F017F
:1014A0006A81F0CF81E09981911180E00F900F90D7
:1014B000DF91CF911F910F91FF9008959093780144
:1014C0008093770160937601509A589A089590938B
:1014D000780180937701609376015098589AE89A42
:1014E000E9E6F0E080818C7F80830895615091E08F
:1014F00001C0990F6A95EAF720E031E0992361F085
:10150000492F482319F0589A232701C0589840E2E0
:101510004A95F1F79695F2CF222311F0589A01C01F
:10152000589880E28A95F1F758980895EF92FF92C3
:101530000F931F93CF93DF931F92CDB7DEB7162F74
:10154000082F7C018E2D801B811758F4F7018191A3
:101550007F0189830E940B0A68E089810E94760AD4
:10156000F1CF0F90DF91CF911F910F91FF90EF90EE
:1015700008951F920F920FB60F9211242F933F934D
:101580004F935F936F937F938F939F93AF93BF938B
:10159000CF93DF93EF93FF935898509AC0917701C0
:1015A000D09178016D81662321F08E819F810E9408
:1015B000960A0E940B0A80E18A95F1F75898509894
:1015C000589A80E18A95F1F76A81662351F08B8100
:1015D0009C810E94370AE881F981811104C082E070
:1015E00003C0E881F98188E080830E94030AFF91AB
:1015F000EF91DF91CF91BF91AF919F918F917F91AB
:101600006F915F914F913F912F910F900FBE0F906F
:101610001F901895CF93DF93C0917701D0917801F7
:10162000F894509A589885E08A95F1F70000509800
:10163000589A80E28A95F1F7489B0AC0509A589AC6
:10164000E881F98181E08083789481E090E02CC08A
:101650006D81662381F08E819F810E94370A8111FE
:101660000AC0509A589AE881F98182E08083789480
:1016700082E090E019C00E94030A80E28A95F1F7A7
:101680005898509A80E18A95F1F76A81662321F093
:101690008B819C810E94960A0E940B0AE881F98145
:1016A0001082789480E090E0DF91CF91089590933C
:1016B0007E0180937D010895E0917D01F0917E018E
:1016C000309721F00190F081E02D099480E0089599
:1016D000E0917D01F0917E01309721F00280F3814D
:1016E000E02D09940895E0917D01F0917E013097FD
:1016F00039F022E0DC012C930480F581E02D09947F
:10170000089520917B0130917C018217930771F03D
:1017100090937C0180937B01E0917D01F0917E01AB
:10172000309721F00680F781E02D099408952091EB
:10173000790130917A018217930771F090937A01C1
:1017400080937901E0917D01F0917E01309721F045
:101750000084F185E02D0994089585B7806885BFE0
:1017600085B7806885BF089508950C94B40B0895DB
:101770000C94B70B0E94AD0B0E940C090C94B50B96
:101780000E94C1180E947C070E9437190C94B80B64
:101790004F925F927F928F929F92AF92BF92CF9221
:1017A000DF92EF92FF920F931F93CF93DF93CDB70A
:1017B000DEB72A970FB6F894DEBF0FBECDBF0E94EA
:1017C0006F080E94ED08811111C08FEF89838A8311
:1017D0001B820E94CA188160782F9D838C83498167
:1017E0005A816B818D810E94860C57C090E8C92E6A
:1017F00091E0D92E00E010E0AA24A394B12C702E21
:10180000802F0E9472074C01F601419051906F01A8
:10181000482659264114510431F40F5F1F4F0C30F4
:10182000110569F7D2CF80912C0281FD0E947B07C0
:1018300020E030E07501022E02C0EE0CFF1C0A947D
:10184000E2F7C70184219521892B09F12E837F823C
:101850008E209F2091E0892809F490E098870E94CB
:10186000CA188160782F9A8789874E815F81688541
:101870008A850E94860C000F111FF801E058FE4F68
:1018800080819181E826F926F182E08206C02F5FEF
:101890003F4F2930310571F6C0CF0E94CA1A10910E
:1018A0007F010E945C0B1817D9F00E945C0B80939B
:1018B0007F012A960FB6F894DEBF0FBECDBFDF9131
:1018C000CF911F910F91FF90EF90DF90CF90BF903D
:1018D000AF909F908F907F905F904F900C94F50306
:1018E0002A960FB6F894DEBF0FBECDBFDF91CF9121
:1018F0001F910F91FF90EF90DF90CF90BF90AF902E
:101900009F908F907F905F904F900895CF93DF933B
:10191000CDB7DEB72B970FB6F894DEBF0FBECDBFA5
:101920004F83588769877A878B87DE01119686E017
:10193000FD0111928A95E9F785E0FE013796019045
:101940000D928A95E1F749815A816B817C818D8165
:101950009E810E94CF132B960FB6F894DEBF0FBE68
:10196000CDBFDF91CF910895FC01808191810E94CC
:101970009B160895CF93DF931F92CDB7DEB78823D0
:1019800009F42DC1682F8238C1F40E945C0B81FDDF
:1019900026C169E38091090190910A010E943818DB
:1019A0000E9426172FEF81EE94E021508040904056
:1019B000E1F700C0000069E319C0833811F50E9407
:1019C0005C0B80FD0CC163E58091090190910A01D7
:1019D0000E9438180E9426172FEF81EE94E02150C4
:1019E00080409040E1F700C0000063E5809109016C
:1019F00090910A010E943A180F90DF91CF910C94B8
:101A000026178438C1F40E945C0B82FDE8C067E4AD
:101A10008091090190910A010E9438180E942617AE
:101A20002FEF81EE94E0215080409040E1F700C01C
:101A3000000067E4DBCF8CEF860F813A70F4862FCD
:101A400069830E94FB1C69818111C9C080910901D1
:101A500090910A010E943818CFCF80E2860F88301B
:101A600048F4677081E001C0880F6A95EAF70E9428
:101A7000DD16C2CF8BE5860F833088F4653A29F0F6
:101A8000663A31F083E890E005C081E890E002C05A
:101A900082E890E00F90DF91CF910C94810B88E564
:101AA000860F873108F091C0683A09F445C0693A59
:101AB00009F445C06A3A09F445C06B3A09F445C0D7
:101AC0006C3A09F445C06B3B09F445C06C3B09F422
:101AD00045C06D3A09F445C0603B09F445C06E3A13
:101AE00009F445C06F3A09F445C0613B09F445C0AB
:101AF000623B09F445C0633B09F445C0643B09F40B
:101B000045C0653B09F445C0663B09F445C0673BE9
:101B100009F445C0683B09F445C0693B09F445C078
:101B20006D3B09F445C06E3B09F445C06A3B09F4BE
:101B300045C080E090E044C082EE90E041C089EE74
:101B400090E03EC08AEE90E03BC085EB90E038C06C
:101B500086EB90E035C083EB90E032C084EB90E000
:101B60002FC087EB90E02CC08CEC90E029C08DEC6E
:101B700090E026C083E891E023C08AE891E020C08D
:101B800082E991E01DC084E991E01AC081E292E00F
:101B900017C083E292E014C084E292E011C085E2B3
:101BA00092E00EC086E292E00BC087E292E008C0AD
:101BB0008FE690E005C080E790E002C08AE292E004
:101BC0000F90DF91CF910C94970B603F40F0862FE0
:101BD0000E94D2190F90DF91CF910C94BF1A0F90F1
:101BE000DF91CF910895882309F464C0823879F495
:101BF0000E945C0B81FF5EC069E3809109019091B6
:101C00000A010E9438180E94261769E310C0833821
:101C1000B1F40E945C0B80FF4DC063E58091090127
:101C200090910A010E9438180E94261763E580915E
:101C3000090190910A010E943A180C9426178438E1
:101C400079F40E945C0B82FF35C067E48091090142
:101C500090910A010E9438180E94261767E4E7CF86
:101C60009CEF980F913A10F4682FE1CF90E2980F13
:101C7000983050F4877091E001C0990F8A95EAF787
:101C8000892F0E94E316D9CF9BE5980F933020F45B
:101C900080E090E00C94810B98E5980F973120F448
:101CA00080E090E00C94970B803F20F00E943A1A5D
:101CB0000C94BF1A0895CF93C82F0E94BA0CC93351
:101CC00049F42FEF83EC99E0215080409040E1F7F8
:101CD00000C000008C2FCF910C94F30D882321F0CD
:101CE0000E94DD160C9426170895882321F00E9487
:101CF000E3160C94261708954F925F926F927F928D
:101D0000BF92CF92DF92EF92FF920F931F93CF93E8
:101D1000DF937C01062FC72FFC01158112951F70E0
:101D2000D281D1110E94FA160E94D316882379F02D
:101D3000DD2369F080E2800F883048F082E00E9465
:101D400071170E94D31691E0B82EB92601C0B12CAC
:101D5000CC2EC2948FE0C822D12CF601E859FF4F57
:101D60000C94B6248C2F807FCF70882311F0C295FD
:101D7000C07FDD2399F0CC2309F4C3C180E2800F3A
:101D8000883010F0011104C08C2F0E94DD1603C0B2
:101D90008C2F0E94ED160E942617B3C1802F0E943F
:101DA000F30DCC2309F4D2C180E2800F883010F00B
:101DB000011104C08C2F0E94E31603C08C2F0E94D7
:101DC000F3160E942617C2C18C2F807FCF708032FD
:101DD00011F0C295C07F002319F00130C9F022C074
:101DE000DD2371F0112341F0113031F40E940D1701
:101DF0008C2B0E941317AAC10E940D178C2B3AC17D
:101E0000112319F0113009F4A1C10E941C1718C048
:101E1000DD2321F0163008F099C10EC0153008F00E
:101E200095C10EC0DD2351F0112331F0F7018581FA
:101E300080FF67C18F7085838C2F1CC1111172C107
:101E40008C2F1EC18C2F86958695837090E000970D
:101E500019F0019761F07AC1DD2321F0802F9C2FCA
:101E6000937002C080E090E00E94810B7FC1DD236F
:101E700021F0802F9C2F937002C080E090E00E94A0
:101E8000970B74C1DD23F9F0053F51F0063F71F067
:101E9000043FA9F4809147029091480281600BC0F1
:101EA0008091470290914802826005C0809147026C
:101EB0009091480284609093480280934702802F5B
:101EC0000E94D2191EC0053F51F0063F71F0043F39
:101ED000A9F480914702909148028E7F0BC08091B7
:101EE0004702909148028D7F05C0809147029091F2
:101EF00048028B7F9093480280934702802F0E9474
:101F00003A1A0E94BF1A32C18C2F837009F04BC05D
:101F1000D11128C1202F229526952770220F220F3C
:101F2000602F6F70862F90E0A0E0B0E02C013D01A3
:101F3000022E04C0440C551C661C771C0A94D2F770
:101F400004FF10C08FE090E0A0E0B0E004C0880F74
:101F5000991FAA1FBB1F2A95D2F780959095A0952F
:101F6000B09503C080E090E0DC01C695C695C370D3
:101F7000D0E0BC01CD016429752986299729C2309A
:101F8000D10559F0C330D10559F0219719F00E94BD
:101F90001415E8C00E940215E5C00E942615E2C093
:101FA0000E940015DFC0DD2319F08C2F817001C065
:101FB0008695882309F4D6C0202F22952695277070
:101FC000220F220F602F6F70862F90E0A0E0B0E00C
:101FD0002C013D01022E04C0440C551C661C771CCC
:101FE0000A94D2F704FF10C08FE090E0A0E0B0E0C8
:101FF00004C0880F991FAA1FBB1F2A95D2F780958E
:102000009095A095B09503C080E090E0DC01C69566
:10201000C695C370D0E0BC01CD016429752986291D
:102020009729C230D10559F0C330D10559F0219715
:1020300019F00E94DA1596C00E94C81593C00E943C
:10204000EC1590C00E943B158DC0802F90E0FC01E4
:10205000E05EF109E531F10508F04FC0E858FF4FA7
:102060000C94B6240F708C2F8F71DD2331F00E94F9
:102070006115802F0E946E0E69C00E948215802F0C
:102080000E94750E63C0DD2341F0153008F05EC07C
:102090008C2F8F710E94A71559C0163008F056C0BA
:1020A000F7CFDD2339F08C2F8F710E9461154EC060
:1020B000DD23C9F38C2F8F710E94821547C0DD2369
:1020C00029F08C2F8F710E944C1540C00E9447153B
:1020D0003DC0DD2349F0CF718C2F0E94611563E074
:1020E0008C2F0E945C1732C081E00E947117123061
:1020F00068F182E00E94711729C0DD2331F01123BD
:1021000091F2802F0E94BA0C21C0112399F2093359
:1021100049F4FFEF23EC89E0F15020408040E1F7E3
:1021200000C00000802F0E94F30D10C04C2F4F7094
:10213000602FC7010E94F6040E94731417C04C2F31
:102140004F70602FC7010E94F90410C098E0C916B3
:10215000D10441F05CF0FAE0CF1AD10822E0C216B7
:10216000D10420F40E945C0B0E94F503BB20F1F027
:102170000E94CF1680FD1AC0F70112820E94C91674
:102180000E946115C7010E94E4100E94C916DF91E8
:10219000CF911F910F91FF90EF90DF90CF90BF9064
:1021A0007F906F905F904F900C948215DF91CF914C
:1021B0001F910F91FF90EF90DF90CF90BF907F9095
:1021C0006F905F904F9008950F931F93CF93DF937D
:1021D000EC01888199812B813C81232BB9F09F3FB1
:1021E00011F48F3F99F0CE010E940D04882371F005
:1021F000688179818A810E94A6168C010E94FE1551
:102200000E94FF14B801CE010E947C0EDF91CF9195
:102210001F910F9108950E94FA160E940A170E94BA
:1022200026170E94651B0E94BF1A80E090E00E9462
:10223000810B80E090E00C94970B809109019091C4
:102240000A010E943C180C940B110E94EA160C948F
:102250001D11E92FE295EF70F0E03297EE30F105B5
:10226000B0F4E357FF4F0C94B624803F91F018F47C
:10227000803E68F40EC0843F51F40BC0803E48F0AD
:10228000813F29F406C093FB882780F9089580E0F8
:10229000089581E008950E949B160E9429110895D7
:1022A000CF93DF9300D000D01F92CDB7DEB70F9051
:1022B0000F900F900F900F90DF91CF910895CF93D3
:1022C000DF9300D000D000D0CDB7DEB726960FB692
:1022D000F894DEBF0FBECDBFDF91CF9108951F935D
:1022E000CF93DF93C091990116E080919A01C817AE
:1022F00099F0D0E01C9FF0011D9FF00D1124E556D0
:10230000FE4F4081518162817381848195810E9459
:102310005F112196C770E9CFDF91CF911F9108958A
:102320004091CB015091CC016091CD017091CE01D3
:102330008091CF019091D0010C945F118091D001D8
:1023400082958F7009F054C08091CD01882309F4E3
:102350004FC080919901A0919A016091CB01709139
:10236000CC014091CE015091CF01B6E08A1709F41B
:102370003FC090E041155105C1F17F3F11F46F3F1F
:10238000A1F1B89FF001B99FF00D1124E556FE4F61
:10239000218172132AC02081621327C0228121115A
:1023A00024C0238134812417350710F421503109CA
:1023B000241B350B283C3105C0F42091D0012F702F
:1023C00020612093D00126E0289FF001299FF00D85
:1023D0001124E056FE4F80818F70806180838BECEA
:1023E00091E00E94E4100C946F1101968770BECFAB
:1023F0000895CF92DF92EF92FF920F931F93CF93A6
:10240000DF93CDB7DEB762970FB6F894DEBF0FBE8D
:10241000CDBF8C0185E0F801DE011D9601900D9283
:102420008A95E1F7D8014C9111965C91119712961B
:102430006C9112971396CD90DC9014973091CB014C
:102440007091CC018091CE019091CF01009709F459
:102450006BC17F3F19F43F3F09F466C1E090CD01A5
:10246000EE2009F4C0C02091D001C816D90628F08A
:10247000F601E81BF90BCF0104C0809590958C0DF7
:102480009D1DFF24F394883C910578F0F12C207F6A
:1024900009F0C6C07C2DD98AC88A89890E9450114A
:1024A0008BEC91E00E94E410B1C0822F807F09F094
:1024B00046C0751314C0341312C0611110C02F70C0
:1024C00020612093D0010E9490118BEC91E00E943A
:1024D000E4108091D001D80115968C932EC0CD28A0
:1024E00019F15F3F11F44F3FF9F0F62E61111CC056
:1024F0008091990120919A0136E0821709F45AC01F
:1025000090E0389FF001399FF00D1124E556FE4F01
:102510007181571306C07081471303C07281711116
:1025200003C001968770E9CFF62E662309F427C110
:102530008091D00181608093D001F12C20C175136E
:1025400008C0341306C0611104C08091D001D801C5
:10255000C3C04D875E878D859E856A8B0E944B1117
:102560006A898823E1F16623D1F12091D001822F7D
:1025700082958F7090E0029774F08091CB019091DA
:10258000CC0198878F831986DB86CA862C87CE017B
:1025900007960E94E41086E0F801ABECB1E00190F0
:1025A0000D928A95E1F70E949E110E949011FF24DE
:1025B000F394E5C04D875E878D859E850E949B16AE
:1025C000292F22952F7030E0223031050CF0CBC03E
:1025D0009F7009F0C5C0805E883008F4D0C0C80183
:1025E0000E94E410E4CFC816D90608F453C0F601DF
:1025F000E81BF90BCF01883C910508F450C0F12C81
:102600007C2DD98AC88A89890E945011EBECF1E0AF
:1026100086E0DF011D928A95E9F70E949011AFC014
:10262000751314C0341312C0611110C08091D00111
:10263000F8018583C8010E94E41086E0EBECF1E02C
:10264000DF011D928A95E9F7FE2C99C04D875E87C0
:102650008D859E856A8B0E944B116A89882309F4B7
:10266000BECF662309F4BBCF2091D001822F829583
:102670008F7090E002970CF48ECF8091CB019091F7
:10268000CC019A8389831B82DD82CC822E83CE018A
:1026900001967FCF809590958C0D9D1DACCFF62E29
:1026A000662309F49CCF75132EC034132CC02091DF
:1026B000D00120FD1FC0822F82958F70D9F0D801E4
:1026C00015962C9315978F3049F08F5F982F929520
:1026D000907F822F8F70892B15968C93C8010E9452
:1026E000E41086E0F801ABECB1E001900D928A9520
:1026F000E1F793CF86E0F801ABECB1E001900D92E9
:102700008A95E1F73CC04D875E878D859E850E9446
:102710004B11811140CF8091D00181608093D00115
:10272000C8010E94E4102BC0662309F458CF4D87DE
:102730005E878D859E850E944B11F82E882309F4B3
:102740004ECF86E0F801ABECB1E001900D928A9596
:10275000E1F78BEC91E00E94B40C0E949E115DCFDA
:10276000811139CF0CC0243031050CF038CF9F7067
:1027700009F431CFF8019581907F09F02CCF8F2D8E
:1027800062960FB6F894DEBF0FBECDBFDF91CF913A
:102790001F910F91FF90EF90DF90CF9008951F93BE
:1027A000CF93DF93CDB7DEB72C970FB6F894DEBF8B
:1027B0000FBECDBF4F83588769877A878B879C87E9
:1027C000CE0107960E94F911882369F08F819885C0
:1027D0002A853B85232BF1F19F3F09F063C08F3F92
:1027E00009F060C037C086E0FE013796DE01119621
:1027F00001900D928A95E1F76F817885EA85FB85D6
:10280000309741F17F3F11F46F3F21F120919A0100
:1028100030E0C9010196877099274091990150E0F5
:102820008417950709F447C069837A83FD83EC8395
:1028300096E0929FD001939FB00D1124A556BE4FF4
:10284000FE01319601900D929A95E1F780939A01DD
:102850000E946F1116E08091990190919A01891759
:10286000C1F1189FC001112485569E4F0E94F91195
:10287000882379F1E09199011E9FF0011124E5561A
:10288000FE4F4081518162817381848195810E94D4
:102890005F118091990190E001968770992780934C
:1028A0009901D9CF4F81588569857A858B859C851B
:1028B0000E945F11CFCF0E94251110929A011092B1
:1028C0009901EBECF1E086E0DF011D928A95E9F7D2
:1028D000C1CF2C960FB6F894DEBF0FBECDBFDF91EF
:1028E000CF911F910895EF92FF920F931F93CF9373
:1028F000DF938C01892B09F46CC0F12CEE24E39456
:10290000E8012196F8018491843740F4843008F07E
:1029100051C0813081F0823019F15BC0853709F4F4
:1029200044C0A8F19CE7980F903708F052C08F7709
:102930000E94F30D41C00E5F1F4FFE01C49180E263
:102940008C0F883048F4C7708E2D01C0880FCA954F
:10295000EAF70E94FD1614C08C2F0E94BA0C2DC0FD
:102960000E5F1F4FFE01C49180E28C0F883058F437
:10297000C7708E2D01C0880FCA95EAF70E94031711
:102980000E9426171AC08C2F0E94F30D16C00E5FEE
:102990001F4FFE01C491CC2381F08FE99FE0019786
:1029A000F1F700C00000C150F6CF0E5F1F4FFE01CF
:1029B000F49003C00E94BA0C8E018F2D882309F475
:1029C0009FCFEFE9FFE03197F1F700C000008150A1
:1029D000F5CFDF91CF911F910F91FF90EF90089568
:1029E00008950C94F0140E94F11460931B027093EC
:1029F0001C0280931D0290931E020C940B110895EB
:102A00000C94F3140F931F9300911B0210911C025E
:102A100020911D0230911E02602B712B822B932B73
:102A20001F910F910C94F3140F931F9300911B02AD
:102A300010911C0220911D0230911E02602371230F
:102A4000822393231F910F910C94F3140F931F93E0
:102A500000911B0210911C0220911D0230911E0258
:102A600060277127822793271F910F910C94F314ED
:102A700008950C9438150E943915609317027093CD
:102A800018028093190290931A020C940B1160E0C3
:102A900070E0CB010C943B150F931F9341E050E085
:102AA00060E070E08A019B0104C0000F111F221F2B
:102AB000331F8A95D2F7C901B8011F910F910C9469
:102AC0003B150F931F9341E050E060E070E004C0BD
:102AD000440F551F661F771F8A95D2F78091170202
:102AE00090911802A0911902B0911A028A019B01DB
:102AF000082B192B2A2B3B2BC901B8011F910F91D1
:102B00000C943B150F931F9341E050E060E070E0A0
:102B100004C0440F551F661F771F8A95D2F7409552
:102B20005095609570958091170290911802A09130
:102B30001902B0911A028A019B01082319232A2342
:102B40003B23C901B8011F910F910C943B150F93C2
:102B50001F9341E050E060E070E004C0440F551F57
:102B6000661F771F8A95D2F78091170290911802FD
:102B7000A0911902B0911A028A019B010827192716
:102B80002A273B27C901B8011F910F910C943B15CF
:102B90000F931F93009117021091180220911902B0
:102BA00030911A02602B712B822B932B1F910F9166
:102BB0000C943B150F931F9300911702109118026C
:102BC0002091190230911A026023712382239323EA
:102BD0001F910F910C943B150F931F9300911702B7
:102BE000109118022091190230911A026027712762
:102BF000822793271F910F910C943B15089529E08C
:102C0000929F800D1124A82FA695A695A695877052
:102C100051E001C0550F8A95EAF785E0A89FD001E1
:102C2000112420E030E070E0F901EA0FFB1FEF52C1
:102C3000FE4F4081CB01022E02C0969587950A94E3
:102C4000E2F78170992781958427852384278083E3
:102C50002F5F3F4F2530310539F7089529E0929FC6
:102C6000800D1124682F669566956695982F97704C
:102C700085E0689FB001112440E050E080E0FA0157
:102C8000E60FF71FEF52FE4F208130E0092E02C001
:102C9000369527950A94E2F721703327042E01C058
:102CA000220F0A94EAF7822B4F5F5F4F45305105A0
:102CB00031F70895BF92CF92DF92EF92FF920F9378
:102CC0001F93CF93DF938C01C0901B02D0901C0206
:102CD000E0901D02F0901E02809117029091180260
:102CE000A0911902B0911A02C82AD92AEA2AFB2A0D
:102CF000CFE1D0E0D701C6010C2E04C0B695A79550
:102D0000979587950A94D2F780FF07C0BC2EB8012B
:102D10008C2F0E941405019719F4219758F7B12CB4
:102D20008B2DDF91CF911F910F91FF90EF90DF904E
:102D3000CF90BF900895CF93DF93EC010E945A1675
:102D4000BE010E941405DF91CF9108951F93CF9388
:102D5000DF93EB0190919801992321F0CB010E9420
:102D60009B1613C0882349F0CB010E945A16182FD6
:102D7000682FCE010E94FF1504C0CB010E942E16C1
:102D8000182FBE01812F0E941405DF91CF911F9152
:102D9000089580911F028595859585950895809168
:102DA0001F028770089590911F02977081E009F4C7
:102DB00080E0089580912B02089590912B02892B39
:102DC00080932B020895809590912B028923809304
:102DD0002B02089510922B02089590912A02892BBC
:102DE00080932A020895809590912A0289238093E6
:102DF0002A02089510922A02089590912902892B9F
:102E000080932902089580959091290289238093C7
:102E100029020895109229020895809120020895B0
:102E200008950C94101790912002981721F0809328
:102E300020020C941117089580912002882329F014
:102E40001092200280E00C9411170895E09109017E
:102E5000F0910A0180912B028083E0910901F091A9
:102E60000A01908180912A02892B8083E0910901D7
:102E7000F0910A01908180912902892B80838091B1
:102E80002002882381F0E0910901F0910A019081EC
:102E9000892B80838091090190910A010E94061874
:102EA00081110E941C178091090190910A010C94D4
:102EB000680B08950C94591798E0899F900111248C
:102EC000262B20931F020E94611580911F02859579
:102ED000859585950C945A1710921F0280E00C94EA
:102EE0005A1720911F028095822380931F02982FEA
:102EF000977079F430E0482F082E000C550B2417FA
:102F0000350739F08595859585950E9482150C9435
:102F10006C17089580E090E00E94D82421E08D3E57
:102F20009E4F09F020E0822F089582E090E00C94FB
:102F3000D02483E090E00C94D02484E090E00C94C2
:102F4000D024682F84E090E00C94DE24AB01BC0117
:102F50008FE090E00C94F024AB01BC0183E190E0A1
:102F60000C94F02460E070E0CB010C94AC1760E0AE
:102F700070E0CB010E94A6170C94B2176DEE7EEFA5
:102F800080E090E00E94FC2460E082E090E00E94FB
:102F9000DE2460E083E090E00E94DE2410921B02B9
:102FA00010921C0210921D0210921E0260E084E03A
:102FB00090E00E94DE2460E085E090E00E94DE2444
:102FC00060E086E090E00E94DE246FEF87E090E012
:102FD0000E94DE2440E050E0BA0188E090E00E94C8
:102FE000F02460E08DE090E00E94DE2440E050E0BC
:102FF000BA0188E190E00E94F02460E087E190E06F
:103000000E94DE240C94B7170C94BE17FC01329674
:1030100097E080E0915029F021912223D9F38F5F2E
:10302000F9CF08959C01FC0132969FEF80E0419119
:10303000461789F09F3F19F4411101C0982F8F5F07
:103040008630A9F79F3F39F0F901E90FF11D97FD8F
:10305000FA95628308950895FC01329608962081BE
:10306000261301C010823196E817F907C1F70895B9
:103070000C9412180C942C18029626E0FC01119264
:103080002A95E9F7089508950C9443180E9444186E
:1030900080915302843049F110922D0220E488E19E
:1030A00090E00FB6F894A895809360000FBE20932F
:1030B000600080E00E94F5030E94441883B7817F7E
:1030C000846083BF83B7816083BF7894889583B71A
:1030D0008E7F83BF0FB6F894A895809160008861B9
:1030E00080936000109260000FBE089508950895C7
:1030F000CF930E9476180E946F080E947718C0E054
:103100008C2F0E947207892B29F4CF5FCC30C1F736
:1031100080E001C081E0CF91089508950C948D184E
:103120000E9425110E945C0B0E94F5030C948E18DE
:103130001F920F920FB60F9211248F939F93AF930C
:10314000BF9380912D02811113C08091490290910B
:103150004A02A0914B02B0914C024196A11DB11DB3
:103160008093490290934A02A0934B02B0934C0281
:10317000BF91AF919F918F910F900FBE0F901F90B5
:10318000189582E084BD93E095BD9AEF97BD80933A
:103190006E0008952FB7F8948091490290914A02E9
:1031A000A0914B02B0914C022FBF0895CF92DF92B5
:1031B000EF92FF920F931F932FB7F894409149021B
:1031C00050914A0260914B0270914C022FBF6A01EC
:1031D0007B01EE24FF248C0120E030E0C016D106F4
:1031E000E206F30610F4415051099A01281B390BED
:1031F000C9011F910F91FF90EF90DF90CF9008953C
:1032000078941F920F920FB60F9211248F939F9371
:10321000AF93BF938091490290914A02A0914B02D3
:10322000B0914C020196A11DB11D8093490290936B
:103230004A02A0934B02B0934C02BF91AF919F9171
:103240008F910F900FBE0F901F90189587E797E70B
:1032500090930108809300089AE088E10FB6F894F3
:10326000A895809360000FBE90936000FFCF0E94EE
:103270008A17811102C00E9404180E94951780933A
:103280002C020E949D1790E090934E0280934D0275
:103290000E949917682F70E080E090E00C94001570
:1032A0008091310280FF0BC060910E0185E0689F24
:1032B000B001112475956795759567952BC081FFB1
:1032C00009C060910E0185E0689FB00111247595D9
:1032D000679520C082FF07C060910E0185E0689F5E
:1032E000B001112417C0909130029923D1F0609160
:1032F0000D01961788F720910E0185E0289F900117
:103300001124929FA001939F500D112470E0CA01D7
:103310000E94A2246038710540F46115710539F0EE
:1033200002C065E070E0862F08958FE7089581E080
:1033300008958091310280FF08C060910C0170E017
:10334000759567957595679521C081FF06C0609159
:103350000C0170E07595679519C082FF04C06091FB
:103360000C0170E010C0909130029923C1F060917F
:103370000B019617A0F780910C01899FC0011124C1
:1033800070E00E94A2246038710528F4611571056F
:1033900021F0862F08958FE7089581E0089561E078
:1033A00070E0F4CF803F21F40E945019819504C051
:1033B000813F29F40E945019809335020895823F7D
:1033C00021F40E945019819504C0833F29F40E9482
:1033D0005019809334020895893F19F40E94991975
:1033E00005C08A3F31F40E94991981958093360275
:1033F00008958B3F21F40E949919819504C08C3F58
:1034000029F40E949919809337020895843F21F48A
:1034100080913302816017C0853F21F4809133028F
:10342000826011C0863F21F48091330284600BC01A
:10343000873F21F480913302886005C0883F31F4D2
:103440008091330280618093330208958D3F21F48F
:103450008091310281600BC08E3F21F48091310256
:10346000826005C08F3F29F480913102846080938F
:1034700031020895803F39F48091350287FF6CC096
:103480001092350269C0813F29F4809135021816E7
:10349000BCF362C090913402823F29F497FF5CC074
:1034A0001092340259C0833F19F41916CCF354C05A
:1034B000893F41F48091360218160CF04DC01092ED
:1034C00036024AC08A3F29F48091360287FF44C001
:1034D000F6CF8B3F39F48091370287FF3DC01092C1
:1034E00037023AC08C3F29F4809137021816BCF39A
:1034F00033C0843F21F4809133028E7F17C0853F13
:1035000021F4809133028D7F11C0863F21F4809198
:1035100033028B7F0BC0873F21F480913302877F7A
:1035200005C0883F31F4809133028F7E809333024F
:1035300013C08D3F21F4809131028E7F0BC08E3FEE
:1035400021F4809131028D7F05C08F3F29F4809155
:1035500031028B7F809331028091340281110EC041
:103560008091350281110AC080913602811106C016
:1035700080913702811102C010923002089582E3D7
:1035800092E00E94730B0E94CA1890932F028093BE
:103590002E0208951F93CF93DF9380912E02909176
:1035A0002F020E94D618AC0190913002992321F08D
:1035B00020910F0130E006C0209110018AE0289F81
:1035C000900111244217530708F47BC08091340204
:1035D000C0913502D091360210913702811107C097
:1035E000C1116BC0D11169C0111167C06AC09F3F82
:1035F00019F09F5F90933002181624F40E9450191E
:10360000809334028091340287FF05C00E945019D4
:103610008195809334021C1624F40E9450198093E3
:1036200035028091350287FF05C00E9450198195AF
:1036300080933502309134023323E1F0209135023A
:103640002223C1F045EB3403C0011124892F990FC7
:10365000990B009709F481E08093340235EB230342
:10366000C0011124892F990F990B009709F481E06B
:10367000809335021D1624F40E9499198093360216
:103680008091360287FF05C00E9499198195809329
:103690003602111624F40E94991980933702809102
:1036A000370287FF05C00E949919819580933702E0
:1036B000DF91CF911F910C94BF1A9F3F09F099CFD2
:1036C000A1CFDF91CF911F910895E2E3F2E086E070
:1036D000DF011D928A95E9F71092300210923102B3
:1036E0000895833081F128F4813059F08230D1F08F
:1036F0000895853009F449C0B8F1863009F456C000
:10370000089580911001262F30E0280F311D2F3FA2
:10371000310524F4680F6093100108958FEF8093B2
:103720001001089580910F01262F30E0280F311DE0
:103730002F3F310524F4680F60930F0108958FEF38
:1037400080930F01089580910E01262F30E0280FFD
:10375000311D2F3F310524F4680F60930E01089549
:103760008FEF80930E01089580910D01262F30E098
:10377000280F311D2F3F310524F4680F60930D0190
:1037800008958FEF80930D01089580910C01262FED
:1037900030E0280F311D2F3F310524F4680F60936E
:1037A0000C0108958FEF80930C01089580910B0117
:1037B000262F30E0280F311D2F3F310524F4680FEC
:1037C00060930B0108958FEF80930B010895833070
:1037D00011F128F4813049F0823091F0089585305C
:1037E00081F120F18630C1F10895809110016817B0
:1037F00020F4861B80931001089510921001089503
:1038000080910F01681720F4861B80930F010895A3
:1038100010920F01089580910E01681720F4861B05
:1038200080930E01089510920E01089580910D016C
:10383000681720F4861B80930D01089510920D01E6
:10384000089580910C01681720F4861B80930C0169
:10385000089510920C01089580910B01681720F4CF
:10386000861B80930B01089510920B0108950F930E
:103870001F938B3109F474C058F58B3009F4A1C043
:1038800078F4863009F446C020F4853009F44CC041
:103890009FC0873009F456C0883009F492C098C0A0
:1038A000803109F470C068F48E3009F091C08091C5
:1038B0002C0282FB222720F991E0922790FB82F9CB
:1038C00058C0863109F47DC0893109F47AC080C0BE
:1038D0008A32E9F060F4873209F475C028F48E3139
:1038E00008F476C08D515AC08932F1F071C083342A
:1038F00050F48A3308F051C0853309F464C088332A
:1039000009F45FC065C0833409F45DC061C00E94E2
:10391000041857C080912C02817F8E7F80932C02E7
:1039200081E08093390255C00E9425110FEF13EDFD
:1039300020E3015010402040E1F700C000000E9449
:1039400026193FC080912C02982F9095917090FB82
:1039500080F980932C02911134C0897F877F10C039
:1039600080912C0281FB222720F991E0922790FB85
:1039700081F980932C02992321F180912C0281609E
:1039800080932C021EC080912C0283FB222720F9F9
:1039900091E0922790FB83F9ECCF895341E050E00E
:1039A00060E070E08A019B0104C0000F111F221F1C
:1039B000331F8A95D2F7C901B8010E9400150E94F1
:1039C000251181E006C061E070E080E090E0F5CF75
:1039D00080E01F910F91089580E0089580E00895A0
:1039E0008E518A3030F4E82FF0E0EF5CFE4F80819A
:1039F000089580E00895CF93C82F809139028130D7
:103A000051F018F0823099F17DC00E94DA168232AE
:103A100009F07AC004C00E94DA16823261F48C2F59
:103A20000E94EC1C811104C08C2F0E94371C1DC009
:103A300081E090E01AC08C2F0E94EE1C811114C00E
:103A4000C43179F048F4CB3079F0C03109F060C06E
:103A500082E08093390208C0C93219F0C83321F0DE
:103A600057C01092390254C081E0817053C0C932EE
:103A700089F118F5C43171F1B0F4C73009F046C0CE
:103A80008EE18093100182E380930F018AE080939E
:103A90000E0184E180930D0188E080930C0188E29F
:103AA00080930B0133C082EE8C0F863078F58C2F1B
:103AB0000E94F01C8093380229C0CE34E9F020F433
:103AC000CB3421F56AE013C0C13579F0C235F1F489
:103AD00061E00DC080913802882319F010923802FD
:103AE00015C081E08093390215C061E006C0809165
:103AF00038020E94711B0AC06AE0809138020E945D
:103B0000E71B04C01092390280E004C081E002C0CB
:103B100080E0ABCFCF9108958091420208950F933A
:103B20001F93CF93DF9300D01F92CDB7DEB78C01E8
:103B30000E94E91F823011F0843021F584E08983EE
:103B40001B830A8382E08093E9008FEF9091E80065
:103B5000815095FD06C095ED9A95F1F70000811111
:103B6000F5CF8091E80085FF0DC040E050E063E0B4
:103B700070E0CE0101960E9406208091E8008E77C9
:103B80008093E8000F900F900F90DF91CF911F91DD
:103B90000F910895CF93DF9300D01F92CDB7DEB77A
:103BA00020915302243031F523E029838058910974
:103BB0009B838A8382E08093E9008FEF9091E800F5
:103BC000815095FD06C095ED9A95F1F700008111A1
:103BD000F5CF8091E80085FF0DC040E050E063E044
:103BE00070E0CE0101960E9406208091E8008E7759
:103BF0008093E8000F900F900F90DF91CF91089580
:103C0000CF93DF93EC010E94E91F823011F08430E2
:103C1000F9F482E08093E9009FEF8091E8009150F1
:103C200085FD06C085ED8A95F1F700009111F5CF6D
:103C30008091E80085FF0CC040E050E066E070E055
:103C4000CE010E9406208091E8008E778093E800E4
:103C5000DF91CF910895CF93DF93EC010E94E91F8C
:103C6000823011F0843039F581E08093E9008FEFE4
:103C70009091E800815095FD06C095ED9A95F1F779
:103C800000008111F5CF8091E80085FF14C040E06D
:103C900050E068E070E0CE010E9406208091E800CC
:103CA0008E778093E80088E0FE01AAE3B2E00190FD
:103CB0000D928A95E1F7DF91CF910895809152029C
:103CC000811109C00E949B210E94F8218091E2008D
:103CD00084608093E200089510925202089508953E
:103CE00008950C94901842E061EC81E00E94152147
:103CF00042E261EC82E00C94152180915502833000
:103D000009F460C030F4813071F0823009F499C058
:103D100008958A3009F485C08B3009F46BC089306E
:103D200009F0A7C020C080915402813A09F0A1C0D7
:103D30008091E800877F8093E800809158029091FD
:103D40005902892B21F468E08AE392E003C060E025
:103D500080E090E070E00E9451208091E8008B7735
:103D60008093E800089580915402813209F081C067
:103D70008091580290915902029708F07AC0809180
:103D8000E800877F8093E8008091E80082FD05C00D
:103D9000809153028111F8CF6CC02091F300809183
:103DA000F20090E0922B029729F48091F1008B7F32
:103DB000813021F48091F100809342028091E800EB
:103DC0008B7753C080915402813A09F052C08091A0
:103DD000580290915902892B09F04BC08091E8005C
:103DE000877F8093E8008091E80080FFFCCF80917E
:103DF0001B0136C0809154028132D9F5809158025E
:103E000090915902892BA9F58091E800877F8093D2
:103E1000E8000E944A218091560280931B010C9475
:103E2000251180915402813221F58091E800877F2D
:103E30008093E8000E944A218091570280934302B8
:103E4000089580915402813AA1F48091E800877F1F
:103E50008093E8008091E80080FFFCCF80914302CE
:103E60008093F1008091E8008E778093E8000C94B5
:103E70004A21089584B7877F84BF0FB6F894A89528
:103E800080916000886180936000109260000FBE96
:103E900080E880936100109261000E94BA0B0E943A
:103EA0009B210E94F8218091E20084608093E200CF
:103EB00078940E9487240E94C00B81E191E00E94C7
:103EC000570B80915302853069F40E944618809107
:103ED00051028823B1F30E947818882391F30E943D
:103EE000F01FEFCF0E94C80BECCF0C94771F292F47
:103EF000332723303105C9F064F42130310581F0D6
:103F00002230310509F04CC08BE390E020EB35E026
:103F10004BC02132310521F12232310589F140C0F7
:103F200082E190E02BEE35E03FC09927813091058A
:103F300071F02CF4892BA1F5ECEAF5E00DC082308C
:103F4000910541F0039761F5E2E8F5E005C0ECE981
:103F5000F5E002C0E8E8F5E0849190E09F0124C01C
:103F60006115710541F061307105D1F489E090E08F
:103F70002BED35E019C089E090E022EC35E014C06B
:103F80006115710541F06130710551F485E890E0EB
:103F90002DEF35E009C080E490E022E836E004C06F
:103FA00080E090E020E030E0FA0131832083089542
:103FB0000895CF93C82F0E94D81FC0934402CF9179
:103FC000089580915302843011F081E0089582E0D9
:103FD000089580914402811102C00C94E11F08955C
:103FE00080E189BD82E189BD09B400FEFDCF8091E9
:103FF000D8008F7D8093D8008091E000826080930C
:10400000E0008091E00081FDFCCF0895CF92DF9227
:10401000EF92FF920F931F93CF93DF93EC018B01ED
:104020006A010E946921811133C0C114D10439F0A1
:10403000F60180819181081B190BC80FD91FE12C53
:10404000F12C0115110519F18091E80085FD16C0CC
:104050008091E8008E778093E800C114D10449F084
:10406000F60180819181E80EF91EF182E08285E0FF
:104070000FC00E946921882321F30AC0899180938F
:10408000F10001501109FFEFEF1AFF0ADACF80E0CB
:10409000DF91CF911F910F91FF90EF90DF90CF9024
:1040A000089520915A0230915B022617370748F095
:1040B0006115710539F42091E8002E772093E8000E
:1040C00001C0B90140E061157105A9F120915302C9
:1040D000222309F443C0253009F442C02091E800AE
:1040E00023FD40C02091E80022FD32C02091E8006D
:1040F00020FFE9CF4091F3002091F20030E0342B13
:10410000FC01CF016115710559F02830310540F4EB
:1041100081918093F100615071092F5F3F4FF1CF82
:1041200041E02830310509F040E02091E8002E7789
:104130002093E800C8CF4111C9CF0AC08091530233
:10414000882361F0853061F08091E80083FD0AC02A
:104150008091E80082FFF2CF80E0089582E0089528
:1041600083E0089581E0089520915A0230915B0226
:104170002617370748F06115710539F42091E800DA
:104180002E772093E80001C0B901FC0120E0611501
:10419000710591F180915302882309F440C0853064
:1041A00009F43FC08091E80083FD3DC08091E800A4
:1041B00082FD2FC08091E80080FFE9CF2091F300BD
:1041C0008091F20090E0922B6115710559F08830D2
:1041D000910540F424912093F100319661507109CA
:1041E0000196F2CF21E0089709F020E08091E800E5
:1041F0008E778093E800CBCF2111CCCF0AC080917D
:104200005302882361F0853061F08091E80083FDDE
:104210000AC08091E80082FFF2CF80E0089582E03A
:10422000089583E0089581E00895982F973058F518
:104230009093E900981739F07091EC002091ED000F
:104240005091F00003C0242F762F50E021FF19C0B9
:104250003091EB003E7F3093EB003091ED003D7FDD
:104260003093ED003091EB0031603093EB007093B0
:10427000EC002093ED005093F0002091EE0027FF1A
:1042800007C09F5FD3CF8F708093E90081E00895CE
:1042900080E008958091540287FF11C08091E8006A
:1042A00082FD05C0809153028111F8CF11C0809129
:1042B000E8008B770BC080915302882349F08091EE
:1042C000E80080FFF8CF8091E8008E778093E800C7
:1042D00008952091E4003091E50095E64091EC00CE
:1042E000842F817040FF22C08091E80080FD1CC0B7
:1042F00080915302882391F0853091F08091EB00FA
:1043000085FD10C04091E4005091E500421753072D
:1043100029F39A01915011F784E0089582E00895FD
:1043200083E0089581E0089580E008954091E800D9
:1043300042FFDECF08950E9409220E941122E0EE82
:10434000F0E0808181608083E8EDF0E080818F770C
:10435000808319BCA7EDB0E08C918E7F8C93808117
:104360008F7E80831092520208950F931F93CF93F4
:10437000DF930E9409220E941122C8EDD0E08881BB
:104380008F77888388818068888388818F7D888300
:1043900019BC1092530210924F02109251021092C7
:1043A000500200EE10E0F80180818B7F80838881CD
:1043B0008160888342E060E080E00E941521E1EEA8
:1043C000F0E080818E7F8083E2EEF0E0808181608A
:1043D0008083808188608083F80180818E7F8083E4
:1043E000888180618883DF91CF911F910F9108951B
:1043F000E8EDF0E080818F7E8083E7EDF0E0808162
:104400008160808384E082BF81E0809352020C94BB
:10441000B521E8EDF0E080818E7F80831092E2008C
:1044200008951092DA001092E10008951F920F9201
:104430000FB60F9211242F933F934F935F936F9377
:104440007F938F939F93AF93BF93EF93FF9380914D
:10445000E10082FF0BC08091E20082FF07C08091E3
:10446000E1008B7F8093E1000E9486248091DA0036
:1044700080FF1FC08091D80080FF1BC08091DA00B0
:104480008E7F8093DA008091D90080FF0DC080E19B
:1044900089BD82E189BD09B400FEFDCF81E0809332
:1044A00053020E945E1E05C019BC109253020E9466
:1044B0006C1E8091E10080FF19C08091E20080FFB6
:1044C00015C08091E2008E7F8093E2008091E2002F
:1044D00080618093E2008091D80080628093D80050
:1044E00019BC85E0809353020E94701E8091E10008
:1044F00084FF30C08091E20084FF2CC080E189BD40
:1045000082E189BD09B400FEFDCF8091D8008F7D86
:104510008093D8008091E1008F7E8093E1008091AC
:10452000E2008F7E8093E2008091E20081608093C0
:10453000E20080914F02882311F084E007C080914F
:10454000E30087FD02C081E001C083E08093530255
:104550000E94711E8091E10083FF29C08091E200DA
:1045600083FF25C08091E100877F8093E10082E096
:104570008093530210924F028091E1008E7F8093CE
:10458000E1008091E2008E7F8093E2008091E20062
:1045900080618093E20042E060E080E00E941521AB
:1045A0008091F00088608093F0000E946F1EFF9160
:1045B000EF91BF91AF919F918F917F916F915F919B
:1045C0004F913F912F910F900FBE0F901F90189514
:1045D0001F920F920FB60F9211242F933F934F9378
:1045E0005F936F937F938F939F93AF93BF93CF937B
:1045F000DF93EF93FF93C091E900CF708091EC00BF
:10460000D82FD17080FDD0E81092E9008091F000A1
:10461000877F8093F00078940E942C231092E90009
:104620008091F00088608093F000CD2BCF70C09314
:10463000E900FF91EF91DF91CF91BF91AF919F91F1
:104640008F917F916F915F914F913F912F910F903B
:104650000FBE0F901F9018951F93CF93DF93CDB788
:10466000DEB7AA970FB6F894DEBF0FBECDBFE4E564
:10467000F2E088E08E0F9091F10091938E13FBCFC2
:104680000E947D1E8091E80083FF28C18091540222
:1046900090915502492F50E04A30510508F01EC153
:1046A000FA01E556FF4F0C94B624803821F0823889
:1046B00009F014C108C080915002909151029923D1
:1046C00089F082600FC0809158028F70873008F0A7
:1046D00005C18093E9008091EB0085FB882780F974
:1046E0001092E9009091E800977F9093E800809302
:1046F000F1001092F100D0C0282F2D7F09F0EEC0FC
:10470000882319F0823061F0E9C08091560281302F
:1047100009F0E4C0933009F080E0809351022EC08C
:104720008091560281112AC0809158028F702FEF1C
:10473000280F263008F0D2C08093E9002091EB00CA
:1047400020FF1CC0933021F48091EB00806214C0E4
:104750009091EB0090619093EB0021E030E0A90193
:1047600002C0440F551F8A95E2F74093EA00109269
:10477000EA008091EB0088608093EB001092E900E2
:104780008091E800877F8093E8000E944A21A6C0BC
:104790008111A4C0109156021F778091E3008078A8
:1047A000812B8093E3008091E800877F8093E8006D
:1047B0000E944A218091E80080FFFCCF8091E300B5
:1047C00080688093E300111102C082E001C083E0A1
:1047D0008093530283C08058823008F07FC080915C
:1047E0005602909157028C3D53E0950779F583E08E
:1047F0008A838AE289834FB7F894DE01139620E01A
:104800003EE051E2E32FF0E050935700E49120FFA7
:1048100003C0E295EF703F5FEF708E2F90E0EA30BB
:1048200010F0C79601C0C0968D939D932F5F2431E1
:1048300049F74FBF8091E800877F8093E8006AE2E4
:1048400070E0CE0101960E94512015C0609158027F
:1048500070915902AE014F5F5F4F0E94751FBC01FE
:10486000892BE1F19091E800977F9093E80089818E
:104870009A810E94B4208091E8008B778093E800B1
:104880002DC0803859F58091E800877F8093E8003B
:1048900080914F028093F1008091E8008E7773CF72
:1048A00081111CC0909156029230C0F48091E800B2
:1048B000877F8093E80090934F020E944A21809165
:1048C0004F02811106C08091E30087FD02C081E0A4
:1048D00001C084E0809353020E94731E8091E8001F
:1048E00083FF0AC08091E800877F8093E800809171
:1048F000EB0080628093EB00AA960FB6F894DEBFBF
:104900000FBECDBFDF91CF911F9108950895CF9332
:10491000809153028823A1F0C091E900CF7090915B
:10492000EC00892F817090FD80E8C82B1092E9007F
:104930008091E80083FD0E942C23CF70C093E90092
:10494000CF91089597FB072E16F4009407D077FDBA
:1049500009D00E94BC2407FC05D03EF490958195B7
:104960009F4F0895709561957F4F0895EE0FFF1F3B
:104970000590F491E02D0994AA1BBB1B51E107C0DF
:10498000AA1FBB1FA617B70710F0A61BB70B881FDF
:10499000991F5A95A9F780959095BC01CD0108956E
:1049A000F999FECF92BD81BDF89A992780B50895F7
:1049B000A8E1B0E042E050E00C940425262FF999DC
:1049C000FECF92BD81BDF89A019700B4021639F06E
:1049D0001FBA20BD0FB6F894FA9AF99A0FBE08953F
:1049E0000396272F0E94DF240E94DE24252F0E9499
:1049F000DF24242F0C94DF240196272F0E94DF242C
:104A00000C94DE24DC01CB01FC01F999FECF06C039
:104A1000F2BDE1BDF89A319600B40D92415050407C
:084A2000B8F70895F894FFCFE8
:104A28000166010067010C670121022808140A3297
:104A38001E8C1D2B1E001ECA1D8F1D0135363233DC
:104A480031F7F6F5F49392946697C60000000000DB
:0C4A580000010203040506070809000025
:00000001FF
