:100000000C9435030C94E80A0C947C030C947C0348
:100010000C947C030C947C030C947C030C947C0364
:100020000C947C030C947C030C94F9210C94CB224B
:100030000C9472180C947C030C947C030C947C0339
:100040000C947C030C947C030C947C030C947C0334
:100050000C947C030C94BF180C947C030C947C03CC
:100060000C947C030C947C030C947C030C947C0314
:100070000C947C030C947C030C947C030C947C0304
:100080000C947C030C947C030C947C030C947C03F4
:100090000C947C030C947C030C947C030C947C03E4
:1000A0000C947C030C947C030C947C03560E560E2B
:1000B000880E880ED50EF30E14101410FE0E930F3A
:1000C000A40FA40F0410141014100D10B410B410C9
:1000D000C610C610BD10C610C610C610B410B4109D
:1000E000C210C610C610C21038235F2357245F23E6
:1000F0005724AB23CE235724252434242900B200CF
:10010000B1003A003B003C003D003E003F0000587B
:10011000015835021E001F0020002100220023008C
:10012000025803582B0014001A00070009000E00A3
:100130001F00AC004C003900040016000800170036
:100140000A003400AB00E600E1001C001B000600C2
:10015000190005004A007C007D00E000E200000775
:10016000000FE3002C0028003E003F00400041004B
:1001700042004300440045007A002200230024008E
:100180002500260027002D002E002A0021000D004A
:10019000180015000F0033002F00300064003100FC
:1001A0001D0011000C0012000B002D00240028007F
:1001B0004D001300100036003700E300E500520048
:1001C000E60028002C00000F0007E600E4005000C5
:1001D00051004F0001000100010001000100010079
:1001E0000100010001000100010001000100010007
:1001F00001000100010001000100010001000100F7
:100200005200010001000100010001000100010095
:10021000500051004F0001000100010001000100E9
:1002200001000100010001000100010001000100C6
:1002300001000100010001000100010001000100B6
:1002400001000100460047004800010001000100D4
:1002500001000100010049004A004B005300540016
:1002600055005600010001004C004D004E005F009B
:100270006000610057000100010001000100010061
:100280005C005D005E00850001000100010052007D
:10029000010059005A005B00670001000100500096
:1002A00051004F006200010063005800010001008E
:1002B0000100010001000100010001000100010036
:1002C00001003500010001000100010001000100F2
:1002D00001000100010014001A00080015001700B9
:1002E00026020100010001000400160007000900B9
:1002F0000A002F000100010001001D001B00060084
:10030000190005004A00010001000100010000077A
:10031000000FE7002C00280001000100010001008F
:1003200001000100010001000100010001000100C5
:100330000100010001002D002E00010027021C0019
:1003400018000C00120013002F00300001003000D4
:100350000B000D000E000F003300340031000100CF
:100360004D0011001000360037003800E500010094
:10037000010028002C00000F00070100010001000F
:100380000100010001000100010001000100010065
:100390000100010001000100010001000100010055
:1003A0000100010001000100010001000100010045
:1003B0000100010001000100010001000100010035
:1003C0000100010001000100010001000100010025
:1003D0000100010001000100010001000100010015
:1003E0000100010001000100010001000100010005
:1003F00001000100010001000100010001000100F5
:1004000001000100010001000100010001000100E4
:1004100001000100010001000100010001000100D4
:1004200001000100010001000100010001000100C4
:1004300001000100010001000100010001000100B4
:1004400001000100010001000100010001000100A4
:100450000100010001000100010001000100010094
:100460000100010001000100010001000100010084
:100470000100010001000100010001000100010074
:100480000100010001000100010001000100010064
:100490000100010001000100010001000100010054
:1004A0000100010001000100010001000100010044
:1004B0000100010001000100010001000100010034
:1004C0000100010001000100010001000100010024
:1004D0000100010001000100010001000100010014
:1004E0000100010001000100010001000100010004
:1004F00001000100010001000100010001000100F4
:1005000001000100010001000100010001000100E3
:1005100001000100010001000100010001000100D3
:1005200001000100010001000100010001000100C3
:10053000010001001203420046004F002D00390067
:1005400030003000300000000E034B0065006500F5
:10055000620069006F0000000403090409023B0007
:10056000020100A0FA0904000001030101000921B1
:10057000110100012240000705810308000A090457
:100580000100010300000009211101000122810086
:100590000705820320000A12011001000000081064
:1005A000CB691100010102000105010902A10185C9
:1005B000020901A100050919012905150025019568
:1005C0000575018102950175038101050109300955
:1005D000311581257F950275088106093815812519
:1005E0007F950175088106050C0A38021581257F63
:1005F000950175088106C0C005010980A101850328
:1006000019012AB700150126B70095017510810060
:10061000C0050C0901A101850419012AA0021501D8
:1006200026A002950175108100C005010906A101EF
:10063000050719E029E715002501950875018102D4
:100640009501750881010507190029FF150026FF8E
:10065000009506750881000508190129059505759D
:10066000019102950175039101C011241FBECFEFC6
:10067000DAE0DEBFCDBF04B603FE27C08091CB0217
:100680009091CC02A091CD02B091CE028730904BD8
:10069000A740B04BD1F41092CB021092CC02109232
:1006A000CD021092CE0214BE84B7877F84BF0FB6EE
:1006B000F894A89580916000886180936000109202
:1006C00060000FBEE0E0F8E3099511E0A0E0B1E0C2
:1006D000EAEFF9E402C005900D92A03AB107D9F70C
:1006E00022E0A0EAB1E001C01D92AB3CB207E1F705
:1006F0000E94391F0C94FB240C94000081E00895A3
:1007000081E008950C94800308950C9484031F9352
:10071000CF93DF9300D000D01F92CDB7DEB74983CF
:100720005A836B833091D70189819A81311114C02A
:10073000662359F0222349F00E94ED15182F682FE7
:1007400089819A810E94961503C00E94C115182FB5
:1007500069817A81812F04C00E94ED1569817A81B7
:100760000F900F900F900F900F90DF91CF911F91EE
:100770000C943904FC01262F4081518162817381E0
:1007800084810C948703CF93DF93EC0160E00E9497
:10079000BA03BE01DF91CF910C9485030E941F170D
:1007A000811102C00E94C6170C9458060C9454067E
:1007B00008950E94A2100E94D8032FEF84E39CE0CA
:1007C000215080409040E1F700C000000C94E518F3
:1007D0000F931F93CF93DF93EC0161E00E94BA0364
:1007E0008C01BE010E948203882349F1BE01C80129
:1007F0000E949108882319F1BE01C8010E94E308F4
:100800008823E9F0BE01C8010E940E0A8823B9F0CE
:100810008A81882369F001158CE5180731F00F3DB6
:100820001C4531F40E94C6170AC00E94D90307C0B4
:10083000CE01DF91CF911F910F910C947E0380E048
:10084000DF91CF911F910F91089508950C94250485
:1008500081E008950C942804CF93C82F0E942604A9
:100860008C2F0E942A04CF91089580E090E0089593
:1008700008952CE6829FC0011124FC0129E0729F9B
:10088000E00DF11D1124E60FF11DEE0FFF1FE450E6
:10089000FF4F859194910895880F991FFC01EC5C9E
:1008A000FA4F859194910895CF93DF930E94390474
:1008B0000E946C05EC018115904508F041C0C115FE
:1008C00080E4D80708F0D1C0C83ED10510F5C03E7D
:1008D000D10508F0FDC0C83AD10578F4C53AD10574
:1008E00008F0A2C0C130D10509F4F2C008F4EEC08E
:1008F000C430D10508F0ECC0E9C0CF3BD10508F405
:100900009BC0C03CD10508F4E1C0CE01805C9109D8
:100910009EC0C11590E2D90758F4C11521E0D20755
:1009200008F0D6C0C03FD10508F4D0C0D065D0C013
:10093000C11580E3D80708F08EC0CE019F7087C034
:10094000C11595E5D90708F043C0C11524E5D207C4
:1009500008F0A2C0C11582E5D80708F5C11591E5D8
:10096000D90708F085C0CE0174E0969587957A95F1
:10097000E1F783709C2F937021E030E002C0220FDA
:10098000331F9A95E2F73C68382BCF70C695C69511
:1009900080E2C89FE0011124C22BD32B99C09E0195
:1009A000237033278C2F86958695C115D34508F083
:1009B00064C0C1E0D0E002C0CC0FDD1F2A95E2F791
:1009C00020E2829FC0011124C82BD92BDC6880C093
:1009D000C11529E5D207A0F4C11588E5D80708F0AC
:1009E00060C0C11596E5D90708F070C08C2F0E9431
:1009F00000068F71C82FD0E0DC2FCC27D06268C0F2
:100A0000C1152AE5D20708F451C0CE0190568115D0
:100A1000904208F05BC08D2F8F710E940006DD2789
:100A2000D0628F71D82B54C0C55AD0E0C45BDE4F62
:100A3000C881D0E0D0644CC0C85AD0E0CC0FDD1FD4
:100A4000C25EDE4F0990D881C02DD46441C00E949F
:100A50004C04EC013DC0CE019927D3FF03C0EC014B
:100A6000D86C36C0EC01D06C33C0DF70D06A30C0B7
:100A7000DC2FCC27C16FD06A2BC0C1E0D0E002C010
:100A8000CC0FDD1F2A95E2F720E2829FC0011124DE
:100A9000C82BD92BDA681CC0DC2FCC27C46FD06AD6
:100AA00017C0DC2FCC27C06FD06A12C08C2F8F707C
:100AB0000E94000694E0D695C7959A95E1F7CF700D
:100AC000D0E0DC2FCC27D069C82B02C0C0E0D0E03A
:100AD000CE01DF91CF9108958238910569F1B0F48C
:100AE0008133910509F46DC048F48932910509F408
:100AF00063C08A32910509F469C008958533910570
:100B000009F455C089339105B9F00895833E9105E4
:100B100069F138F4803E9105B1F0823E910509F10A
:100B20000895863E9105A9F1873E9105B9F1843E6D
:100B3000910509F064C023C02091BC0220FD4FC084
:100B400021FD4DC008958091BC0280FD44C080917C
:100B5000BD0280FF44C08091BC0284FD42C083EE90
:100B60004DC08091BC0282FF38C0F5CF8091BC029D
:100B700082FD33C08091BD0280FD31C0ECCF8091F9
:100B8000BD0281FF32C08091BC0284FD2AC087EE85
:100B900035C08091BC0283FF26C0F5CF8091BC0296
:100BA00083FD21C08091BD0281FD1FC0ECCF8091EB
:100BB000BC0285FD1CC01DC08091BC0285FD19C012
:100BC00016C08091BC0286FD16C017C08091BC0281
:100BD00086FD13C010C089E311C082EE0FC080EE05
:100BE0000DC080E00BC086EE09C084EE07C089E22C
:100BF00005C085E303C08AE201C081E390E0089567
:100C00009091BC0292FF0DC0282F2871283019F452
:100C1000877F846006C0282F2471243011F48B7FD5
:100C2000886093FF0DC0282F2871283119F4877E22
:100C3000846106C0282F2471243111F48B7E8861D1
:100C40002091BD0220FF0DC0382F3871383019F4C3
:100C5000877F816006C0382F3171313011F48E7F6B
:100C6000886021FF0DC0282F2871283119F4877E54
:100C7000816106C0282F2171213111F48E7E886197
:100C800094FD877E0895E82FF0E0EE0FFF1FE256F7
:100C9000FD4F808191810895089580EA8A95F1F74A
:100CA000089508950C9451060C9452060C94510624
:100CB0000C945606F894E82FE295EF70F0E031A11D
:100CC000282F2F7081E090E001C0880F2A95EAF765
:100CD000982F9095932391A392A1892B82A3789426
:100CE00008950895CF93DF930E94CF07809100016C
:100CF00080910001811102C096E001C090E09093C4
:100D0000B70286E0891B8093B602C8E5D1E08991DD
:100D10000E945A0681E0CE35D807C9F7CFE4D1E06A
:100D200089910E945A0681E0C835D807C9F7E6E8DC
:100D3000F2E0AEE9B2E08EE992E0119211921D92DA
:100D40001D928E179F07C9F786E00E9475070E94C3
:100D5000CE03DF91CF910C94D9070E94B00788236E
:100D600051F18091B60290E0880F991F82569D4FF5
:100D70000E94EC0781111BC08091A0018F5F8093BE
:100D8000A0018630B0F08091B60290E0880F991FE4
:100D900020E030E0F901E80FF91FE256FD4F118223
:100DA00010822E5F3F4F2C303105A1F702C0109208
:100DB000A0010C94D6038091B70290E0880F991F90
:100DC00082569D4F0E940B080C9471067F928F9261
:100DD0009F92AF92BF92CF92DF92EF92FF920F93CA
:100DE0001F93CF93DF9308E511E0C6E8D2E092E9C4
:100DF000C92E92E0D92E712CEE24E394F12C5801E7
:100E0000F8018081F894E82FE295EF70F0E021A1DD
:100E10008F70A70102C0440F551F8A95E2F7CA01DF
:100E2000922F982B91A392A18095892382A37894E5
:100E30000E944D06EFE4F1E020E030E0812C912C9F
:100E40004191A42FA295AF70B0E090968C9190E064
:100E50004F7002C0959587954A95E2F780FD08C0CE
:100E6000C701022E02C0880F991F0A94E2F702C040
:100E700080E090E0882A992A2F5F3F4F2930310582
:100E8000F9F60F5F1F4FF50180810E945A06888195
:100E900099818816990621F09982888281E001C0A3
:100EA00080E0782A2296CC16DD0609F0A8CF609162
:100EB000B70270E0660F771F62567D4F272D46E020
:100EC00086E892E00E9476070E94AD06872DDF91AA
:100ED000CF911F910F91FF90EF90DF90CF90BF9037
:100EE000AF909F908F907F9008950895FF920F93F9
:100EF0001F93CF93DF93F82E092F162FD72FC42FD0
:100F0000222349F081E08093A3010E94A4189093CA
:100F1000A2018093A1018091A3018823D9F080913F
:100F2000A1019091A2010E94B018069798F0EF2DB0
:100F3000F02FA12FBD2F80E090E04C2F50E08417C0
:100F4000950734F4219131912D933D930196F7CF7C
:100F50001092A301DF91CF911F910F91FF900895FF
:100F60008091A401811112C08091D800806180938A
:100F7000D8008AE18A95F1F700C08091D90080FD00
:100F800002C082E001C081E08093A40181E09091E1
:100F9000A401913009F080E008950C94B0070E94FC
:100FA000CD07809300010E94B00781110C94E007E7
:100FB00008950E94B007811102C00C94E6070895BD
:100FC00061E070E081E091E00C949A0A61E070E0E9
:100FD00081E091E00C94A10ACF93DF93D82FC92F21
:100FE0000E94390B892B99F4ED2FFC2F80E090E0C3
:100FF000DC01AA0FBB1FAA55BE4F2D913C91219336
:10100000319301968630910599F781E001C080E027
:10101000DF91CF91089520E030E0FC0141915191A2
:10102000CF01F901EE0FFF1FEA55FE4F51834083B8
:101030002F5F3F4F2630310581F708950F931F939F
:10104000CF93DF93C42FD22FFC0182818823C9F074
:101050004093B4010E94A4189093B3018093B2010D
:1010600080E28C0F883008F057C0C77081E001C063
:10107000880FCA95EAF7DF91CF911F910F910C94D9
:10108000120E8091B401481330C08091B20190914A
:10109000B3010E94B018883C910538F510E21D0F8D
:1010A000CD17B9F080E28C0F883040F4C77081E032
:1010B00001C0880FCA95EAF70E94190E183028F56A
:1010C00081E09D2F977001C0880F9A95EAF70E94E2
:1010D000120E802F0E94FF0D1830F0F4D77081E0BF
:1010E00001C0880FDA95EAF70AC080E28C0F8830D9
:1010F00098F4C77081E001C0880FCA95EAF7DF91C4
:10110000CF911F910F910C94190E802FDF91CF91E9
:101110001F910F910C94FF0DDF91CF911F910F91B3
:1011200008950F939C01CB01243F4CE5340731F126
:1011300088F4293DFCE53F07D9F02A3D4CE534070A
:1011400079F1283D3C45A9F506E221EE41EE68ED36
:101150007CE52BC0263FFCE53F07E1F0A8F0273FE8
:101160003C4539F507E225EE46EE67EF7CE51DC00C
:1011700007E225EE45EE69ED7CE517C006E221EEBB
:1011800040EE64EF7CE511C007E225EE44EE65EF2A
:101190007CE50BC006E221EE42EE66EF7CE505C081
:1011A00008E221E045EE6AED7CE50E941E0880E041
:1011B00008C0FC018281882319F01092B40101C09B
:1011C00081E00F910895CF93DF93EC01FB018281C1
:1011D000882309F41FC1C230FCE5DF0708F41BC1F6
:1011E000C6319CE5D90738F09E012B5F3C4529307C
:1011F000310508F010C10E9432179093BD02809310
:10120000BC02C031ECE5DE0709F4C3C008F041C000
:10121000C8308CE5D80709F49AC0F0F4C430ECE586
:10122000DE0709F487C068F4C2308CE5D80709F4FA
:1012300077C0C330DC4509F0E3C08091BC02826016
:1012400076C0C630ECE5DE0709F46EC008F07BC05E
:101250008091BC0288606BC0CC308CE5D80709F463
:1012600085C068F4CA30ECE5DE0709F474C008F004
:1012700079C00E94A2108091BC02806858C0CE3014
:101280008CE5D80709F476C008F07FC08091BC02D5
:101290008BC0CC3FECE5DE0709F44FC018F5C33135
:1012A0008CE5D80709F47DC078F4C131ECE5DE07A0
:1012B00009F473C0C231DC4509F0A2C00E94A2103B
:1012C0008091BC028F7733C0C5318CE5D80709F413
:1012D00072C008F486C0CB3FDC4509F091C0809114
:1012E000BD023EC0C115FDE5DF0709F45FC058F43B
:1012F000CE3F9CE5D90709F444C008F43FC0809173
:10130000BD0282602DC0C230FDE5DF0709F475C063
:1013100008F45DC0C330DD4509F072C080E06EC0E6
:101320008091BC02816003C08091BC028061809387
:10133000BC0266C08091BC0211C08091BD02826077
:101340008093BD025DC08091BC028062F0CF80912D
:10135000BC028064ECCF8091BC0288608460E7CFDF
:101360008160EECF8091BC028E7FE1CF8091BC0284
:101370008D7FDDCF8091BC02877FD9CF8091BD0268
:1013800018C08091BD028D7FDBCF8091BC028F7E23
:10139000CECF8091BC028F7DCACF8091BC028F7B63
:1013A000C6CF8091BC02877F8B7FC1CF8091BD0269
:1013B0008D7F8E7FC5CF8091BC0282FB222720F9D2
:1013C00091E0922790FB82F990FB83F9B0CF809156
:1013D000BD02982F909591708E7F892B90FB81F99B
:1013E000AFCF0E94A2108091BC0287FB222720F978
:1013F00091E0922790FB87F99ACF81E00E94C8176D
:101400008091BC029091BD020E9443170E94A210DD
:1014100080E001C081E0DF91CF910895CF93DF9309
:1014200086319C4541F5EB010E946E16982F8A810A
:101430002091090130910A01882379F09A7A81E09C
:1014400009F480E08093B501911102C069E201C006
:1014500065E3C9010E940F180AC08091B50181118E
:1014600002C069E201C065E3C9010E9411180E942F
:10147000BC1680E001C081E0DF91CF9108958EE13C
:10148000489B02C08150E1F7489BFECF08955898D1
:1014900080E28A95F1F7589A0895FC012AE02A958E
:1014A000F1F728E090E080E031E040E14A95F1F783
:1014B000880F489B02C08160932700C0000040E174
:1014C0004A95F1F7215089F720E12A95F1F729B1E2
:1014D00000C0000030E13A95F1F721709227208199
:1014E000920F90830895EF92FF920F931F93CF93E3
:1014F000DF931F92CDB7DEB719828C017C01E60E17
:10150000F11C0E151F0551F00E943F0ACE010196F5
:101510000E944D0AF80181938F01F3CF81E09981F8
:10152000911180E00F90DF91CF911F910F91FF906B
:10153000EF9008959093B7018093B601509A589A0E
:1015400008959093B7018093B6015098589AE89AFD
:10155000E9E6F0E080818C7F80830895615091E01E
:1015600001C0990F6A95EAF720E031E0992361F014
:10157000492F482319F0589A232701C0589840E270
:101580004A95F1F79695F2CF222311F0589A01C0AF
:10159000589880E28A95F1F758980895FF920F9332
:1015A0001F93CF93DF93EC018C01060F111DC01721
:1015B000D10741F0F9900E94470A68E08F2D0E9400
:1015C000AE0AF5CFDF91CF911F910F91FF90089553
:1015D0001F920F920FB60F9211242F933F934F93A8
:1015E0005F936F937F938F939F93AF93BF93CF93AB
:1015F000DF93EF93FF935898509AC091B601D09122
:10160000B7016D81662321F08E819F810E94CE0AF1
:101610000E94470A80E18A95F1F758985098589AA5
:1016200080E18A95F1F76A81662351F08B819C8174
:101630000E94730AE881F981811104C082E003C02D
:10164000E881F98188E080830E943F0AFF91EF9151
:10165000DF91CF91BF91AF919F918F917F916F91CA
:101660005F914F913F912F910F900FBE0F901F9060
:101670001895CF93DF93C091B601D091B701F8943C
:10168000509A589885E08A95F1F700005098589A3A
:1016900080E28A95F1F7489B0AC0509A589AE881EF
:1016A000F98181E08083789481E090E02CC06D81A5
:1016B000662381F08E819F810E94730A81110AC086
:1016C000509A589AE881F98182E08083789482E088
:1016D00090E019C00E943F0A80E28A95F1F758987D
:1016E000509A80E18A95F1F76A81662321F08B8117
:1016F0009C810E94CE0A0E94470AE881F9811082EB
:10170000789480E090E0DF91CF9108959093BD01AF
:101710008093BC010895E091BC01F091BD01309728
:1017200021F00190F081E02D099480E00895E0918E
:10173000BC01F091BD01309721F00280F381E02DD2
:1017400009940895E091BC01F091BD01309739F002
:1017500022E0DC012C930480F581E02D09940895AA
:101760002091BA013091BB012817390771F090938D
:10177000BB018093BA01E091BC01F091BD013097AB
:1017800021F00680F781E02D099408952091B80199
:101790003091B9012817390771F09093B9018093FE
:1017A000B801E091BC01F091BD01309721F00084B7
:1017B000F185E02D0994089585B7806885BF85B7C8
:1017C000806885BF08950C94B00708950C94E50BCC
:1017D0000C94E50B0C94E80B0C94E50B0C94EC0BBF
:1017E0000C94E50B0E94DC0B0E94F00B0C94EE0BAA
:1017F0000E949B180E9472060E94F6180C94EA0B35
:101800007F928F929F92AF92BF92CF92DF92EF9290
:10181000FF920F931F93CF93DF93CDB7DEB72A9735
:101820000FB6F894DEBF0FBECDBF0E94E60B0E943C
:10183000E50B0E94E6060E94E30B811111C08FEFB9
:1018400089838A831B820E94A4188160782F9D83DC
:101850008C8349815A816B818D810E94B40C4FC069
:101860004FEBA42E41E0B42E00E010E0702E802F4C
:101870000E9443066C01F501819091905F018826DA
:1018800099268114910431F40F5F1F4F0C3011051C
:1018900069F7D5CF80916B0281FD0E944C0680E0F4
:1018A000EE24E394F12C94012E213F21232B09F106
:1018B0008E837F82CE20DF2081E0CD2809F480E076
:1018C00088870E94A4188160782F9A8789874E8123
:1018D0005F8168858A850E94B40C000F111FF80192
:1018E000E154FE4F80819181E826F926F182E08261
:1018F00006C08F5FEE0CFF1C8930A9F6C5CF0E9491
:10190000A51A0E948B0B9091BE018917C9F00E9405
:101910008B0B8093BE012A960FB6F894DEBF0FBEE4
:10192000CDBFDF91CF911F910F91FF90EF90DF908E
:10193000CF90BF90AF909F908F907F900C942C048D
:101940002A960FB6F894DEBF0FBECDBFDF91CF91C0
:101950001F910F91FF90EF90DF90CF90BF90AF90CD
:101960009F908F907F900895CF93DF93CDB7DEB790
:101970002B970FB6F894DEBF0FBECDBF4F835887AD
:1019800069877A878B87DE01119686E0FD011192C7
:101990008A95E9F785E0FE01379601900D928A95C8
:1019A000E1F749815A816B817C818D819E810E9402
:1019B0005B132B960FB6F894DEBF0FBECDBFDF9141
:1019C000CF910895FC01808191810E942F16089586
:1019D000CF93882309F4A9C0C82F8238C1F40E948C
:1019E0008B0B81FDA2C069E38091090190910A01EE
:1019F0000E940F180E94BC162FEF81EE94E0215038
:101A000080409040E1F700C0000069E319C08338CE
:101A100001F50E948B0B80FD88C063E58091090170
:101A200090910A010E940F180E94BC162FEF81EEC0
:101A300094E0215080409040E1F700C0000063E551
:101A40008091090190910A010E941118CF910C9484
:101A5000BC168438C1F40E948B0B82FD66C067E41B
:101A60008091090190910A010E940F180E94BC16F2
:101A70002FEF81EE94E0215080409040E1F700C0CC
:101A8000000067E4DDCF8CEF8C0F813AF8F48C2FE7
:101A90000E94431D811149C06C2F809109019091D2
:101AA0000A010E94D917882349F06C2F80910901FF
:101AB00090910A010E9411180E94BC166C2F80910F
:101AC000090190910A010E940F18C0CF80E28C0F8B
:101AD000883048F4C77081E001C0880FCA95EAF7E2
:101AE0000E947116B3CFEBE5EC0FE33040F4F0E069
:101AF000EE56FE4F808190E0CF910C94B00BE8E55C
:101B0000EC0FE73150F4F0E0EE0FFF1FEC59FE4F01
:101B100080819181CF910C94C60BC03F30F08C2F07
:101B20000E949A19CF910C94871ACF910895882317
:101B300009F464C0823879F40E948B0B81FF5EC087
:101B400069E38091090190910A010E940F180E9497
:101B5000BC1669E310C08338B1F40E948B0B80FF80
:101B60004DC063E58091090190910A010E940F1810
:101B70000E94BC1663E58091090190910A010E94C0
:101B800011180C94BC16843879F40E948B0B82FFD8
:101B900035C067E48091090190910A010E940F18F5
:101BA0000E94BC1667E4E7CF9CEF980F913A10F4BF
:101BB000682FE1CF90E2980F983050F4877091E051
:101BC00001C0990F8A95EAF7892F0E947716D9CF1D
:101BD0009BE5980F933020F480E090E00C94B00BDC
:101BE00098E5980F973120F480E090E00C94C60BB4
:101BF000803F20F00E94021A0C94871A0895CF9318
:101C0000C82F0E94E80CC93349F42FEF87EE93E008
:101C1000215080409040E1F700C000008C2FCF9110
:101C20000C94970D882321F00E9471160C94BC1619
:101C30000895882321F00E9477160C94BC1608950D
:101C4000CF92DF92EF92FF920F931F93CF93DF9388
:101C50007C01062FC72FFC01158112951F70D281C0
:101C6000D1110E948E160E946716882399F0DD23F9
:101C700089F08C2F807F803421F080E2800F8830C3
:101C800048F082E00E9406170E94671691E0D82E65
:101C9000D92601C0D12CCC2EC2948FE0C8228C2D25
:101CA00090E0FC01EA5AFF4F0C949F248C2F807F18
:101CB000CF70882311F0C295C07FDD2399F0CC232B
:101CC00009F48DC180E2800F883010F0011104C04A
:101CD0008C2F0E94711603C08C2F0E9481160E94C7
:101CE000BC167DC1802F0E94970DCC2309F49CC1A6
:101CF00080E2800F883010F0011104C08C2F0E9408
:101D0000771603C08C2F0E9487160E94BC168CC1C8
:101D10008C2F807FCF70803211F0C295C07F00235E
:101D200019F00130C9F022C0DD2371F0112341F018
:101D3000113031F40E94A1168C2B0E94A91674C197
:101D40000E94A1168C2B1DC0112319F0113009F42B
:101D50006BC10E94B21625C0DD2321F0163008F0B9
:101D600063C10EC0153008F05FC11BC0DD2361F0F8
:101D7000112331F0F701858180FF31C18F70858398
:101D80008C2F0E94120E50C1112359F0093309F013
:101D900037C1FFEF27EE83E0F15020408040E1F7AC
:101DA0002DC18C2F0E94190E3FC18C2F86958695D0
:101DB000837019F0813061F037C1DD2321F0802F6D
:101DC0009C2F937002C080E090E00E94B00B34C161
:101DD000DD2321F0802F9C2F937002C080E090E0E3
:101DE0000E94C60B29C1802FDD2319F00E949A1989
:101DF00002C00E94021A0E94871A1EC18C2F837093
:101E000009F045C0D11114C1402F42954695477045
:101E1000440F440F602F6F70862F90E0A0E0B0E079
:101E2000042E04C0880F991FAA1FBB1F0A94D2F763
:101E300004FF10C00FE010E020E030E004C0000F0D
:101E4000111F221F331F4A95D2F700951095209538
:101E5000309503C000E010E09801C695C695C370A8
:101E6000BC01CD01602B712B822B932BC23049F02A
:101E700058F4C13019F00E94AC14DAC00E949A14D0
:101E8000D7C00E94BE14D4C00E949814D1C0DD23D4
:101E900019F08C2F817001C08695882309F4C8C081
:101EA000402F429546954770440F440F602F6F7046
:101EB000862F90E0A0E0B0E0042E04C0880F991FA8
:101EC000AA1FBB1F0A94D2F704FF10C00FE010E056
:101ED00020E030E004C0000F111F221F331F4A957D
:101EE000D2F7009510952095309503C000E010E0E2
:101EF0009801C695C695C370BC01CD01602B712BAE
:101F0000822B932BC23049F058F4C13019F00E9453
:101F100071158EC00E945F158BC00E94831588C00A
:101F20000E94D21485C0CF70DD2339F08C2F0E941F
:101F3000F814802F0E94120E7BC0802F0E94190E71
:101F40008C2F0E94191574C0023F01F128F4003F44
:101F500041F0013FA1F03FC0033FF9F0043F39F1E8
:101F60003AC0DD2341F0153008F05EC08C2F8F7130
:101F70000E943E1559C0163008F056C0F7CFDD2339
:101F800039F08C2F8F710E94F8144EC0DD23C9F3F5
:101F90008C2F8F710E94191547C0DD2329F08C2FDB
:101FA0008F710E94E31440C00E94DE143DC0DD2307
:101FB00049F0CF718C2F0E94F81463E08C2F0E949F
:101FC000F11632C081E00E940617123068F182E0FB
:101FD0000E94061729C0DD2331F0112391F2802FD2
:101FE0000E94E80C21C0112399F2093349F49FEFB4
:101FF000E7EEF3E09150E040F040E1F700C0000070
:10200000802F0E94970D10C04C2F4F70602FC7017A
:102010000E9435040E9409140FC04C2F4F70602F8E
:10202000C7010E94380408C088EF8C0D843020F46A
:102030000E948B0B0E942C04DD20C9F00E946316C5
:1020400080FD15C0F70112820E945D160E94F814EF
:10205000C7010E9458100E945D16DF91CF911F9119
:102060000F91FF90EF90DF90CF900C941915DF91B6
:10207000CF911F910F91FF90EF90DF90CF90089537
:102080000F931F93CF93DF93EC01688179818A814D
:102090000E943A168C010E9495150E948614B80180
:1020A000CE010E94200EDF91CF911F910F910895D4
:1020B000CF93DF93EC01988189812B813C81232B85
:1020C00031F08F3F31F481E09F3F19F403C081E08C
:1020D00001C080E080FD19C0CE010E94E80381119B
:1020E0000CC00E946716882381F08A81882369F0DA
:1020F00082E0DF91CF910C940617CE010E94401030
:10210000CE01DF91CF910C94C303DF91CF9108955D
:102110000E948E160E949E160E94BC160E94B81B3A
:102120000E94871A80E090E00E94B00B80E090E06F
:102130000C94C60B8091090190910A010E9413181A
:102140000C9488100E947E160C949A10E92FE29548
:10215000EF704E2F50E0FA013297EE30F105B0F4F7
:10216000EA59FF4F0C949F24803F91F018F4883E69
:1021700068F40EC0843F51F40BC0883E48F0813FA4
:1021800029F406C093FB882780F9089580E008951C
:1021900081E008950E942F160E94A6100895CF9303
:1021A000DF9300D000D01F92CDB7DEB70F900F9015
:1021B0000F900F900F90DF91CF910895CF93DF9301
:1021C00000D000D000D0CDB7DEB726960FB6F89479
:1021D000DEBF0FBECDBFDF91CF9108951F93CF9388
:1021E000DF93C091D80116E08091D901C81799F00A
:1021F000D0E01C9FF0011D9FF00D1124E652FE4F10
:102200004081518162817381848195810E94DE10B9
:102210002196C770E9CFDF91CF911F91089540912A
:102220000A0250910B0260910C0270910D02809194
:102230000E0290910F020C94DE100F931F93CF9318
:10224000DF9380910F0282958F7009F05DC08091BD
:102250000C02882309F458C08091D8011091D9014B
:1022600060910A0270910B02C0910D02D0910E0292
:1022700091E06F3F09F090E0292F06E0811709F403
:1022800043C0209721F07F3F21F030E003C031E0D0
:1022900001C0322F90E030FD34C0089FF001099F4B
:1022A000F00D1124DF01A652BE4F11963C911197FB
:1022B000371327C03C91361324C012963C911297D5
:1022C00031111FC013964D915C9114974C1B5D0BFF
:1022D000483C5105B0F480910F028F70806180936B
:1022E0000F02E152FE4F80818F70806180838AE00F
:1022F00092E00E945810DF91CF911F910F910C94A2
:10230000EE1001968770BACFDF91CF911F910F9198
:1023100008959F92AF92BF92CF92DF92EF92FF9279
:102320000F931F93CF93DF93CDB7DEB761970FB6AF
:10233000F894DEBF0FBECDBF8C0185E0F801DE0151
:102340001D9601900D928A95E1F7F8014081518127
:10235000E28090910A0260910B0220910D0230916F
:102360000E022115310531F06F3F31F481E09F3FBE
:1023700019F403C081E001C080E0F82FF1709F2EB6
:1023800080FD46C1F801A380B4808AE0C82E82E0B7
:10239000D82EF0900C02F501E21BF30BFF2009F49C
:1023A000DFC080910F02E83CF10508F09BC0282FA8
:1023B000207F09F052C0561313C0491311C0FE2CE0
:1023C000E1100EC08F70806180930F020E940F1188
:1023D000C6010E94581080910F02F801858358C1F0
:1023E000AB2831F05F3F31F481E04F3F19F403C077
:1023F00081E001C080E080FD03C081E08E2502C045
:1024000080E090E0F82FF170FF2E80FF1CC08091DB
:10241000D8012091D90136E0821709F417C190E064
:10242000389FF001399FF00D1124E652FE4F618173
:10243000561306C06081461303C06281E61203C0D2
:1024400001968770E9CFFE2CEE2009F421C180911E
:102450000F02816080930F025AC0561306C04913C1
:1024600004C0E11002C0F8019FC04D875E878D85D2
:102470009E850E94CA10882379F1EE2069F120918F
:102480000F02822F82958F7090E0029774F08091F6
:102490000A0290910B0298878F831986BB86AA86C1
:1024A0002C87CE0107960E94581086E0F801AAE01A
:1024B000B2E001900D928A95E1F70E941D110E94F1
:1024C0000F110DC0561729F14D875E878D859E85AA
:1024D0000E94CA1081112CC0C8010E945810FF240C
:1024E000F394D6C0282F207F69F77A2DB98AA88A5D
:1024F0006E2D89890E94CF108AE092E00E945810C8
:1025000086E0F60111928A95E9F70E940F11F12CED
:10251000BFC04913D9CFE110D7CFF8018583C801D7
:102520000E94581086E0F60111928A95E9F7B0C032
:10253000EE2091F220910F02822F82958F7090E011
:1025400002970CF4B2CF80910A0290910B029A8309
:1025500089831B82BD82AC822E83CE010196A3CFDC
:10256000E83CF10508F047C0FE2CEE2009F4B4CF9A
:10257000561330C049132EC020910F0220FD21C0F8
:10258000822F82958F70482F50E041155105C9F078
:10259000F80125834F30510541F08F5F982F9295B8
:1025A000907F822F8F70892B8583C8010E945810DD
:1025B00086E0F801AAE0B2E001900D928A95E1F779
:1025C00042C086E0F801AAE0B2E001900D928A953F
:1025D000E1F75EC04D875E878D859E850E94CA109B
:1025E000811163CF80910F02816080930F02C80137
:1025F0000E9458104DC07A2DB98AA88A6E2D8989FB
:102600000E94CF1086E0F60111928A95E9F71BC06F
:10261000EE2009F461CF4D875E878D859E850E94EF
:10262000CA10F82E882309F457CF86E0F801AAE0F3
:10263000B2E001900D928A95E1F78AE092E00E9463
:10264000E20C0E941D110E940F1122C04D875E876F
:102650008D859E850E942F16292F22952F7022305E
:1026600028F49F7039F0811105C00BC0243028F484
:102670009F7049F4805E883020F0C8010E94581095
:102680009F2CF92C05C0F8019581907F99F7F9CF1F
:102690008F2D61960FB6F894DEBF0FBECDBFDF91D0
:1026A000CF911F910F91FF90EF90DF90CF90BF904F
:1026B000AF909F9008951F93CF93DF93CDB7DEB770
:1026C0002C970FB6F894DEBF0FBECDBF4F8358874F
:1026D00069877A878B879C87CE0107960E9489112C
:1026E0008823D1F09F8188852A853B85232B31F073
:1026F0008F3F31F481E09F3F19F403C081E001C0B6
:1027000080E080FD47C04F81588569857A858B853B
:102710009C850E94DE103EC086E0FE013796DE01F9
:10272000119601900D928A95E1F7FF81E8856A85FF
:102730007B856115710531F0EF3F31F481E0FF3F9A
:1027400019F403C081E001C080E080FD23C0209126
:10275000D90130E0C9010196877099274091D801CD
:1027600050E084179507F1F1F983EA837D836C8348
:1027700096E0929FD001939FB00D1124A652BE4FB8
:10278000FE01319601900D929A95E1F78093D9015F
:102790000E94EE1016E08091D8019091D90189171E
:1027A00071F1189FC001112486529E4F0E94891119
:1027B000882329F1E091D8011E9FF0011124E652EF
:1027C000FE4F4081518162817381848195810E9495
:1027D000DE108091D80190E0019687709927809350
:1027E000D801D9CF0E94A2101092D9011092D8011D
:1027F000EAE0F2E086E0DF011D928A95E9F72C9687
:102800000FB6F894DEBF0FBECDBFDF91CF911F9101
:102810000895EF92FF920F931F93CF93DF938C0154
:10282000892B09F46CC0F12CEE24E394E801219685
:10283000F8018491843740F4843008F051C081302D
:1028400081F0823019F15BC0853709F444C0A8F1EA
:102850009CE7980F903708F052C08F770E94970D31
:1028600041C00E5F1F4FFE01849190E2980F983097
:1028700050F48770FE2D01C0FF0F8A95EAF78F2F65
:102880000E94911614C00E94E80C2DC00E5F1F4FCD
:10289000FE01849190E2980F983060F48770FE2DCD
:1028A00001C0FF0F8A95EAF78F2F0E9497160E94AA
:1028B000BC1619C00E94970D16C00E5F1F4FFE0177
:1028C000C491CC2381F08FE99FE00197F1F700C01C
:1028D0000000C150F6CF0E5F1F4FFE01F49003C001
:1028E0000E94E80C8E018F2D882309F49FCFEFE919
:1028F000FFE03197F1F700C000008150F5CFDF9184
:10290000CF911F910F91FF90EF9008950895089532
:102910000C9487140C9488140E948A1460935A02B1
:1029200070935B0280935C0290935D020C9488101C
:102930000C948C140F931F9300915A0210915B0218
:1029400020915C0230915D02602B712B822B932BC6
:102950001F910F910C948C140F931F9300915A02A6
:1029600010915B0220915C0230915D026023712323
:10297000822393231F910F910C948C140F931F9318
:1029800000915A0210915B0220915C0230915D022D
:1029900060277127822793271F910F910C948C1425
:1029A0000C9487140E94D0146093560270935702BF
:1029B00080935802909359020C94881060E070E064
:1029C000CB010C94D2140F931F9341E050E060E0D0
:1029D00070E08A019B0104C0000F111F221F331FEA
:1029E0008A95D2F7C901B8011F910F910C94D214A6
:1029F0000F931F9341E050E060E070E004C0440F8B
:102A0000551F661F771F8A95D2F7809156029091C5
:102A10005702A0915802B09159028A019B01082BDC
:102A2000192B2A2B3B2BC901B8011F910F910C9434
:102A3000D2140F931F9341E050E060E070E004C0B7
:102A4000440F551F661F771F8A95D2F74095509502
:102A5000609570958091560290915702A09158020E
:102A6000B09159028A019B01082319232A233B2391
:102A7000C901B8011F910F910C94D2140F931F93A9
:102A800041E050E060E070E004C0440F551F661F55
:102A9000771F8A95D2F78091560290915702A091A4
:102AA0005802B09159028A019B01082719272A2749
:102AB0003B27C901B8011F910F910C94D2140F93B9
:102AC0001F930091560210915702209158023091A5
:102AD0005902602B712B822B932B1F910F910C9419
:102AE000D2140F931F930091560210915702209118
:102AF00058023091590260237123822393231F913E
:102B00000F910C94D2140F931F93009156021091C1
:102B1000570220915802309159026027712782276D
:102B200093271F910F910C94D214089529E0929F3E
:102B3000800D1124E82FE695E695E695877051E023
:102B400001C0550F8A95EAF785E0E89FF00111244E
:102B5000E05FFD4F20E030E070E04081CB01022ECD
:102B600002C0969587950A94E2F781708195842733
:102B70008523842781932F5F3F4F2530310569F7E7
:102B8000089529E0929F800D1124682F669566951F
:102B90006695982F977085E0689FB001112440E0FA
:102BA00050E080E0FB01E40FF51FE05FFD4F208166
:102BB00030E0092E02C0369527950A94E2F721707D
:102BC0003327042E01C0220F0A94EAF7822B4F5FAD
:102BD0005F4F4530510531F70895BF92CF92DF9294
:102BE000EF92FF920F931F93CF93DF938C01C090CE
:102BF0005602D0905702E0905802F090590280910E
:102C00005A0290915B02A0915C02B0915D02C82AC9
:102C1000D92AEA2AFB2ACFE1D0E0D701C6010C2E3F
:102C200004C0B695A795979587950A94D2F780FD2D
:102C300004C0219790F7B12C07C0BC2EB8018C2F8F
:102C40000E9454040197A9F38B2DDF91CF911F911E
:102C50000F91FF90EF90DF90CF90BF900895CF93AA
:102C6000DF93EC010E94ED15BE010E945404DF9138
:102C7000CF9108951F93CF93DF93EB019091D701EC
:102C8000992321F0CB010E942F1613C0882349F00D
:102C9000CB010E94ED15182F682FCE010E949615CA
:102CA00004C0CB010E94C115182FBE01812F0E94C4
:102CB0005404DF91CF911F91089580915E02859514
:102CC00085958595089580915E028770089590910D
:102CD0005E02977081E009F480E0089580916A02B5
:102CE000089590916A02892B80936A0208958095D5
:102CF00090916A02892380936A02089510926A0271
:102D0000089590916902892B8093690208958095B6
:102D10009091690289238093690208951092690253
:102D2000089590916802892B809368020895809598
:102D30009091680289238093680208951092680236
:102D4000089580915F02089508950C94A4160C9440
:102D5000A51690915F02981721F080935F020C9462
:102D6000A716089580915F02882329F010925F02D0
:102D700080E00C94A7160895E0910901F0910A01F2
:102D800080916A028083E0910901F0910A019081AB
:102D900080916902892B8083E0910901F0910A01F9
:102DA000908180916802892B808380915F028823C3
:102DB00081F0E0910901F0910A019081892B8083D3
:102DC0008091090190910A010E94CD1781110E9402
:102DD000B2168091090190910A010C94970B0C9402
:102DE000A41698E0899F90011124262B20935E025F
:102DF0000E94F81480915E028595859585950C94C6
:102E0000EF1610925E0280E00C94EF1620915E02A5
:102E10008095822380935E02982F977079F430E03A
:102E2000482F082E000C550B2417350739F08595CF
:102E3000859585950E9419150C940117089580E0D9
:102E400090E00E94C12421E08C3E9E4F09F020E0DA
:102E5000822F089582E090E00C94B92483E090E002
:102E60000C94B924CF9384E090E00E94B924C82F39
:102E700081E290E00E94B9242C2F30E0A901582B68
:102E8000CA01CF910895CF93C92F682F84E090E0B5
:102E90000E94C7246C2F81E290E0CF910C94C7244C
:102EA000AB01BC018FE090E00C94D924AB01BC01D4
:102EB00083E190E00C94D92460E070E0CB010C94A5
:102EC000561760E070E0CB010E9450170C945C171D
:102ED0006CEE7EEF80E090E00E94E52460E082E00E
:102EE00090E00E94C72460E083E090E00E94C72445
:102EF00010925A0210925B0210925C0210925D02D4
:102F000060E084E090E00E94C72460E081E290E00D
:102F10000E94C72460E085E090E00E94C72460E042
:102F200086E090E00E94C7246FEF87E090E00E9467
:102F3000C72440E050E0BA0188E090E00E94D92424
:102F400060E08DE090E00E94C72440E050E0BA01CC
:102F500088E190E00E94D92460E087E190E00E943F
:102F6000C72440E050E0BA018CE190E00E94D924EF
:102F700060E080E290E00E94C72440E050E0BA01A7
:102F800088E190E00E94D9240C9461170C94681792
:102F9000682F8EE090E00C94C724FC01329697E0F5
:102FA00080E0915029F021912223D9F38F5FF9CF4E
:102FB0000895662349F0FC01329608962191621724
:102FC00029F0E817F907D1F780E0089581E0089526
:102FD0009C01FC0132969FEF80E04191461789F0F9
:102FE0009F3F19F4411101C0982F8F5F8630A9F7D8
:102FF0009F3F39F0F901E90FF11D97FDFA956283C2
:10300000089508959C012A5F3F4FFC0142814613B9
:1030100001C01282019682179307B9F708950C94A4
:10302000E8170C940218029626E0FC0111922A95EA
:10303000E9F7089508950C941A180C941A18CF9370
:103040000E941D180E94E6060E941B18C0E08C2FEB
:103050000E944306892B29F4CF5FCC30C1F780E072
:1030600001C081E0CF9108950C941A180C94341883
:103070000E9436188091C202843049F110926C028D
:1030800020E488E190E00FB6F894A8958093600062
:103090000FBE2093600080E00E942C040E9436182E
:1030A00083B7817F846083BF83B7816083BF789457
:1030B000889583B78E7F83BF0FB6F894A8958091CB
:1030C0006000886180936000109260000FBE0895D8
:1030D0000C941A180E94A2100E948B0B0E942C04C0
:1030E0000C9468181F920F920FB60F9211248F93B1
:1030F0009F93AF93BF9380916C02811113C0809115
:10310000B8029091B902A091BA02B091BB02419667
:10311000A11DB11D8093B8029093B902A093BA0289
:10312000B093BB02BF91AF919F918F910F900FBE53
:103130000F901F90189582E084BD93E095BD9AEFA3
:1031400097BD80936E0008952FB7F8948091B802D0
:103150009091B902A091BA02B091BB022FBF08951D
:103160009C014FB7F8948091B8029091B902A09158
:10317000BA02B091BB024FBF821B930B08957894A3
:103180001F920F920FB60F9211248F939F93AF93BC
:10319000BF938091B8029091B902A091BA02B09108
:1031A000BB020196A11DB11D8093B8029093B90294
:1031B000A093BA02B093BB02BF91AF919F918F9140
:1031C0000F900FBE0F901F90189587E797E7909389
:1031D0000108809300089AE088E10FB6F894A8955A
:1031E000809360000FBE90936000FFCF0E941F1776
:1031F000811102C00E94C6170E942A1780936B0299
:103200000E9432179093BD028093BC020E942E1739
:10321000682F70E080E090E00E9498146091560260
:103220007091570280915802909159020C94D014D9
:103230008091730280FF0BC06091100185E0689F50
:10324000B001112475956795759567952BC081FF21
:1032500009C06091100185E0689FB0011124759547
:10326000679520C082FF07C06091100185E0689FCC
:10327000B001112417C0909172029923D1F060918E
:103280000F01961788F72091100185E0289F900183
:103290001124929FA001939F500D112470E0CA0148
:1032A0000E948B246038710540F46115710519F492
:1032B00006C065E070E0862F08958FE7089581E0ED
:1032C00008958091730280FF08C060910C0170E046
:1032D000759567957595679521C081FF06C06091CA
:1032E0000C0170E07595679519C082FF04C060916C
:1032F0000C0170E010C090917102992399F06091D7
:103300000B019617A0F780910C01899FC001112431
:1033100070E00E948B246038710540F461157105DE
:1033200019F406C061E070E0862F08958FE70895D4
:1033300081E00895803F21F40E941819819504C00E
:10334000813F29F40E941819809377020895823FE3
:1033500021F40E941819819504C0833F29F40E942A
:103360001819809376020895893F19F40E94611913
:1033700005C08A3F31F40E946119819580937802DB
:1033800008958B3F21F40E946119819504C08C3F00
:1033900029F40E946119809379020895843F21F4F1
:1033A00080917502816017C0853F21F4809175027C
:1033B000826011C0863F21F48091750284600BC049
:1033C000873F21F480917502886005C0883F31F401
:1033D0008091750280618093750208958D3F21F47C
:1033E0008091730281600BC08E3F21F48091730243
:1033F000826005C08F3F29F48091730284608093BE
:1034000073020895803F39F48091770287FF6AC084
:103410001092770267C0813F29F4809177021816D5
:10342000BCF360C090917602823F29F497FF5AC0A6
:103430001092760257C0833F19F41916CCF352C08C
:1034400090917802893F31F419160CF04BC010921C
:10345000780248C08A3F19F497FF44C0F8CF8B3FE9
:1034600039F48091790287FF3DC0109279023AC009
:103470008C3F29F4809179021816BCF333C0843F45
:1034800021F4809175028E7F17C0853F21F48091D1
:1034900075028D7F11C0863F21F4809175028B7F6C
:1034A0000BC0873F21F480917502877F05C0883F5C
:1034B00031F4809175028F7E8093750213C08D3F29
:1034C00021F4809173028E7F0BC08E3F21F4809196
:1034D00073028D7F05C08F3F29F4809173028B7F2B
:1034E0008093730280917602811106C080917702E9
:1034F000811102C01092720280917802811106C07F
:1035000080917902811102C01092710208950E9487
:10351000A41820917602211104C020917702222361
:1035200021F09093700280936F0220917802211114
:1035300004C020917902222321F090936E0280939F
:103540006D0284E792E00C94A20BEF92FF920F932E
:103550001F93CF93DF9300D000D000D0CDB7DEB75C
:1035600086E0E4E7F2E0DE01119601900D928A9583
:10357000E1F7E0907602F0907702009178021091E6
:1035800079021092760210927702109278021092CD
:103590007902E11003C0FF2009F45DC080916F0241
:1035A000909170020E94B018AC0190917202992320
:1035B00039F02091110130E02417350758F04BC045
:1035C000209112018AE0289F9001112424173507C9
:1035D00018F041C09F3F19F09F5F90937202EE2058
:1035E00061F00E9418191E1414F09FEF01C091E0C1
:1035F000989F902D112490937602FF2061F00E94F5
:1036000018191F1414F09FEF01C091E0989F902D9E
:10361000112490937702309176023323E1F02091C8
:1036200077022223C1F045EB3403C0011124992312
:1036300019F09093760203C081E08093760235EB17
:103640002303C0011124992319F09093770203C03A
:1036500081E080937702011103C0112309F45DC05A
:1036600080916D0290916E020E94B018AC01909111
:103670007102992339F020910D0130E024173507AC
:1036800058F04BC020910E018AE0289F9001112430
:103690002417350718F041C09F3F19F09F5F9093A2
:1036A0007102002361F00E946119101614F09FEF5F
:1036B00001C091E0989F902D1124909378021123DE
:1036C00061F00E946119111614F09FEF01C091E0A2
:1036D000989F902D11249093790230917802332392
:1036E000E1F0209179022223C1F045EB3403C001BF
:1036F0001124992319F09093780203C081E08093FC
:10370000780235EB2303C0011124992319F090931B
:10371000790203C081E08093790280917602811161
:103720000BC080917702811107C0809178028111CE
:1037300003C08091790281110E94871AEB82FC827A
:103740000D831E8386E0FE013196A4E7B2E001906E
:103750000D928A95E1F726960FB6F894DEBF0FBE5C
:10376000CDBFDF91CF911F910F91FF90EF90089502
:10377000E4E7F2E086E0DF011D928A95E9F7109216
:10378000720210927102109273020895833081F1D7
:1037900028F4813059F08230D1F00895853009F451
:1037A00049C0B8F1863009F456C0089580911201DD
:1037B000262F30E0280F311D2F3F310524F4680FEC
:1037C0006093120108958FEF809312010895809104
:1037D0001101262F30E0280F311D2F3F310524F431
:1037E000680F6093110108958FEF80931101089580
:1037F00080911001262F30E0280F311D2F3F310519
:1038000024F4680F6093100108958FEF80931001E6
:10381000089580910F01262F30E0280F311D2F3F92
:10382000310524F4680F60930F0108958FEF8093A2
:103830000F01089580910C01262F30E0280F311DD3
:103840002F3F310524F4680F60930C0108958FEF2A
:1038500080930C01089580910B01262F30E0280FF2
:10386000311D2F3F310524F4680F60930B0108953B
:103870008FEF80930B010895833011F128F481308C
:1038800049F0823091F00895853081F120F1863041
:10389000C1F1089580911201681720F4861B80936E
:1038A0001201089510921201089580911101681774
:1038B00020F4861B80931101089510921101089540
:1038C00080911001681720F4861B809310010895E1
:1038D00010921001089580910F01681720F4861B43
:1038E00080930F01089510920F01089580910C01AB
:1038F000681720F4861B80930C01089510920C0128
:10390000089580910B01681720F4861B80930B01AA
:10391000089510920B0108950F931F9341E050E01A
:1039200060E070E08A019B0104C0000F111F221F9C
:10393000331F8A95D2F7C901B8010E9498141F91CC
:103940000F910C94A2108B3109F468C058F58B309C
:1039500009F486C078F4863009F445C020F4853037
:1039600009F44BC07FC0873009F44AC0883009F49D
:1039700077C078C0803109F464C068F48E3009F0F3
:1039800071C080916B0282FB222720F991E092277F
:1039900090FB82F94CC0863109F462C0893109F488
:1039A0005FC060C08A32E1F060F4873209F455C02C
:1039B00028F48E3108F456C08D5150C08932E9F098
:1039C00051C0833450F48A3308F045C0853309F47C
:1039D00044C0883309F444C045C08334F1F142C087
:1039E0000E94C6173DC080916B02817F8E7F8093BD
:1039F0006B0281E080937B0208950E94D90330C05E
:103A000080916B02982F9095917090FB80F9809334
:103A10006B02911125C0897F877F10C080916B0256
:103A200081FB222720F991E0922790FB81F9809376
:103A30006B029923A9F080916B02816080936B02E5
:103A40000FC080916B0283FB222720F991E092271F
:103A500090FB83F9ECCF895301C080E00E948C1C5D
:103A600081E0089580E0089580E008950C94341D6D
:103A70008E518A3030F4E82FF0E0EB56FE4F808113
:103A8000089580E00895CF93C82F80917B02813004
:103A900051F018F0823099F17DC00E946E1682328A
:103AA00009F07AC004C00E946E16823261F48C2F35
:103AB0000E94361D811104C08C2F0E94A31C1DC0C2
:103AC00081E090E01AC08C2F0E94341D811114C037
:103AD000C43179F048F4CB3079F0C03109F060C0DE
:103AE00082E080937B0208C0C93219F0C83321F00C
:103AF00057C010927B0254C081E0817053C0C9321C
:103B000089F118F5C43171F1B0F4C73009F046C03D
:103B10008EE18093120182E3809311018AE0809309
:103B2000100184E180930F0188E080930C0188E20A
:103B300080930B0133C082EE8C0F863078F58C2F8A
:103B40000E94381D80937A0229C0CE34E9F020F417
:103B5000CB3421F56AE013C0C13579F0C235F1F4F8
:103B600061E00DC080917A02882319F010927A02E8
:103B700015C081E080937B0215C061E006C0809192
:103B80007A020E94C61B0AC06AE080917A020E94F3
:103B90003C1C04C010927B0280E004C081E002C0A3
:103BA00080E0ABCFCF910895809184020895CF93A8
:103BB000DF9300D01F92CDB7DEB79091C202943050
:103BC00019F589837B836A8382E08093E9008FEF14
:103BD0009091E800815095FD06C095ED9A95F1F71A
:103BE00000008111F5CF8091E80085FF0DC040E015
:103BF00050E063E070E0CE0101960E94ED1F8091DD
:103C0000E8008E778093E8000F900F900F90DF917F
:103C1000CF910895BC0184E00C94D71DBC0183E0D2
:103C20000C94D71D22E02093E9002FEF3091E8009B
:103C3000215035FD06C035ED3A95F1F70000211110
:103C4000F5CF2091E80025FF0BC040E050E066E092
:103C500070E00E94ED1F8091E8008E778093E8006D
:103C60000895CF93DF9321E02093E9002FEF309167
:103C7000E800215035FD06C035ED3A95F1F700001A
:103C80002111F5CF2091E80025FF14C0EC0140E0A0
:103C900050E068E070E00E94ED1F8091E8008E77B0
:103CA0008093E80088E0FE01ACE7B2E001900D925D
:103CB0008A95E1F7DF91CF9108958091C10281113A
:103CC00009C00E947E210E94DB218091E200846075
:103CD0008093E20008951092C10208950895089516
:103CE0000C946A1842E061EC81E00E94F72042E205
:103CF00061EC82E00C94F7208091C402833009F4D7
:103D000060C030F4813071F0823009F499C00895B8
:103D10008A3009F485C08B3009F46BC0893009F012
:103D2000A7C020C08091C302813A09F0A1C0809150
:103D3000E800877F8093E8008091C7029091C802D5
:103D4000892B21F468E08CE792E003C060E080E01A
:103D500090E070E00E9438208091E8008B7780939B
:103D6000E80008958091C302813209F081C08091FA
:103D7000C7029091C802029708F07AC08091E800CB
:103D8000877F8093E8008091E80082FD05C08091E4
:103D9000C2028111F8CF6CC02091F3008091F20033
:103DA00090E0922B029729F48091F1008B7F813073
:103DB00021F48091F100809384028091E8008B7758
:103DC00053C08091C302813A09F052C08091C7026A
:103DD0009091C802892B09F04BC08091E800877F41
:103DE0008093E8008091E80080FFFCCF80911D0166
:103DF00036C08091C3028132D9F58091C70290917B
:103E0000C802892BA9F58091E800877F8093E8009C
:103E10000E942C218091C50280931D010C94A21058
:103E20008091C302813221F58091E800877F8093E1
:103E3000E8000E942C218091C6028093850208959B
:103E40008091C302813AA1F48091E800877F80933A
:103E5000E8008091E80080FFFCCF8091850280938C
:103E6000F1008091E8008E778093E8000C942C217B
:103E7000089584B7877F84BF0FB6F894A895809182
:103E80006000886180936000109260000FBE90E037
:103E900080E80FB6F89480936100909361000FBEA4
:103EA0000E94F20B0E947E210E94DB218091E200A1
:103EB00084608093E20078940E9470240E94F80B42
:103EC00083E191E00E94860B8091C202853069F403
:103ED0000E9438188091C0028823B1F30E941F18F5
:103EE000882391F30E94D71FEFCF0E94000C0E94FD
:103EF000E60B0E94E50BE8CF0C947E1F292F332799
:103F000023303105C9F060F42130310581F02230D1
:103F1000310509F044C08BE390E02CE535E043C067
:103F200021323105E1F02232310549F138C082E118
:103F300090E027E935E037C099278130910549F0B5
:103F400028F0029761F5E4E3F5E005C0E8E5F5E067
:103F500002C0E8E4F5E0849190E09F0124C061157F
:103F6000710541F061307105D1F489E090E027E8F6
:103F700035E019C089E090E02EE635E014C0611507
:103F8000710541F06130710551F481E890E029EA52
:103F900035E009C080E490E02AE236E004C080E029
:103FA00090E020E030E0FA0131832083089580E141
:103FB00089BD82E189BD09B400FEFDCF8091D800A2
:103FC0008F7D8093D8008091E00082608093E00034
:103FD0008091E00081FDFCCF0895CF92DF92EF92B7
:103FE000FF920F931F93CF93DF93EC018B017A0124
:103FF0000E944B21811133C0E114F10439F0F70123
:1040000080819181081B190BC80FD91FC12CD12C9D
:104010000115110519F18091E80085FD16C0809108
:10402000E8008E778093E800E114F10449F0F7018D
:1040300080819181C80ED91ED182C08285E00FC0D7
:104040000E944B21882321F30AC089918093F100BB
:1040500001501109FFEFCF1ADF0ADACF80E0DF91BC
:10406000CF911F910F91FF90EF90DF90CF90089527
:104070002091C9023091CA022617370748F061150E
:10408000710539F42091E8002E772093E80001C0F3
:10409000B901FC0120E06115710579F18091C2023E
:1040A0008823F1F18530F1F18091E80083FD3CC077
:1040B0008091E80082FD2EC08091E80080FFEBCF68
:1040C0002091F3008091F20090E0922B6115710530
:1040D00051F08830910538F421912093F10061501E
:1040E00071090196F3CF21E0089709F020E0809153
:1040F000E8008E778093E800CECF2111CFCF0AC0A1
:104100008091C202882361F0853061F08091E800DF
:1041100083FD0AC08091E80082FFF2CF80E008951D
:1041200082E0089583E0089581E008952091C90216
:104130003091CA022617370748F06115710539F426
:104140002091E8002E772093E80001C0B901FC011E
:1041500020E06115710591F18091C202882309F474
:1041600040C0853009F43FC08091E80083FD3DC028
:104170008091E80082FD2FC08091E80080FFE9CFA8
:104180002091F3008091F20090E0922B611571056F
:1041900059F08830910540F424912093F100319634
:1041A000615071090196F2CF21E0089709F020E0F3
:1041B0008091E8008E778093E800CBCF2111CCCF9F
:1041C0000AC08091C202882361F0853061F080913D
:1041D000E80083FD0AC08091E80082FFF2CF80E012
:1041E000089582E0089583E0089581E00895982F6E
:1041F000973068F59093E900981739F07091EC00CA
:104200002091ED005091F00003C0242F762F50E054
:1042100021FD02C09F5FECCF3091EB003E7F3093D9
:10422000EB003091ED003D7F3093ED003091EB00DD
:1042300031603093EB007093EC002093ED005093CD
:10424000F0002091EE0027FDE5CF80E008958F700B
:104250008093E90081E008958091C30287FF11C037
:104260008091E80082FD05C08091C2028111F8CFE3
:1042700011C08091E8008B770BC08091C202882327
:1042800049F08091E80080FFF8CF8091E8008E77B8
:104290008093E80008952091E4003091E50095E6D0
:1042A0004091EC00842F817040FF23C08091E80092
:1042B00080FD1DC08091C202882399F0853099F05D
:1042C0008091EB0085FD11C04091E4005091E50024
:1042D0002417350729F3915011F09A01E1CF84E0BA
:1042E000089582E0089583E0089581E0089580E0D4
:1042F00008954091E80042FFDDCF08950E94EC212F
:104300000E94F421E0EEF0E0808181608083E8ED9E
:10431000F0E080818F77808319BCA7EDB0E08C91AD
:104320008E7F8C9380818F7E80831092C10208954E
:104330000F931F93CF93DF930E94EC210E94F421EF
:10434000C8EDD0E088818F778883888180688883F2
:1043500088818F7D888319BC1092C2021092BE02A0
:104360001092C0021092BF0200EE10E0F8018081AE
:104370008B7F808388818160888342E060E080E079
:104380000E94F720E1EEF0E080818E7F8083E2EEF4
:10439000F0E0808181608083808188608083F80183
:1043A00080818E7F8083888180618883DF91CF9137
:1043B0001F910F910895E8EDF0E080818F7E80835A
:1043C000E7EDF0E080818160808384E082BF81E05E
:1043D0008093C1020C949821E8EDF0E080818E7FFB
:1043E00080831092E20008951092DA001092E100AA
:1043F00008951F920F920FB60F9211242F933F939F
:104400004F935F936F937F938F939F93AF93BF93DC
:10441000EF93FF938091E10082FF0BC08091E20057
:1044200082FF07C08091E1008B7F8093E1000E94B2
:104430006F248091DA0080FF1FC08091D80080FF38
:104440001BC08091DA008E7F8093DA008091D900C2
:1044500080FF0DC080E189BD82E189BD09B400FE05
:10446000FDCF81E08093C2020E945D1E05C019BC91
:104470001092C2020E946B1E8091E10080FF19C061
:104480008091E20080FF15C08091E2008E7F8093D2
:10449000E2008091E20080618093E2008091D80088
:1044A00080628093D80019BC85E08093C2020E948C
:1044B0006F1E8091E10084FF30C08091E20084FF94
:1044C0002CC080E189BD82E189BD09B400FEFDCF29
:1044D0008091D8008F7D8093D8008091E1008F7EFD
:1044E0008093E1008091E2008F7E8093E2008091D2
:1044F000E20081608093E2008091BE02882311F087
:1045000084E007C08091E30087FD02C081E001C024
:1045100083E08093C2020E94701E8091E10083FFBD
:1045200029C08091E20083FF25C08091E100877F50
:104530008093E10082E08093C2021092BE028091DB
:10454000E1008E7F8093E1008091E2008E7F809376
:10455000E2008091E20080618093E20042E060E04E
:1045600080E00E94F7208091F00088608093F00046
:104570000E946E1EFF91EF91BF91AF919F918F911D
:104580007F916F915F914F913F912F910F900FBE4F
:104590000F901F9018951F920F920FB60F92112433
:1045A0002F933F934F935F936F937F938F939F933B
:1045B000AF93BF93CF93DF93EF93FF93C091E90045
:1045C000CF708091EC00D82FD17080FDD0E8109290
:1045D000E9008091F000877F8093F00078940E943A
:1045E0000F231092E9008091F00088608093F00022
:1045F000CD2BCF70C093E900FF91EF91DF91CF9168
:10460000BF91AF919F918F917F916F915F914F91EA
:104610003F912F910F900FBE0F901F9018951F93F1
:10462000CF93DF93CDB7DEB7AA970FB6F894DEBF6E
:104630000FBECDBFE3ECF2E08091F100819322E068
:10464000EB3CF207C9F70E947C1E8091E80083FFD3
:104650002EC18091C3029091C402492F50E04A308C
:10466000510508F024C1FA01EC58FF4F0C949F2427
:10467000803821F0823809F01AC108C08091BF0249
:104680009091C002992389F082600FC08091C70287
:104690008F70873008F00BC18093E9008091EB00A8
:1046A00085FB882780F91092E9009091E800977FB8
:1046B0009093E8008093F1001092F100D1C0282F70
:1046C0002D7F09F0F4C0882319F0823061F0EFC02B
:1046D0008091C502813009F0EAC0933009F080E092
:1046E0008093C0022EC08091C50281112AC08091A2
:1046F000C7028F702FEF280F263008F0D8C08093A4
:10470000E9002091EB0020FF1CC0933021F4809140
:10471000EB00806214C09091EB0090619093EB00ED
:1047200021E030E0A90102C0440F551F8A95E2F74D
:104730004093EA001092EA008091EB008860809339
:10474000EB001092E9008091E800877F8093E800F9
:104750000E942C21ACC08111AAC01091C5021F7704
:104760008091E3008078812B8093E3008091E800C2
:10477000877F8093E8000E942C218091E80080FFD1
:10478000FCCF8091E30080688093E300111102C0A8
:1047900082E001C083E08093C20289C080588230E9
:1047A00008F085C08091C5029091C6028C3D53E00F
:1047B000950779F583E08A838AE289834FB7F89475
:1047C000DE01139620E03EE051E2E32FF0E050934B
:1047D0005700E49120FF03C0E295EF703F5FEF7058
:1047E0008E2F90E0EA3010F0C79601C0C0968D93EE
:1047F0009D932F5F243149F74FBF8091E800877F59
:104800008093E8006AE270E0CE0101960E943820B1
:1048100016C06091C7027091C802AE014F5F5F4F32
:104820000E947C1FBC01892B09F441C09091E800D3
:10483000977F9093E80089819A810E9496208091C9
:10484000E8008B778093E80032C0803881F5809152
:10485000E800877F8093E8008091BE028093F1009A
:104860008091E8008E7772CF811121C08091C502BE
:104870009091C60299270297D4F48091E800877F2F
:104880008093E8008091C5028093BE020E942C2193
:104890008091BE02811106C08091E30087FD02C0B5
:1048A00081E001C084E08093C2020E94721E809168
:1048B000E80083FF0AC08091E800877F8093E800CA
:1048C0008091EB0080628093EB00AA960FB6F8947B
:1048D000DEBF0FBECDBFDF91CF911F910895089528
:1048E000CF938091C2028823A1F0C091E900CF70DC
:1048F0009091EC00892F817090FD80E8C82B109278
:10490000E9008091E80083FD0E940F23CF70C093DF
:10491000E900CF91089597FB072E16F4009407D075
:1049200077FD09D00E94A52407FC05D03EF49095A0
:1049300081959F4F0895709561957F4F0895EE0F73
:10494000FF1F0590F491E02D0994AA1BBB1B51E1B8
:1049500007C0AA1FBB1FA617B70710F0A61BB70BEF
:10496000881F991F5A95A9F780959095BC01CD0194
:104970000895F999FECF92BD81BDF89A992780B527
:104980000895A8E1B0E042E050E00C94ED24262F19
:10499000F999FECF92BD81BDF89A019700B4021635
:1049A00039F01FBA20BD0FB6F894FA9AF99A0FBEE3
:1049B00008950396272F0E94C8240E94C724252FFC
:1049C0000E94C824242F0C94C8240196272F0E94EB
:1049D000C8240C94C724DC01CB01FC01F999FECF5B
:1049E00006C0F2BDE1BDF89A319600B40D92415077
:0A49F0005040B8F70895F894FFCF87
:1049FA0001A50100A6010CA60160022808641E1484
:104A0A000A321ED41D311E121E0E1E0A1E01E2009B
:104A1A00E900EA00B500B600B700CD008301CC007A
:104A2A008A0192019401210223022402250226020C
:104A3A0027022A02B300B4006F0070008182833516
:104A4A0036323331F7F6F5F49392946697C600003E
:104A5A0000000000E200E900EA00B500B600B70075
:104A6A00CD008301CC008A01920194012102230224
:104A7A0024022502260227022A02B300B4006F008C
:104A8A0070008182830102030405060708090000F9
:00000001FF
